:100000006F00C0006F0000006F00C0029702000088
:10001000938282027390523073500030735040309C
:1000200097A100009381017D17C10000130181A9F0
:100030006F205060130101F82320110023222100BA
:10004000232431002326410023285100232A610064
:10005000232C7100232E8100232091022322A10250
:100060002324B1022326C1022328D102232AE1023C
:10007000232CF102232E0103232011052322210525
:10008000232431052326410523285105232A610510
:10009000232C7105232E8105232091072322A107FC
:1000A0002324B1072326C1072328D107232AE107E8
:1000B000232CF107F3221034232E5106732520340C
:1000C000F325103413060100EF30401E7310153471
:1000D000B72200009382028073A0023083200100C7
:1000E00003214100832181000322C10083220101F9
:1000F00003234101832381010324C10183240102DD
:1001000003254102832581020326C10283260103C0
:1001100003274103832781030328C10383280104A4
:100120000329410483298104032AC104832A010588
:10013000032B4105832B8105032CC105832C01066C
:10014000032D4106832D8106032EC106832E010750
:10015000032F4107832F810713010108730020300B
:10016000130101FE232E1100232C81001304010230
:10017000A30704FE230704FEB7870080938507DEEC
:1001800013858129EF40C04AEF00400E6F0000093F
:10019000EF008045930705002307F4FE8307E4FE84
:1001A000130720036386E70413072003634CF7005B
:1001B000130700036386E702130710036386E70251
:1001C0006F00400513078006638CE70213071007D2
:1001D000638CE702130730036380E7026F0080033C
:1001E000EF0000126F008003EF00C0176F000003E4
:1001F000EF0000236F008002EF00402D6F0000022F
:10020000EF00C0066F00800193071000A307F4FE03
:100210006F00C000EF004002130000008347F4FEAF
:10022000E38807F6130000008320C1010324810145
:100230001301010267800000130101FF2326110052
:100240002324810013040101B7870080938587E090
:1002500013858129EF40C03D130000008320C100B9
:10026000032481001301010167800000130101FFD5
:10027000232611002324810013040101B787008085
:10028000938547E213858129EF40803AB787008044
:10029000938547E313858129EF408039B787008034
:1002A000938547E513858129EF408038B787008023
:1002B000938587E713858129EF408037B7870080D2
:1002C000938587E913858129EF408036B7870080C1
:1002D000938547EB13858129EF408035B7870080F0
:1002E000938507ED13858129EF40803413000000CA
:1002F0008320C100032481001301010167800000F5
:10030000130101FF2326110023248100130401019E
:10031000B7870080938507EE13858129EF40403130
:10032000EF00C03693070500638C0700B787008095
:100330009385C7EE13858129EF40802F6F00400120
:10034000B7870080938547EF13858129EF40402EC2
:10035000130000008320C100032481001301010168
:1003600067800000130101FB23261104232481046C
:1003700013040105B78700809385C7EF1385812992
:10038000EF40002BB78700809385C7F01385812944
:10039000EF40002A9307C4FB138607009305000073
:1003A00013052003EF00403AB78700809385C7F11B
:1003B00013858129EF40C0279307C4FB938507006D
:1003C00013858129EF40C026B78700809385C7F247
:1003D00013858129EF40C0259307C4FB13860700CE
:1003E0009305100013052003EF000036B787008047
:1003F0009385C7F113858129EF4080239307C4FBC0
:100400009385070013858129EF40802213000000A7
:100410008320C104032481041301010567800000C7
:10042000130101FE232E1100232C8100130401026D
:10043000B78700809385C7F313858129EF40401F5C
:1004400013053000EF00004E9307050093F7F70FF8
:100450002306F4FE8347C4FE130784FE93050700BA
:1004600013850700EF00500FB78700809385C7F40E
:1004700013858129EF40C01B9307C4FE93850700B5
:1004800013858129EF40C01AB78700809385C7F58F
:1004900013858129EF40C019930784FE93850700D7
:1004A00013858129EF40C018B7870080938507F72F
:1004B00013858129EF40C017130000008320C1017C
:1004C000032481011301010267800000130101FE72
:1004D000232E1100232C810013040102B787008012
:1004E000938547F713858129EF408014B7870080F3
:1004F000938547F813858129EF4080131305100079
:10050000EF00805C930705002326F4FEB787008088
:10051000938547F913858129EF4080119307C4FE25
:100520009385070013858129EF408010B7870080ED
:10053000938547FA13858129EF40800F8327C4FEF6
:10054000130704FE9305070013850700EF00900DC5
:10055000930704FE9385070013858129EF40400D22
:10056000B7870080938587FB13858129EF40400C76
:1005700013054000EF004055930705002326F4FEC5
:10058000B7870080938547F913858129EF40400A9A
:100590009307C4FE9385070013858129EF40400926
:1005A000B7870080938547FA13858129EF4040087B
:1005B0008327C4FE130704FE930507001385070075
:1005C000EF005006930704FE9385070013858129E9
:1005D000EF400006130000008320C10103248101C5
:1005E0001301010267800000130101FE232E110098
:1005F000232C810013040102230704FEA30704FE39
:10060000B7870080938587FC13858129EF404002DE
:100610006F0000039307C4FE1306200093850700B4
:1006200013858129EF30D06D930705002307F4FE71
:100630008347E4FE6386070093071000A307F4FED8
:100640008347F4FEE38807FCA30604FE9307C4FE79
:100650009385070013858129EF30907DB78700804F
:10066000938507FD13858129EF30907C8347C4FE75
:100670009397870193D78741138507008320C10192
:10068000032481011301010267800000130101FEB0
:10069000232E1100232C810013040102230704FEE2
:1006A000A30704FEB7870080938587FC1385812903
:1006B000EF3010786F0000039307C4FE130620008C
:1006C0009385070013858129EF3090639307050018
:1006D0002307F4FE8347E4FE6386070093071000B8
:1006E000A307F4FE8347F4FEE38807FCA30604FE99
:1006F0009307C4FE9385070013858129EF3050735B
:10070000B7870080938507FD13858129EF305072EC
:100710000347C4FE9307E0046308F7000347C4FEE1
:100720009307E0066316F700930700006F00800050
:1007300093071000138507008320C1010324810162
:100740001301010267800000130101FD232611023D
:100750002324810213040103930705001387050076
:10076000232CC4FCA30FF4FC93070700230FF4FC15
:10077000A30704FE230704FEA30604FE230604FECB
:10078000130744FE8347F4FD930507001385070014
:10079000EF00805CB7870080938587FD13858129F2
:1007A000EF301069930744FE938507001385812974
:1007B000EF301068B7870080938587FF1385812904
:1007C000EF301067B78700809385870013858129F4
:1007D000EF3010666F004012930784FE130620006E
:1007E0009385070013858129EF3090519307050009
:1007F0002306F4FE8347C4FE6386070093071000B8
:10080000A306F4FE8347D4FEE38807FCA30404FE9A
:10081000A30604FE0347F4FE8347F4FD9387F7FF26
:100820006350F70C834784FE938787FF130780018B
:10083000636AF70613972700B78700809387070836
:10084000B307F70083A7070067800700B78700801A
:10085000938507F713858129EF30905D930710008A
:100860002307F4FE6F0000098347E4FD6382070855
:10087000930784FE9385070013858129EF30505B31
:100880008347F4FE032784FDB307F7001307000234
:100890002380E7008347F4FE93871700A307F4FE45
:1008A0006F000005930784FE938507001385812957
:1008B000EF301058834684FE8347F4FE032784FDFF
:1008C000B307F70013978601135787412380E7008A
:1008D0008347F4FE93871700A307F4FE6F0080019F
:1008E000130000006F000001130000006F00800083
:1008F00013000000A30604FE8347E4FEE38407F030
:100900008347F4FE032784FDB307F7002380070025
:10091000130000008320C10203248102130101039C
:1009200067800000130101FC232E1102232C810299
:100930001304010493070500A307F4FC232604FE17
:10094000A30504FE930710002322F4FEA30104FE76
:10095000230104FEA30004FEB7870080938587006F
:1009600013858129EF30D04C6F0000149307C4FD2C
:10097000130620009385070013858129EF30503836
:1009800093070500A300F4FE834714FE6386070067
:10099000930710002301F4FE834724FEE38807FC3D
:1009A000A30E04FC230104FE0347B4FE8347F4FCBA
:1009B0006374F70C8347C4FD938787FF1307800197
:1009C000636CF70213972700B78700809387470E61
:1009D000B307F70083A7070067800700B787008089
:1009E000938507F713858129EF3090449307100012
:1009F000A301F4FE6F00400B0347C4FD9307F00210
:100A000063F8E7060347C4FD9307900363E2E70634
:100A10009307C4FD9385070013858129EF3050416A
:100A20008347C4FD938707FD13870700832744FE90
:100A3000B307F7020327C4FEB307F7002326F4FE2B
:100A40008347B4FE93871700A305F4FE032744FEF3
:100A50009307070093972700B387E7009397170042
:100A60002322F4FE6F00C000130000006F00C003DB
:100A7000130000006F0040030347C4FD9307D0003C
:100A80006308F7000347C4FD9307A000631EF70047
:100A9000B7870080938507F713858129EF30503998
:100AA00093071000A301F4FE834734FEE38607EEAC
:100AB0008327C4FE138507008320C1030324810319
:100AC0001301010467800000130101FD23261102B8
:100AD000232481021304010393070500A30FF4FCF0
:100AE000232604FEA30504FE230504FEA30404FE3E
:100AF0008347F4FD9397070193D707019397170056
:100B00002313F4FE231204FE130704FE8347F4FDAF
:100B10009305070013850700EF000024B7870080C6
:100B20009385C70013858129EF309030930704FE29
:100B30009385070013858129EF30902FB7870080B8
:100B40009385070213858129EF30902EB7870080A7
:100B50009385470713858129EF30902D6F00C01DC5
:100B6000930744FE1306200093850700138581290F
:100B7000EF30101993070500A304F4FE834794FE99
:100B80006386070093071000A305F4FE8347B4FEB5
:100B9000E38807FCA30204FEA30504FE034744FE0A
:100BA0009307F00263F8E700034744FE93079003BE
:100BB00063FAE702034744FE9307000663F8E70081
:100BC000034744FE9307600663FEE700034744FEC5
:100BD0009307000463F2E702034744FE93076004AF
:100BE00063ECE700930744FE938507001385812992
:100BF000EF3010246F000004034744FE9307000207
:100C0000631CF700B78700809385C7071385812988
:100C1000EF3010226F000002034744FE9307D0001C
:100C2000631AF700B7870080938507F7138581293A
:100C3000EF301020834744FE938767FF1307C005FA
:100C4000636AF70E13972700B7870080938787148E
:100C5000B307F70083A70700678007008327C4FE58
:100C60006F00400E8327C4FE939747002326F4FEAF
:100C7000834744FE138707008327C4FEB307F700AA
:100C8000938707FD2326F4FE6F00000B8327C4FE25
:100C9000939747002326F4FE8327C4FE9387A7007B
:100CA0002326F4FE6F0040098327C4FE9397470074
:100CB0002326F4FE8327C4FE9387B7002326F4FE81
:100CC0006F0080078327C4FE939747002326F4FE16
:100CD0008327C4FE9387C7002326F4FE6F00C00558
:100CE0008327C4FE939747002326F4FE8327C4FE80
:100CF0009387D7002326F4FE6F0000048327C4FEE9
:100D0000939747002326F4FE8327C4FE9387E700CA
:100D10002326F4FE6F0040028327C4FE939747000A
:100D20002326F4FE8327C4FE9387F7002326F4FED0
:100D30006F008000130000008347A4FEE38807E4EF
:100D40008327C4FE138507008320C1020324810288
:100D50001301010367800000130101FE232E8100AF
:100D600013040102930705002324B4FEA307F4FE35
:100D7000832784FE93873700238007000347F4FE10
:100D80009307A000B377F70293F7F70F9387070352
:100D900013F7F70F832784FE938727001317870124
:100DA000135787412380E7000347F4FE9307A00011
:100DB000B357F70213F7F70F9307A000B377F702C3
:100DC00093F7F70F9387070313F7F70F832784FE33
:100DD0009387170013178701135787412380E70074
:100DE0000347F4FE93074006B357F70213F7F70FD4
:100DF0009307A000B377F70293F7F70F93870703E2
:100E000093F7F70F1397870113578741832784FEC2
:100E10002380E700130000000324C1011301010235
:100E200067800000130101FE232E810013040102DC
:100E30002326A4FE2324B4FE032684FE1306B60054
:100E4000230006000326C4FE1376F60F1376F60081
:100E50001376F60F130606039375F60F032684FE2A
:100E60001306A6009395850193D585412300B6000E
:100E70000326C4FE135646001376F60F1376F600CB
:100E80001376F60F130606039375F60F032684FEFA
:100E9000130696009395850193D585412300B600EE
:100EA0000326C4FE135686001376F60F1376F6005B
:100EB0001376F60F130606039375F60F032684FECA
:100EC000130686009395850193D585412300B600CE
:100ED0000326C4FE1356C6001376F60F1376F600EB
:100EE0001376F60F130606039375F60F032684FE9A
:100EF000130676009395850193D585412300B600AE
:100F00000326C4FE135606011376F60F1376F60079
:100F10001376F60F130606039375F60F032684FE69
:100F2000130666009395850193D585412300B6008D
:100F30000326C4FE135646011376F60F1376F60009
:100F40001376F60F130606039375F60F032684FE39
:100F5000130656009395850193D585412300B6006D
:100F60000326C4FE135686011376F60F1376F60099
:100F70001376F60F130606039375F60F032684FE09
:100F8000130646009395850193D585412300B6004D
:100F90000326C4FE1356C6011376F60F1376F60029
:100FA0001376F60F130606039375F60F032684FED9
:100FB000130636009395850193D585412300B6002D
:100FC0000326C4FE130306009303000013D6F34167
:100FD000930706001356F6411308060093F6F7FF31
:100FE00013770800B3876600138607003336D600F0
:100FF000330877003307060113080700135E084023
:10100000935EF84193070E0013880E0093F7F70FD5
:1010100093F7F70093F7F70F9387070313F7F70F8B
:10102000832784FE9387270013178701135787416F
:101030002380E700832784FE938717001307800728
:101040002380E700832784FE130700032380E70043
:10105000130000000324C101130101026780000096
:10106000130101FE232E81001304010293070500E2
:101070002324B4FEA307F4FE832784FE938747004E
:10108000238007008347F4FE93F7F70093F7F70FE9
:101090009387070313F7F70F832784FE938737009F
:1010A00013178701135787412380E7008347F4FE16
:1010B00093D7470093F7F70F93F7F70093F7F70FDE
:1010C0009387070313F7F70F832784FE938727007F
:1010D00013178701135787412380E700832784FE76
:1010E00093871700130780072380E700832784FE78
:1010F000130700032380E700130000000324C1014D
:101100001301010267800000130101FE232E8100FC
:1011100013040102F32740F12324F4FE832784FE05
:101120002322F4FE232604FE6F00C003370700408D
:10113000832744FE939657008327C4FEB386F600A8
:10114000B717000093870780B387F60093972700AF
:10115000B307F70023A007008327C4FE9387170077
:101160002326F4FE8327C4FEE38207FC232604FE25
:101170006F004002370700408327C4FE9397270083
:10118000B307F70023A007008327C4FE9387170047
:101190002326F4FE0327C4FE9307E001E3FCE7FCEB
:1011A00037070040832744FE938707209397C700A3
:1011B000B307F70023A00700B71700009387078045
:1011C000F3A747302320F4FE130000000324C101DD
:1011D0001301010267800000130101FD2326810233
:1011E00013040103232EA4FCF32740F12326F4FE6D
:1011F0008327C4FE2324F4FE370700408327C4FD61
:1012000093D75700832684FE93965600B386F60044
:10121000B717000093870780B387F60093972700DE
:10122000B307F70083A707002322F4FE8327C4FD3A
:1012300093F7F70113071000B317F700032744FED5
:10124000B367F7002322F4FE370700408327C4FD6D
:1012500093D75700832684FE93965600B386F600F4
:10126000B717000093870780B387F600939727008E
:10127000B307F700032744FE23A0E7001300000094
:101280000324C1021301010367800000130101FE62
:10129000232E8100130401022326A4FE2324B4FE7E
:1012A000370700408327C4FE93972700B307F70052
:1012B000032784FE23A0E700130000000324C101DC
:1012C0001301010267800000130101FE232E1100AB
:1012D000232C810013040102230704FEEFF0DFE258
:1012E0009306300013069001B74500601385811BFB
:1012F000EF304004B7B74F031385C75AEF101058AB
:101300009305100013055000EFF05FF8130550002F
:10131000EFF09FECEF20D06BEF00C02FEF00C03B51
:10132000A30704FE6F0000030347F4FE9387011137
:10133000B307F700238007000347F4FE93870113E8
:10134000B307F700238007008347F4FE9387170055
:10135000A307F4FE0347F4FE9307F001E3F6E7FC6E
:101360009307C4FE13061000938507001385812997
:10137000EF300019930705002307F4FE8347E4FECE
:10138000638807268347C4FE130720036380E712A0
:10139000130730036388E72213071003639EE722D5
:1013A000B78700809385C72B13858129EF304028AC
:1013B00013858129EF30C03293070500A306F4FEA0
:1013C000EF00C03893070500138707002388E10E5C
:1013D0008347D4FE639A070483C7010F639C070009
:1013E000B78700809385872D13858129EF304024AE
:1013F0006F004002B78700809385872F138581296E
:10140000EF300023B78700809385C731138581298A
:10141000EF300022B787008093850732138581293A
:10142000EF3000216F00001D0347D4FE930710002A
:10143000631CF700B78700809385473713858129A0
:10144000EF30001F6F0040050347D4FE93072000D4
:10145000631CF700B78700809385073913858129BE
:10146000EF30001D6F0040030347D4FE9307400098
:10147000631CF700B78700809385073B138581299C
:10148000EF30001B6F004001B78700809385C73C99
:1014900013858129EF30C019B78700809385C73E37
:1014A00013858129EF30C0186F00C014B787008002
:1014B0009385C72B13858129EF308017130600020F
:1014C0009385011113858129EF30800313858129CC
:1014D000EF30002193070500A306F4FE8347D4FEF6
:1014E000639A070483C7010F639C0700B7870080D6
:1014F0009385872D13858129EF3080136F0040027B
:10150000B78700809385872F13858129EF3040129C
:10151000B78700809385C73113858129EF3040114B
:10152000B78700809385073213858129EF304010FB
:101530006F0040080347D4FE93071000631CF700B8
:10154000B78700809385473713858129EF30400E98
:101550006F0040050347D4FE93072000631CF7008B
:10156000B78700809385073913858129EF30400CB8
:101570006F0040030347D4FE93074000631CF7004D
:10158000B78700809385073B13858129EF30400A98
:101590006F004001B78700809385C73C1385812980
:1015A000EF300009B78700809385C73E13858129F6
:1015B000EF3000089385011113858129EF30400732
:1015C0006F004003B7870080938507441385812906
:1015D000EF3000066F000002B787008093858746D2
:1015E00013858129EF30C004EF00000F6F008000E9
:1015F000130000000347C4FE93073003E312F7D63D
:10160000130000008320C1010324810113010102A2
:1016100067800000130101FF2326110023248100AD
:1016200013040101B78700809385C748138581297A
:10163000EF300000B78700809385074E138581291E
:10164000EF20107FB787008093854753138581294A
:10165000EF20107EB78700809385875813858129F6
:10166000EF20107DB78700809385075D1385812962
:10167000EF20107CB78700809385C73E13858129B2
:10168000EF20107BB78700809385476213858129FF
:10169000EF20107AB78700809385876713858129AB
:1016A000EF201079B787008093850769138581291A
:1016B000EF201078B7870080938507321385812942
:1016C000EF201077130000008320C1000324810065
:1016D0001301010167800000130101FF232611009F
:1016E0002324810013040101B78700809385876A52
:1016F00013858129EF20D073B78700809385C76F4A
:1017000013858129EF20D072B78700809385877277
:1017100013858129EF20D071B787008093854775A5
:1017200013858129EF20D070B78700809385073219
:1017300013858129EF20D06F130000008320C100A2
:10174000032481001301010167800000130101FEE1
:10175000232E1100232C810013040102A30704FE91
:10176000230704FEA30604FEB7870080938547780D
:1017700013858129EF20D06B230704FE6F008008BA
:101780009307C4FE13061000938507001385812973
:10179000EF20105793070500A306F4FE8347D4FEFD
:1017A000638207069307C4FE1306100093850700A3
:1017B00013858129EF2090490347C4FE9307D00089
:1017C0006318F70093071000A307F4FE6F0080036F
:1017D0008346E4FE0347C4FE93870113B387F600F4
:1017E0002380E7008347E4FE938717002307F4FE76
:1017F0000347E4FE930700026316F7009307100007
:10180000A307F4FE8347F4FEE38C07F6B787008056
:101810009385C73113858129EF2090618347E4FECA
:10182000138507008320C1010324810113010102F4
:1018300067800000130101FF23261100232481008B
:10184000130401012382011C238A012037A7008091
:10185000130787FF23A0E11CB7A70080938787FFAA
:1018600003A7470023ACE12013060002B725006060
:101870001385811CEF20106C1385811CEF20907D57
:10188000130000008320C100032481001301010123
:1018900067800000130101FE232E1100232C81001C
:1018A000130401022326A4FE2324B4FE2322C4FE33
:1018B00093870600A301F4FE8327C4FE03A7070055
:1018C0008327C4FE83A747009385070013050700FD
:1018D000EF3040038327C4FE83A70700034734FE8D
:1018E0001317070113570701832644FE1306100040
:1018F000832584FE13850700EF30001D8327C4FE77
:1019000003A707008327C4FE83A74700938507002A
:1019100013050700EF30000D130000008320C10104
:10192000032481011301010267800000130101FEFD
:10193000232E1100232C8100130401022326A4FE70
:101940002324B4FE930706002320D4FEA303F4FE51
:101950008327C4FE03A707008327C4FE83A747008D
:101960009385070013050700EF20D0798327C4FE75
:1019700083A70700034774FE1316070113560601D9
:1019800013071000832604FE832584FE13850700B9
:10199000EF3080138327C4FE03A707008327C4FE0C
:1019A00083A747009385070013050700EF308003E6
:1019B000130000008320C1010324810113010102EF
:1019C00067800000130101FE232E1100232C8100EB
:1019D00013040102A30704FEB78700809385477DA7
:1019E00013858129EF20D044EF00506FEFF09FE482
:1019F0006F00C008B78700809385477F13858129D2
:101A0000EF201043EFE05FBE93070500A307F4FE4D
:101A10008307F4FE938707FD13071004636CF70434
:101A200013972700B7970080938787F5B307F700D0
:101A300083A7070067800700EF00506A6F0000046B
:101A4000EF0010746F008003130710002382E11C65
:101A50006F00C002EF10400A6F004002EF00907B61
:101A60006F00C001EF0040046F004001EF008011E3
:101A70006F00C000EF10C02D1300000083C7411C91
:101A8000E38A07F6B79700809385478113858129FC
:101A9000EF20103A130000008320C10103248101CC
:101AA0001301010267800000130101FE232E1100C3
:101AB000232C810013040102A30704FE6F00800998
:101AC000B79700809385478313858129EF2050368F
:101AD000EF000019EFE05FB193070500A307F4FEE4
:101AE0008307F4FE938707FD130710046360F7066E
:101AF00013972700B797008093870706B307F7006F
:101B000083A7070067800700EF0080156F0080043F
:101B1000EF0010676F000004130710002382E11C20
:101B20006F004003EF00507D6F00C002EF00906E29
:101B30006F004002EF00001E6F00C001EF00003791
:101B40006F004001EF00405C6F00C000EF104020CC
:101B50001300000083C7411CE38407F62382011CA5
:101B6000B78700809385477D13858129EF20502C0E
:101B7000130000008320C10103248101130101022D
:101B800067800000130101FE232E1100232C810029
:101B900013040102A30704FE6F008009B7970080B9
:101BA0009385478313858129EF209028EF00400B10
:101BB000EFE09FA393070500A307F4FE8307F4FE5D
:101BC000938707FD130710046360F7061397270038
:101BD000B797008093878716B307F70083A707009E
:101BE00067800700EF00007C6F008004EF00505911
:101BF0006F000004130710002382E11C6F004003F4
:101C0000EF00906F6F00C002EF00D0606F004002E5
:101C1000EF0090046F00C001EF00D0176F0040018B
:101C2000EF00102F6F00C000EF10801213000000B3
:101C300083C7411CE38407F62382011CB787008019
:101C40009385477D13858129EF20901E13000000A6
:101C50008320C10103248101130101026780000078
:101C6000130101FF23261100232481001304010125
:101C7000B79700809385878613858129EF20501BB5
:101C8000B79700809385878713858129EF20501AA5
:101C9000B79700809385878913858129EF20501994
:101CA000B79700809385878B13858129EF20501883
:101CB000B79700809385478D13858129EF205017B2
:101CC000B79700809385C78E13858129EF20501622
:101CD000B79700809385479113858129EF20501590
:101CE000B79700809385479313858129EF2050147F
:101CF000B79700809385479513858129EF2050136E
:101D0000130000008320C10003248100130101019E
:101D100067800000130101FE232E1100232C810097
:101D200013040102230604FEA30504FEA30704FE18
:101D3000B79700809385C79713858129EF20500FAF
:101D40006F00000EB79700809385079B138581294C
:101D5000EF20100E13051000EFE01FD793070500CA
:101D600013F7F70F238AE120B79700809385879CAC
:101D700013858129EF20D00B13051000EFE0DFD48D
:101D80009307050093F7F70F2306F4FEB79700803B
:101D90009385079E13858129EF20900983C74121F0
:101DA000130744FE9305070013850700EFF04FABC0
:101DB000930744FE9385070013858129EF20500780
:101DC000B79700809385879F13858129EF20500660
:101DD0008347C4FE130744FE9305070013850700DD
:101DE000EFF00FA8930744FE938507001385812920
:101DF000EF201004B7970080938587A01385812971
:101E0000EF201003EFE09F8893070500138707007A
:101E1000930710006316F70093071000A307F4FE62
:101E20008347F4FEE38007F283A7011C9306B4FE08
:101E30001307C4FE1306100093050700138507005F
:101E4000EFF0DFAEB79700809385C7A01385812997
:101E5000EF20007EB7970080938587A213858129A4
:101E6000EF20007D8347B4FE130744FE930507006F
:101E700013850700EFF0CF9E930744FE938507007C
:101E800013858129EF20C07AB7970080938587A3B7
:101E900013858129EF20C079130000008320C10140
:101EA000032481011301010267800000130101FE78
:101EB000232E1100232C810013040102A30704FE2A
:101EC000A30604FE230704FE230604FEB797008042
:101ED0009385C7A313858129EF2080756F00001AB1
:101EE000B79700809385079B13858129EF20407465
:101EF00013051000EFE05FBD9307050013F7F70F20
:101F0000238AE120A30704FE6F0080088347F4FEC4
:101F10009387070393F7F70F2306F4FEB797008024
:101F20009385C7A613858129EF2080709307C4FE8F
:101F30009385070013858129EF20806F8347F4FE86
:101F4000639A0700B7970080938547A81385812976
:101F5000EF20006EB79700809385C7A8138581296D
:101F6000EF20006D13051000EFE01FB6130705000A
:101F70008347F4FE1377F70F930604FFB387F60049
:101F8000238CE7FE8347F4FE93871700A307F4FE34
:101F90000347F4FE93073000E3FAE7F6B7970080B3
:101FA0009385079E13858129EF20806883C741218F
:101FB000130704FE9305070013850700EFF04F8A0F
:101FC000930704FE9385070013858129EF2040665F
:101FD000B7970080938507A913858129EF20406575
:101FE000A30704FE6F0000068347F4FE130704FFF7
:101FF000B307F70083C787FF130704FE93050700A5
:1020000013850700EFF0CF85B7970080938507AA67
:1020100013858129EF20C061930704FE9385070093
:1020200013858129EF20C060B7970080938547AA68
:1020300013858129EF20C05F8347F4FE9387170043
:10204000A307F4FE0347F4FE93073000E3FEE7F82E
:10205000B7970080938587AA13858129EF20405D7B
:10206000EFE0CFE293070500138707009307100006
:102070006316F700930710002307F4FE8347E4FE7E
:10208000E38007E683A7011C9306D4FE130784FEB2
:10209000130640009305070013850700EFF01F8922
:1020A000B79700809385C7A013858129EF204058FA
:1020B000B7970080938587A213858129EF20405729
:1020C0008347D4FE130704FE93050700138507001A
:1020D000EFE01FF9930704FE93850700138581291C
:1020E000EF200055B7970080938587A3138581293A
:1020F000EF200054130000008320C101032481015C
:102100001301010267800000130101FD2326110263
:102110002324810213040103A30704FEA30604FE83
:10212000A30304FE230704FE230204FEB7970080E6
:10213000938507AB13858129EF20804FB7970080E7
:10214000938547AE13858129EF20804E130530001B
:10215000EFE04FFD93070500A306F4FE8347D4FE8E
:1021600013850700EF40906F930705002324F4FECA
:102170006F00001AB79700809385079B138581290C
:10218000EF20004B13051000EFE01F9493070500AC
:1021900013F7F70F238AE120A30704FE6F008008DE
:1021A0008347F4FE9387070393F7F70F2302F4FEA8
:1021B000B79700809385C7A613858129EF204047F4
:1021C000930744FE9385070013858129EF2040463D
:1021D0008347F4FE639A0700B7970080938547A86A
:1021E00013858129EF20C044B79700809385C7A845
:1021F00013858129EF20C04313051000EFE0DF8C29
:10220000930605008347F4FE032784FEB307F70017
:1022100013F7F60F2380E7008347F4FE9387170038
:10222000A307F4FE0347F4FE8347D4FEE36AF7F600
:10223000B79700809385079E13858129EF20403F43
:1022400083C741211307C4FD9305070013850700C9
:10225000EFE01FE19307C4FD9385070013858129F3
:10226000EF20003DB7970080938507A9138581294A
:10227000EF20003CA30704FE6F0000068347F4FE36
:10228000032784FEB307F70083C707001307C4FDC5
:102290009305070013850700EFE09FDCB7970080E8
:1022A000938507AA13858129EF2080389307C4FD01
:1022B0009385070013858129EF208037B797008029
:1022C000938547AA13858129EF2080368347F4FE42
:1022D00093871700A307F4FE0347F4FE8347D4FE59
:1022E000E36EF7F8B7970080938587AA1385812955
:1022F000EF200034EFE08FB9930705001387070044
:10230000930710006316F700930710002307F4FEED
:102310008347E4FEE38007E683A7011C930674FE6F
:102320000347D4FE13060700832584FE13850700A8
:10233000EFF0CFDFB79700809385C7A01385812981
:10234000EF20002FB7970080938587A213858129FE
:10235000EF20002E834774FE1307C4FD930507008A
:1023600013850700EFE0DFCF9307C4FD93850700D7
:1023700013858129EF20C02BB7970080938587A311
:1023800013858129EF20C02A032584FEEF40104EDB
:10239000130000008320C102032481021301010302
:1023A00067800000130101FF232611002324810010
:1023B00013040101B79700809385878613858129CF
:1023C000EF200027B79700809385878713858129A1
:1023D000EF200026B7970080938587891385812990
:1023E000EF200025B7970080938507B113858129D9
:1023F000EF200024B79700809385C7B21385812909
:10240000EF200023B7970080938547B41385812977
:10241000EF200022B797008093854791138581298B
:10242000EF200021B797008093854793138581297A
:10243000EF200020B7970080938547951385812969
:10244000EF20001F130000008320C100032481003F
:102450001301010167800000130101FE232E11000A
:10246000232C810013040102230604FEA30704FEAB
:10247000B7970080938587B613858129EF20401B8D
:102480006F008008B79700809385C7B913858129AD
:10249000EF20001A13051000EFE00FE3930705008B
:1024A00013F7F70F238AE120B7970080938547BB86
:1024B00013858129EF20C01783C74121130744FEEC
:1024C0009305070013850700EFE09FB9930744FECB
:1024D0009385070013858129EF208015B797008029
:1024E000938587A013858129EF208014EFE00F9A50
:1024F0009307050013870700930710006316F70082
:1025000093071000A307F4FE8347F4FEE38C07F65D
:1025100003A7011C9307C4FE93061000138607004F
:102520009385412113050700EFF0CFB6B7970080E0
:102530009385C7BC13858129EF20800FB797008052
:10254000938587BE13858129EF20800E8347C4FEC3
:10255000130744FE9305070013850700EFE05FB003
:10256000930744FE9385070013858129EF20400CD3
:10257000B7970080938587A313858129EF20400BAF
:10258000130000008320C101032481011301010213
:1025900067800000130101FE232E1100232C81000F
:1025A00013040102A30704FE230704FE230604FE0E
:1025B000B7970080938587BF13858129EF20400757
:1025C0006F008007B79700809385C7B9138581296D
:1025D000EF20000613051000EFE00FCF9307050072
:1025E00013F7F70F238AE120B79700809385079EA2
:1025F00013858129EF20C00383C74121130704FEFF
:102600009305070013850700EFE09FA5B7970080AB
:10261000938587C213858129EF208001EFE00F8722
:102620009307050013870700930710006316F70050
:10263000930710002307F4FE8347E4FEE38407F8C2
:1026400003A7011C930784FE93064000138607002E
:102650009385412113050700EFF0CFA3B7970080C2
:102660009385C7A013858129EF10907CB7970080D0
:10267000938547C313858129EF10907BA30704FE40
:102680006F000006B7970080938507AA13858129FC
:10269000EF10107A8347F4FE130704FFB307F70027
:1026A00083C787FF130704FE930507001385070000
:1026B000EFE01F9B930704FE938507001385812994
:1026C000EF101077B7970080938547AA138581296B
:1026D000EF1010768347F4FE93871700A307F4FEEC
:1026E0000347F4FE93073000E3FEE7F8B797008056
:1026F000938547C413858129EF1090731300000060
:102700008320C101032481011301010267800000BD
:10271000130101FD23261102232481021304010366
:10272000A30704FEA30604FE230704FE230204FEFF
:10273000B7970080938507AB13858129EF10506F01
:10274000B7970080938547AE13858129EF10506EAF
:1027500013053000EFE00F9D93070500A306F4FE7C
:102760008347D4FE13850700EF40500F9307050001
:102770002324F4FE6F008008B79700809385079BA1
:1027800013858129EF10D06A13051000EFE0CFB355
:102790009307050013F7F70F238AE120B79700800E
:1027A0009385079E13858129EF10906883C7412187
:1027B0001307C4FD9305070013850700EFE05F8A48
:1027C0009307C4FD9385070013858129EF10506698
:1027D000B7970080938587C213858129EF105065D4
:1027E000EFD0DFEA93070500138707009307100077
:1027F0006316F700930710002307F4FE8347E4FEF7
:10280000E38C07F603A7011C8347D4FE93860700D9
:10281000032684FE9385412113050700EFF08F877F
:10282000B79700809385C7A013858129EF1050606A
:10283000B7970080938547C313858129EF10505FB8
:10284000A30704FE6F000006B7970080938507AAD0
:1028500013858129EF10D05D8347F4FE032784FEA2
:10286000B307F70083C707001307C4FD93050700EC
:1028700013850700EFE0CFFE9307C4FD93850700A3
:1028800013858129EF10D05AB7970080938547AA06
:1028900013858129EF10D0598347F4FE93871700E1
:1028A000A307F4FE0347F4FE93073000E3FEE7F8C6
:1028B000B7970080938547C413858129EF1050573F
:1028C000032584FEEF40807A130000008320C102BC
:1028D000032481021301010367800000130101FF3B
:1028E000232611002324810013040101B7970080DF
:1028F0009385878613858129EF109053B7970080C1
:102900009385878713858129EF109052B7970080B0
:102910009385878913858129EF109051B79700809F
:10292000938587C413858129EF109050B797008055
:10293000938547C613858129EF10904FB797008084
:102940009385479113858129EF10904EB7970080AA
:102950009385479313858129EF10904DB797008099
:10296000938507C813858129EF10904C1300000050
:102970008320C1000324810013010101678000004E
:10298000130101FF232611002324810013040101F8
:10299000B7970080938507CA13858129EF105049A6
:1029A000B7970080938547CB13858129EF10504856
:1029B000B7970080938547CC13858129EF10504746
:1029C000B79700809385C7CD13858129EF105046B6
:1029D000B7970080938547CF13858129EF10504525
:1029E000B7970080938507D013858129EF10504455
:1029F000B7970080938547D113858129EF10504305
:102A0000130000008320C100032481001301010191
:102A100067800000130101FF232611002324810099
:102A200013040101B79700809385C7D213858129CC
:102A3000EF10104083A7812113075000636AF70845
:102A400013972700B797008093870727B307F700EE
:102A500083A7070067800700B7970080938507D496
:102A600013858129EF10D03C6F00C007B797008015
:102A7000938587D413858129EF10903B6F008006E2
:102A8000B79700809385C7D513858129EF10503AF9
:102A90006F004005B7970080938507D7138581297C
:102AA000EF1010396F000004B7970080938587D727
:102AB00013858129EF10D0376F00C002B7970080CF
:102AC000938587D813858129EF1090366F00800198
:102AD000B7970080938587D913858129EF105035EA
:102AE00013000000130000008320C10003248100B4
:102AF0001301010167800000130101FE232E110064
:102B0000232C810013040102A30704FE230704FE03
:102B1000B7970080938547DA13858129EF105031EC
:102B2000B79700809385C7DD13858129EF1050305A
:102B3000B7970080938587E013858129EF10502F88
:102B4000EFF01FE46F00001FB79700809385C7E385
:102B500013858129EF10D02DEFD01FA99307050011
:102B6000A306F4FE8347D4FE938707FD2306F4FEF5
:102B70008307D4FE13078006638CE7001307100752
:102B80006380E702130740066388E7006F000003D5
:102B9000EFF01FDF6F004003EFF0DFE76F00C002D0
:102BA000B79700809385C7E413858129EF105028DB
:102BB00093071000A307F4FE6F00000193071000B5
:102BC0002307F4FE130000008347E4FE6382071628
:102BD00093071000A307F4FE8347C4FE13075000B9
:102BE000636AF71213972700B797008093878728A7
:102BF000B307F70083A7070067800700B797008037
:102C0000938547E613858129EF10902237A700802E
:102C1000130707FF23A0E11CB7A70080938707FFD6
:102C200003A7470023ACE120B7970080938507E90D
:102C300013858129EF10D01F6F00C00F37A70080C8
:102C4000130787FF23A0E11CB7A70080938787FFA6
:102C500003A7470023ACE120B7970080938507EADC
:102C600013858129EF10D01C6F00C00C37A700809E
:102C70001307070023A0E11CB7A700809387070074
:102C800003A7470023ACE120B79700809385C7EBEB
:102C900013858129EF10D0196F00C0091387818136
:102CA00023A0E11C9387818103A7470023ACE12087
:102CB000B7970080938587ED13858129EF10501712
:102CC0006F0040071387018223A0E11C93870182D4
:102CD00003A7470023ACE120B7970080938587EED8
:102CE00013858129EF10D0146F00C00413878182EF
:102CF00023A0E11C9387818203A7470023ACE12036
:102D0000B7970080938507F013858129EF10501243
:102D10006F004002B79700809385C7F11385812922
:102D2000EF101011A30704FE230704FE6F008000BC
:102D3000130000008347F4FEE38807E0130000005F
:102D40008320C10103248101130101026780000077
:102D5000130101FF23261100232481001304010124
:102D6000B79700809385C7F313858129EF10500C26
:102D7000130000008320C10003248100130101011E
:102D800067800000130101FE232E8100130401025D
:102D90002326A4FE2324B4FE2322C4FE6F00C00217
:102DA0008327C4FE03A70700832784FE23A0E70030
:102DB0008327C4FE938747002326F4FE832784FEDF
:102DC000938747002324F4FE032784FE832744FED1
:102DD000E3F8E7FC130000000324C1011301010222
:102DE00067800000130101FD232681021304010303
:102DF000232EA4FC232CB4FC8327C4FD2326F4FE3D
:102E00006F0080018327C4FE23A007008327C4FE30
:102E1000938747002326F4FE0327C4FE832784FDFF
:102E2000E3F2E7FE130000000324C10213010103D3
:102E300067800000130101FE232E1100232C810066
:102E400013040102B79700809387072A2326F4FE14
:102E50008327C4FE2320F4FE232204FE232404FE41
:102E600013860184B7A70080938507FFB7A700806A
:102E7000138507FFEFF01FF11386010F938501847F
:102E800013850184EFF01FF0938501111385010F65
:102E9000EFF05FF59385012D13850111EFF09FF49D
:102EA000930704FE9385070013051000EF3090632D
:102EB000130000008320C1010324810113010102DA
:102EC00067800000130101FF232681001304010124
:102ED000130000000324C1001301010167800000FA
:102EE000130101FD2326810213040103232EA4FCF8
:102EF000F32740F12326F4FE8327C4FE2324F4FEA7
:102F0000370700408327C4FD93D75700832684FEEC
:102F100093965600B386F600B71700009387078094
:102F2000B387F60093972700B307F70083A707003E
:102F30002322F4FE8327C4FD93F7F7011307100043
:102F4000B317F70093C7F7FF032744FEB377F700E3
:102F50002322F4FE370700408327C4FD93D7570090
:102F6000832684FE93965600B386F600B7170000BA
:102F700093870780B387F60093972700B307F7007E
:102F8000032744FE23A0E700130000000324C1022E
:102F90001301010367800000130101FE232E81004D
:102FA00013040102F32740F12326F4FE8327C4FE15
:102FB0002324F4FE37070040832784FE93870720ED
:102FC0009397C700B307F70083A74700138507004F
:102FD0000324C1011301010267800000130101FDF8
:102FE0002326810213040103232EA4FCF32740F1BE
:102FF0002326F4FE8327C4FE2324F4FE3707004073
:10300000832784FE938707209397C700B307F700B1
:103010000327C4FD23A2E700130000000324C1021C
:103020001301010367800000130101FE232E8100BC
:103030001304010293070008F3B707302326F4FEB8
:10304000F37704302324F4FE130000000324C101AD
:103050001301010267800000130101FE232E81008D
:1030600013040102F36704302326F4FE130000006A
:103070000324C1011301010267800000130101FD57
:10308000232611022324810213040103232EA4FC0E
:10309000130710002326E4FE8326C4FD1307400611
:1030A00033D7E602930707001308000023ACF10EA4
:1030B00023AE010F83A6810F03A7C10F93870600DC
:1030C000B3E7E70063840708F32740F12324F4FE05
:1030D000832784FE2322F4FE37070044B7C700008D
:1030E000B307F70003A8C7FF83A787FF83A5810F56
:1030F00003A6C10F37050044B386B70093880600C6
:10310000B3B8F8003307C800B387E8001387070097
:103110009387060013080700832644FE3717000034
:10312000130707803387E600131737003307E500DE
:103130002320F7002322070193070008F3A7473055
:103140002320F4FEEFF05FF1232604FE8327C4FE64
:10315000138507008320C1020324810213010103A8
:1031600067800000130101FE232E1100232C810033
:103170001304010293070008F3B747302326F4FE37
:10318000EF00107D37070044B7C70000B307F70012
:1031900003A8C7FF83A787FF83A5810F03A6C10FDD
:1031A00037050044732740F12324E4FE832884FE7E
:1031B000B386B700138306003333F3003307C80028
:1031C000B307E3001387070093870600130807007F
:1031D00037170000130707803387E80013173700FD
:1031E0003307E5002320F700232207019307000897
:1031F000F3A747302322F4FE130000008320C1010F
:10320000032481011301010267800000130101FE04
:10321000232E1100232C810013040102EFF0DFD7CD
:103220002326A4FEA30504FEB7A700800327C4FE3F
:103230001317270093870703B307F70083A7070037
:10324000E780070093070500A305F4FE0325C4FEED
:10325000EFF0DFD80347B4FE930710006316F700C2
:103260000325C4FEEFF0DFC7130000008320C10177
:10327000032481011301010267800000130101FF93
:10328000232611002324810013040101EF00C01143
:10329000B707004423A00700130000008320C100EB
:1032A000032481001301010167800000130101FB69
:1032B000232611042324810413040105232EA4FAD8
:1032C000232CB4FA8327C4FB63D207020327C4FB71
:1032D000B707008093C7F7FF3377F7009307B00075
:1032E0006316F700EFF09FF26F00800A8327C4FB9C
:1032F00063D207020327C4FBB707008093C7F7FF19
:103300003377F700930770006316F700EFF09FE53F
:103310006F0000088327C4FB63D207020327C4FBA6
:10332000B707008093C7F7FF3377F70093073000A4
:103330006316F700EFF09FF46F008005F327403429
:103340002326F4FE8327C4FE2324F4FEF32730341F
:103350002322F4FE832744FE2320F4FEF32750307B
:10336000232EF4FC8327C4FD232CF4FCF327003424
:10337000232AF4FC832744FD2328F4FCF3270030A0
:103380002326F4FC8327C4FC2324F4FC73001000E0
:10339000832784FB138507008320C1040324810451
:1033A0001301010567800000130101FF23261100AE
:1033B00023248100130401011305A000EF00403C09
:1033C000130101FF2326810013040101930700006C
:1033D000138507000324C100130101016780000069
:1033E000130101FF2326810013040101930700004C
:1033F000138507000324C100130101016780000049
:10340000130101FF2326810013040101930700002B
:10341000138507000324C100130101016780000028
:10342000130101FF2326810013040101930700000B
:10343000138507000324C100130101016780000008
:10344000130101FF232681001304010193070000EB
:10345000138507000324C1001301010167800000E8
:10346000130101FF232681001304010193070000CB
:10347000138507000324C1001301010167800000C8
:10348000130101FF232681001304010193070000AB
:10349000138507000324C1001301010167800000A8
:1034A000130101FF2326810013040101930700008B
:1034B000138507000324C100130101016780000088
:1034C000130101FF2326810013040101930700006B
:1034D000138507000324C100130101016780000068
:1034E000130101FF2326810013040101930700004B
:1034F000138507000324C100130101016780000048
:10350000130101FF2326810013040101930700002A
:10351000138507000324C100130101016780000027
:10352000130101FF2326810013040101930700000A
:10353000138507000324C100130101016780000007
:10354000130101FF232681001304010193070000EA
:10355000138507000324C1001301010167800000E7
:10356000130101FF232681001304010193070000CA
:10357000138507000324C1001301010167800000C7
:10358000130101FF232681001304010193070000AA
:10359000138507000324C1001301010167800000A7
:1035A000130101FF2326810013040101930700008A
:1035B000138507000324C100130101016780000087
:1035C000130101FF2326810013040101930700006A
:1035D000138507000324C100130101016780000067
:1035E000130101FF2326810013040101930700004A
:1035F000138507000324C100130101016780000047
:10360000130101FF23268100130401019307000029
:10361000138507000324C100130101016780000026
:10362000130101FF23268100130401019307000009
:10363000138507000324C100130101016780000006
:10364000130101FF232681001304010193070000E9
:10365000138507000324C1001301010167800000E6
:10366000130101FF232681001304010193070000C9
:10367000138507000324C1001301010167800000C6
:10368000130101FF232681001304010193070000A9
:10369000138507000324C1001301010167800000A6
:1036A000130101FF23268100130401019307000089
:1036B000138507000324C100130101016780000086
:1036C000130101FF23268100130401019307000069
:1036D000138507000324C100130101016780000066
:1036E000130101FF23268100130401019307000049
:1036F000138507000324C100130101016780000046
:10370000130101FF23268100130401019307000028
:10371000138507000324C100130101016780000025
:10372000130101FF23268100130401019307000008
:10373000138507000324C100130101016780000005
:10374000130101FF232681001304010193070000E8
:10375000138507000324C1001301010167800000E5
:10376000130101FF232681001304010193070000C8
:10377000138507000324C1001301010167800000C5
:10378000130101FE232E8100130401022326A4FE4F
:103790006F000000130101FE232E810013040102BB
:1037A0002326A4FE03A701838327C4FE3307F70063
:1037B0009387012D636EF70003A701838327C4FE5F
:1037C0003307F700B7B700809387072C63F6E7004D
:1037D0009307F0FF6F00400203A701838327C4FE15
:1037E0003307F70023A8E18203A701838327C4FEE0
:1037F000B307F040B307F700138507000324C101A6
:103800001301010267800000130101FD232611024C
:10381000232481021304010393070500A30FF4FC82
:10382000A30704FE8347F4FD2306F4FE1307F4FE0A
:103830009307C4FE93060700130610009385070044
:1038400013850182EFE08F8E130000008320C102F8
:10385000032481021301010367800000130101FDAD
:10386000232611022324810213040103232EA4FC26
:10387000B79700809385872A13858129EF00505BD5
:10388000EFF08FA7930710002326F4FE6F00C0010E
:103890008327C4FD93971700232EF4FC8327C4FECF
:1038A000938717002326F4FE0327C4FE93078000A6
:1038B000E3D0E7FE130000008320C102032481024D
:1038C0001301010367800000130101FC232E110284
:1038D000232C810213040104B797008003A6072C50
:1038E0001387072C832647001387072C032787009D
:1038F0009387072C83A7C700232EC4FC2320D4FE64
:103900002322E4FE2324F4FEB797008003A6072DAC
:103910001387072D832647001387072D032787006A
:103920009387072D83A7C7002326C4FC2328D4FC34
:10393000232AE4FC232CF4FCA30704FE6F0080047C
:103940008347F4FE93E707F89397870193D787415E
:1039500093F7F70F13850700EFF01FEB8307F4FED3
:10396000130704FFB307F7008387C7FE138507001B
:10397000EFF0DFEE8347F4FE9387170093F7F70F1E
:10398000A307F4FE0307F4FE9307F000E3DAE7FA77
:10399000A30704FE6F0080048347F4FE93E707FC4F
:1039A0009397870193D7874193F7F70F1385070004
:1039B000EFF09FE58307F4FE130704FFB307F7005A
:1039C0008387C7FD13850700EFF05FE98347F4FEA7
:1039D0009387170093F7F70FA307F4FE0307F4FE8E
:1039E0009307F000E3DAE7FA130000008320C10335
:1039F000032481031301010467800000130101FE09
:103A0000232E810013040102F32740F12324F4FE46
:103A1000832784FE2322F4FE232604FE6F00C003C6
:103A200037070040832744FE939657008327C4FE40
:103A3000B386F600B717000093870780B387F600B8
:103A400093972700B307F70023A007008327C4FE3E
:103A5000938717002326F4FE8327C4FEE38207FC26
:103A6000232604FE6F004002370700408327C4FE70
:103A700093972700B307F70023A007008327C4FE0E
:103A8000938717002326F4FE0327C4FE9307E00163
:103A9000E3FCE7FC37070040832744FE93870720B9
:103AA0009397C700B307F70023A00700B7170000DC
:103AB00093870780F3A747302320F4FE130000000C
:103AC0000324C1011301010267800000130101FDFD
:103AD0002326810213040103232EA4FCF32740F1C3
:103AE0002326F4FE8327C4FE2324F4FE3707004078
:103AF0008327C4FD93D75700832684FE93965600F0
:103B0000B386F600B717000093870780B387F600E7
:103B100093972700B307F70083A707002322F4FE3B
:103B20008327C4FD93F7F70113071000B317F700BD
:103B3000032744FEB367F7002322F4FE3707004053
:103B40008327C4FD93D75700832684FE939656009F
:103B5000B386F600B717000093870780B387F60097
:103B600093972700B307F700032744FE23A0E7003D
:103B7000130000000324C102130101036780000049
:103B8000130101FE232E8100130401022326A4FE4B
:103B90002324B4FE370700408327C4FE93972700F1
:103BA000B307F700032784FE23A0E70013000000FB
:103BB0000324C1011301010267800000130101FE0B
:103BC000232E1100232C810013040102230704FE7D
:103BD000EFF0DFE29306000013061002B735006035
:103BE00013850122EF108053B7B74F031385C75ACF
:103BF000EFF0CFC89305100013055000EFF05FF809
:103C000013055000EFF09FECEF00805CEF00802484
:103C1000EF008031A30704FE6F0000030347F4FEAA
:103C200093870115B307F700238007000347F4FECD
:103C300093870117B307F700238007008347F4FE3B
:103C400093871700A307F4FE0347F4FE9307F001E0
:103C5000E3F6E7FC930744FE130610009385070084
:103C600013858129EF00D009930705002307F4FE8F
:103C70008347E4FE63800714834744FE1307100361
:103C80006388E700130740036380E7106F000011AB
:103C9000B79700809385072E13858129EF0050196F
:103CA000EF00C03093070500138707002380E11061
:103CB00083C70110138607009385011713050003BE
:103CC000EF00C0112324A4FE832784FE639A070417
:103CD00083C70110639C0700B79700809385C72FA7
:103CE00013858129EF00D0146F004002B797008040
:103CF0009385C73113858129EF009013B797008012
:103D00009385073413858129EF009012B7970080BF
:103D10009385473413858129EF0090116F00400689
:103D2000032784FE93072000631CF700B7970080E9
:103D30009385873913858129EF00900F6F00400329
:103D4000032784FE93073000631CF700B7970080B9
:103D50009385073B13858129EF00900D6F0040018B
:103D6000B79700809385873C13858129EF00500C1D
:103D7000B79700809385873E13858129EF00500B0C
:103D8000EF0040316F004003B79700809385C74331
:103D900013858129EF00D0096F000002B7970080DA
:103DA0009385474613858129EF009008EF00C017DF
:103DB0006F00800013000000034744FE9307400398
:103DC000E31AF7E893070000138507008320C10179
:103DD000032481011301010267800000130101FD2A
:103DE00023261102232481021304010393070500F3
:103DF000232CB4FC13070600A30FF4FC9307070061
:103E0000230FF4FC8347E4FD9396070193D6060144
:103E10008347F4FD13070000032684FD9385070004
:103E200013850122EF100046B7170000938587BB6A
:103E300013850122EF10005B2326A4FE8327C4FE16
:103E4000138507008320C1020324810213010103AB
:103E500067800000130101FF232611002324810045
:103E600013040101B7970080938587481385812942
:103E7000EF00007CB79700809385C74D138581299B
:103E8000EF00007BB7970080938507531385812946
:103E9000EF00007AB79700809385475813858129F2
:103EA000EF000079B79700809385C75C138581295F
:103EB000EF000078B79700809385873E13858129AE
:103EC000EF000077B79700809385076213858129FB
:103ED000EF000076B79700809385476713858129A7
:103EE000EF000075B79700809385C76B1385812914
:103EF000EF000074B79700809385C7701385812900
:103F0000EF000073B79700809385473413858129AC
:103F1000EF000072130000008320C1000324810021
:103F20001301010167800000130101FF2326110026
:103F30002324810013040101B7970080938507763D
:103F400013858129EF00C06EB79700809385477B6A
:103F500013858129EF00C06DB79700809385877F17
:103F600013858129EF00C06CB7A700809385C783B4
:103F700013858129EF00C06BB7A700809385078860
:103F800013858129EF00C06AB79700809385473475
:103F900013858129EF00C069130000008320C10050
:103FA000032481001301010167800000130101FE59
:103FB000232E1100232C810013040102A30704FE09
:103FC000230704FEA30604FEB7A700809385078B92
:103FD00013858129EF00C065230704FE6F00800868
:103FE0009307C4FE130610009385070013858129EB
:103FF000EF00005193070500A306F4FE8347D4FEAB
:10400000638207069307C4FE13061000938507001A
:1040100013858129EF0080430347C4FE9307D00036
:104020006318F70093071000A307F4FE6F008003E6
:104030008346E4FE0347C4FE93870117B387F60067
:104040002380E7008347E4FE938717002307F4FEED
:104050000347E4FE930700026316F700930710007E
:10406000A307F4FE8347F4FEE38C07F6B7970080BE
:104070009385073413858129EF00805B8347E4FE35
:10408000138507008320C10103248101130101026C
:1040900067800000130101FC232E1102232C8102F2
:1040A00013040104B7A7008083A8078E1387078E27
:1040B000032847001387078E032587001387078E81
:1040C0008325C7001387078E032607011387078EF2
:1040D000832647011387078E03278701232614FDB4
:1040E000232804FD232AA4FC232CB4FC232EC4FC87
:1040F0002320D4FE2322E4FE9387078E83C7C701C3
:104100002304F4FE9307C4FC1306D0019385070033
:1041100013858129EF0080339307B4FE1306100046
:104120009385070013858129EF00803D2326A4FE97
:104130008327C4FEE38207FEEFF01FDF13000000B9
:104140008320C1030324810313010104678000005D
:10415000130101FF23261100232481001304010110
:104160009305A00013850122EF10002E130000001C
:104170008320C10003248100130101016780000036
:10418000130101FF232611002324810013040101E0
:1041900013850122EF10C039930700001385070033
:1041A0008320C10003248100130101016780000006
:1041B000130101FF2326810013040101930700006E
:1041C000138507000324C10013010101678000006B
:1041D000130101FF23261100232481001304010190
:1041E000EFE09FE7130000008320C100032481005B
:1041F0001301010167800000130101FE232E11004D
:10420000232C810013040102F32700302326F4FE3F
:104210008327C4FE2324F4FEEFE01FE1832784FEFE
:10422000138507008320C1010324810113010102CA
:1042300067800000130101FE232E81001304010298
:104240002326A4FE8327C4FE7390073013000000CA
:104250000324C10113010102678000002320B5007F
:10426000678000000325050067800000138E0600AC
:10427000331EBE00337ECE000323050093030600E9
:1042800093C3F3FF337373003363C30123206500CB
:1042900067800000032505003375C5003355B50060
:1042A000678000002310B50067800000031505003B
:1042B00067800000138E0600331EBE00337ECE00E2
:1042C000031305009303060093C3F3FF33737300D6
:1042D0003363C301231065006780000003150500E8
:1042E0003375C5003355B500678000002300B50065
:1042F000678000000305050067800000138E06003C
:10430000331EBE00337ECE00030305009303060078
:1043100093C3F3FF337373003363C301230065005A
:1043200067800000030505003375C5003355B500EF
:1043300067800000130101FD23261102232481025E
:1043400013040103232EA4FC232CB4FC93070600C2
:1043500013870600231BF4FC93070700A30AF4FC51
:104360008327C4FD638A070C034754FD930770003D
:1043700063E4E70C035764FDB7270000637EF70A88
:10438000832784FD13878700835764FD93F7F70F16
:104390009385070013050700EFF05FF5832784FD81
:1043A0009386C700034754FD835764FD93D7574056
:1043B00093F7877FB367F70093850700138506009F
:1043C000EFF0DFF28327C4FD032784FD23A0E7007D
:1043D0008327C4FD83A70700938707011385070080
:1043E000EFF05FF19307050093F72700A307F4FEB2
:1043F0006F0080038327C4FD83A7070093874700CE
:1044000013850700EFF01FEF8327C4FD83A7070084
:104410009387070113850700EFF0DFED9307050091
:1044200093F72700A307F4FE8347F4FEE39407FC09
:104430008327C4FD23820700130000008320C102EC
:10444000032481021301010367800000130101FDB1
:10445000232611022324810213040103232EA4FC2A
:10446000232CB4FC232AC4FC8327C4FD63800708E3
:10447000832784FD638C0706832744FD6388070632
:10448000232604FE6F00C0058327C4FD83A7070011
:104490009387070113850700EFF0DFE59307050019
:1044A00093F71700A305F4FE8347B4FEE38E07FCE1
:1044B0008327C4FD83A60700032784FD8327C4FE4A
:1044C000B307F70083C7070093850700138506002D
:1044D000EFF0DFE18327C4FE938717002326F4FE65
:1044E0000327C4FE832744FDE360F7FA13000000AE
:1044F0008320C102032481021301010367800000AD
:10450000130101FD2326110223248102232291029B
:1045100013040103232EA4FC232CB4FC232AC4FC83
:10452000232404FE8327C4FD6386070E832784FDAE
:104530006382070E832744FD638E070C232404FE49
:104540008327C4FD83A7070093870701138507000E
:10455000EFF05FDA93070500A303F4FE8327C4FDA1
:1045600003C74700834774FEB367F70013F7F70FDD
:104570008327C4FD2382E700834774FE93F7270057
:10458000A307F4FE6F00C0078327C4FD83A70700BD
:1045900093864700032784FD832784FEB304F70036
:1045A00013850600EFF01FD5930705002380F40064
:1045B000832784FE938717002324F4FE8327C4FDFA
:1045C00083A707009387070113850700EFF09FD2A9
:1045D00093070500A303F4FE8327C4FD03C7470028
:1045E000834774FEB367F70013F7F70F8327C4FD03
:1045F0002382E700834774FE93F72700A307F4FEA6
:104600008347F4FE63880700032784FE832744FD65
:10461000E36CF7F6832784FE138507008320C1022D
:1046200003248102832441021301010367800000F7
:10463000130101FD23261102232481021304010327
:10464000232EA4FC232CB4FC8327C4FD638007081D
:10465000832784FD638C0706232604FE6F00C005B4
:104660008327C4FD83A707009387070113850700ED
:10467000EFF05FC89307050093F71700A305F4FE5A
:104680008347B4FEE38E07FC8327C4FD83A607009F
:10469000032784FD8327C4FEB307F70083C7070001
:1046A0009385070013850600EFF05FC48327C4FEDF
:1046B000938717002326F4FE032784FD8327C4FE77
:1046C000B307F70083C70700E39C07F81300000057
:1046D0008320C102032481021301010367800000CB
:1046E000130101FD2326810213040103232EA4FCE0
:1046F0009307F0FFA307F4FE8327C4FD638207023C
:104700008327C4FD83C7470093D7274093F7F70F4C
:1047100093F77700A307F4FE8327C4FD23820700E5
:104720008347F4FE138507000324C102130101032C
:1047300067800000130101FE232E1100232C81004D
:10474000130401022326A4FE2324B4FE93070600CB
:104750002313F4FE8327C4FE6384070E832784FE9D
:104760006380070E1306C004930500000325C4FEF2
:10477000EF30800D8327C4FE032784FE23A0E700CB
:10478000035764FE9307000263EEE700835764FE5D
:10479000638A07008327C4FE035764FE2392E7045D
:1047A0006F0000018327C4FE130710002392E70463
:1047B0008327C4FE83A7070093060000130610009A
:1047C0009305000013850700EFF05FB38327C4FE55
:1047D00083A707009387470293050000138507000E
:1047E000EFF0DFB08327C4FE83A707009387C701DC
:1047F0009305300013850700EFF05FAF8327C4FEF9
:1048000083A70700938747009305F00F13850700E0
:10481000EFF0DFAD8327C4FE83A7070093878701EE
:104820009305000013850700EFF05FAC8327C4FEFB
:1048300083A707009305300013850700EFF01FAB37
:10484000130000008320C101032481011301010230
:1048500067800000130101FE232E1100232C81002C
:10486000130401022326A4FE8327C4FE63820708E3
:104870008327C4FE83A707009306000013061000D9
:104880009305000013850700EFF05FA78327C4FEA0
:1048900023A407048327C4FE83A707009387C701C7
:1048A0009305300013850700EFF05FA48327C4FE53
:1048B00083A70700938747009305F00F1385070030
:1048C000EFF0DFA28327C4FE83A707009387870149
:1048D0009305000013850700EFF05FA18327C4FE56
:1048E00083A707009305300013850700EFF01FA092
:1048F000130000008320C101032481011301010280
:1049000067800000130101FD232611022324810288
:1049100013040103232EA4FC232CB4FC232604FE41
:104920008327C4FD6386070A032784FD930770006D
:1049300063E0E70A8327C4FD83A70700130620006E
:104940009305100013850700EFF0DF9D9307050026
:10495000638007088327C4FD83A7070093870702A6
:10496000130600019305400013850700EFF09F9B9D
:104970009307050013870700930710006316F700DD
:104980000325C4FDEF0080708327C4FD83A70700C3
:104990009387470213850700EFF0DF959307050023
:1049A00093860700832784FD13071000B317F700D1
:1049B000B3E7F6002326F4FE8327C4FD83A7070090
:1049C000938747028325C4FE13850700EFF01F92EB
:1049D000130000008320C10203248102130101039C
:1049E00067800000130101FD2326110223248102A8
:1049F00013040103232EA4FC232CB4FC232604FE61
:104A00008327C4FD6388070A032784FD930770008A
:104A100063E2E70A8327C4FD83A70700130620008B
:104A20009305100013850700EFF0DF8F9307050053
:104A3000638207088327C4FD83A7070093870702C3
:104A4000130600019305400013850700EFF09F8DCA
:104A50009307050013870700930710006316F700FC
:104A60000325C4FDEF0080628327C4FD83A70700F0
:104A70009387470213850700EFF0DF879307050050
:104A800093860700832784FD13071000B317F700F0
:104A900093C7F7FFB3F7F6002326F4FE8327C4FD80
:104AA00083A70700938747028325C4FE1385070069
:104AB000EFF0DF83130000008320C1020324810292
:104AC0001301010367800000130101FD2326110279
:104AD0002324810213040103232EA4FC232CB4FC01
:104AE000930706002328D4FC231BF4FC930707003C
:104AF000231AF4FC232204FE231704FE231604FECB
:104B0000231504FE231404FE8327C4FD6386075681
:104B10008327C4FD83A70700130620009305100018
:104B200013850700EFF01F80930705006386075485
:104B3000035764FD835744FDB307F700638E0752A4
:104B4000035764FD835744FDB307F7009387F7FFCE
:104B50002322F4FE8327C4FD83A707009387C701A0
:104B60009305300013850700EFF04FF88327C4FD4D
:104B700083A70700938707021306000193054000EF
:104B800013850700EFF00FFA93070500138707005E
:104B9000930710006316F7000325C4FDEF00004FD4
:104BA0008327C4FD83A707009306000013061000A7
:104BB0009305000013850700EFF04FF46F00C00667
:104BC0000357C4FE835764FD6378F7028327C4FD4F
:104BD00083A707009386C7008357C4FE032784FD7D
:104BE000B307F70083C70700938507001385060006
:104BF000EFF0CFE66F00C0018327C4FD83A7070055
:104C00009387C7009305000013850700EFF00FE5B9
:104C1000835784FE938717002314F4FE8357C4FE42
:104C2000938717002316F4FE8357C4FE032744FE20
:104C300063FAE7008327C4FD83D747040357C4FE04
:104C4000E360F7F88357C4FE032744FE631EF706AC
:104C50008327C4FD83D747040357C4FE6376F70652
:104C60000357C4FE835764FD6378F7028327C4FDAE
:104C700083A70700938687028357C4FE032784FD1A
:104C8000B307F70083C70700938507001385060065
:104C9000EFF0CFDC6F00C0018327C4FD83A70700BE
:104CA000938787029305000013850700EFF00FDB61
:104CB000835784FE938717002314F4FE8357C4FEA2
:104CC000938717002316F4FE8327C4FD83A70700EC
:104CD00093061000130610009305000013850700CB
:104CE000EFF0CFE16F00C00D8327C4FD83D74704E9
:104CF000035784FE637EF7068357C4FE032744FEF2
:104D00006318F7028327C4FD83A7070093868702F1
:104D10008357C4FE032784FDB307F70083C707004A
:104D20009385070013850600EFF04FD36F00C00294
:104D30008327C4FD83A707009386C7008357C4FE5B
:104D4000032784FDB307F70083C707009385070097
:104D500013850600EFF08FD08357C4FE93871700AA
:104D60002316F4FE835784FE938717002314F4FE62
:104D70008327C4FD83A7070093870702130640001B
:104D80009305200013850700EFF0CFD993070500A6
:104D9000639807028327C4FD83A7070093878700D2
:104DA00013850700EFF00FCC8357E4FE93871700BD
:104DB0002317F4FE835784FE9387F7FF2314F4FE32
:104DC0000357C4FE835764FDE360F7F26F00000AE7
:104DD0008327C4FD83D74704035784FE6370F70419
:104DE0008357C4FE032744FE63FAE7028327C4FD0A
:104DF00083A707009387C70093050000138507006A
:104E0000EFF0CFC58357C4FE938717002316F4FE37
:104E1000835784FE938717002314F4FE8327C4FD71
:104E200083A707009387070213064000930520001D
:104E300013850700EFF00FCF930705006398070273
:104E40008327C4FD83A70700938787001385070086
:104E5000EFF04FC18357E4FE938717002317F4FE4A
:104E6000835784FE9387F7FF2314F4FE0357E4FE71
:104E7000835764FDE36EF7F46F00800B8327C4FD56
:104E800083D74704035784FE637AF7028327C4FD60
:104E900083A707009387C7009305000013850700C9
:104EA000EFF0CFBB8357C4FE938717002316F4FEA1
:104EB000835784FE938717002314F4FE8327C4FDD1
:104EC00083A707009387070213064000930520007D
:104ED00013850700EFF00FC593070500639A0704D9
:104EE0008327C4FD83A707009387870013850700E6
:104EF000EFF04FB7930605008357A4FE032704FD88
:104F0000B307F70013F7F60F2380E7008357A4FEDB
:104F1000938717002315F4FE8357E4FE9387170049
:104F20002317F4FE835784FE9387F7FF2314F4FEC0
:104F30008357C4FE032744FEE3E2E7F46F00800BCF
:104F40008327C4FD83D74704035784FE637AF7029F
:104F50008327C4FD83A7070093878702930500007A
:104F600013850700EFF08FAF8357C4FE93871700B8
:104F70002316F4FE835784FE938717002314F4FE50
:104F80008327C4FD83A70700938707021306400009
:104F90009305200013850700EFF0CFB893070500B5
:104FA000639A07048327C4FD83A7070093878700BC
:104FB00013850700EFF00FAB930605008357A4FE9F
:104FC000032704FDB307F70013F7F60F2380E7006C
:104FD0008357A4FE938717002315F4FE8357E4FE3E
:104FE000938717002317F4FE835784FE9387F7FFF8
:104FF0002314F4FE8357C4FE032744FEE302F7F4B0
:105000006F00C0068327C4FD83A7070093870702AC
:10501000130640009305200013850700EFF08FB0C2
:1050200093070500639407048327C4FD83A7070043
:105030009387870013850700EFF0CFA29306050042
:105040008357A4FE032704FDB307F70013F7F60FF9
:105050002380E7008357A4FE938717002315F4FEEF
:105060008357E4FE938717002317F4FE8357E4FE6B
:10507000032744FEE378F7F8130000008320C10201
:10508000032481021301010367800000130101FE64
:10509000232E1100232C8100130401022326A4FED9
:1050A0008327C4FE83A707009306000013061000A1
:1050B0009305000013850700EFF04FA48327C4FE7B
:1050C00083A707009387C701930530001385070066
:1050D000EFF0CFA18327C4FE83A707009387470083
:1050E0009305F00F13850700EFF04FA08327C4FE50
:1050F00083A7070093061000130610009305000015
:1051000013850700EFF08F9F130000008320C1017B
:10511000032481011301010267800000130101FDD6
:10512000232611022324810213040103232EA4FC4D
:10513000232CB4FC930706002328D4FCA30BF4FC17
:10514000832704FD2326F4FEEFF00F8B2324A4FE17
:105150001306C006930500000325C4FDEF20C06EB2
:105160008327C4FD032784FD23A0E700834774FD44
:10517000139717008327C4FD23A2E7008327C4FDEC
:1051800083A7070093060000130600049305600040
:1051900013850700EFF08F968327C4FD83A70700D0
:1051A00093061000130600049305600013850700A2
:1051B000EFF0CF948327C4FD03A707008327C4FE25
:1051C00093D7270093F7170093860700130600086C
:1051D0009305700013050700EFF04F928327C4FD7D
:1051E00003A707008327C4FE93D7170093F7170080
:1051F000938607001306200093051000130507008F
:10520000EFF0CF8F8327C4FD03A707008327C4FED9
:1052100093F717009386070013061000930500000C
:1052200013050700EFF08F8D8327C4FD83A70700C8
:105230001387C7008327C4FD83A747009385070012
:1052400013050700EFF08F8A8327C4FD83A70700AB
:105250001387C7018327C4FD83A7470093850700F1
:1052600013050700EFF08F88032584FEEFE09FFC15
:10527000130000008320C1020324810213010103F3
:1052800067800000130101FD2326110223248102FF
:1052900013040103232EA4FC93870500232AC4FCD6
:1052A000A30DF4FC93870600231CF4FC930707006E
:1052B000230DF4FCEFE05FF42326A4FE8327C4FD56
:1052C00083C7C700639807008327C4FD1307100036
:1052D0002386E7008327C4FD130710002385E70614
:1052E0008347B4FD139717008327C4FD23A4E70069
:1052F0008327C4FD23A207028327C4FD032744FD9F
:1053000023ACE700035784FD8327C4FD23AEE700E9
:105310008327C4FD23A007028327C4FD13071000C1
:1053200023AAE7028327C4FD0347A4FD238AE700DD
:105330008327C4FD03A7470593071000631AF700EE
:105340008327C4FD13071000A384E7066F00000243
:105350008327C4FD83A707009306100013060002ED
:105360009305500013850700EFE05FF98327C4FD24
:1053700003C78706930710006310F7028327C4FD55
:1053800083A70700930600001306800093053000F2
:1053900013850700EFE09FF68327C4FD83A707006E
:1053A0009387470013850700EFE0DFF493070500BC
:1053B000A305F4FE8347B4FE93F7F70FA305F4FEAD
:1053C0000325C4FDEF00D0360325C4FEEFE09FE6C1
:1053D000130000008320C102032481021301010392
:1053E00067800000130101FD23261102232481029E
:1053F00013040103232EA4FC232CB4FCEFE0DFDF15
:105400002326A4FE8327C4FD032784FD23ACE702E3
:105410000325C4FEEFE01FE28327C4FD83A74703F3
:105420002324F4FE032784FE93071000E306F7FE0F
:10543000832784FE138507008320C1020324810291
:105440001301010367800000130101FD23261102EF
:105450002324810213040103232EA4FC232CB4FC77
:105460008327C4FD83A78703638207068327C4FDC0
:1054700083A78703032784FD6370F7028327C4FD96
:1054800003A78703832784FD3307F7408327C4FDE1
:1054900023ACE7026F008003EFE01FD62326A4FEB3
:1054A0008327C4FD1307300023AAE7028327C4FD26
:1054B000238607008327C4FDA38407060325C4FEB3
:1054C000EFE05FD78327C4FD23AC07021300000081
:1054D0008320C102032481021301010367800000BD
:1054E000130101FE232E1100232C8100130401025D
:1054F0002326A4FE8327C4FE83C707066380070212
:105500008327C4FE83A707009306100013064000FC
:105510009305200013850700EFE05FDE1300000015
:105520008320C1010324810113010102678000006F
:10553000130101FD2326110223248102232291025B
:1055400013040103232EA4FC93071000A307F4FE09
:105550008327C4FD83A707009387470013850700AF
:10556000EFE05FD993070500A303F4FE834774FEC1
:1055700093F7F70F938787FF1307800DE360F70C0E
:1055800013972700B7A7008093870790B307F7000A
:1055900083A70700678007008327C4FD83A7070050
:1055A00093060000130600029305500013850700C0
:1055B000EFE0DFD48327C4FD83A7070013878700AC
:1055C0008327C4FD83A78700938507001305070081
:1055D000EFE0DFD18327C4FD83A70700138787008F
:1055E0008327C4FD83A74702938607001306100094
:1055F0009305000013050700EFE05FD08327C4FD8B
:1056000083A74702639807008327C4FD23A00702EE
:105610006F00C0008327C4FD23A807028327C4FDB1
:1056200083C79706638607008327C4FDA384070604
:105630008327C4FD03C7C7008327C4FD83C7A7060C
:10564000E306F7068327C4FD03C7A7068327C4FD27
:105650002386E7006F0090058327C4FD83A707001A
:1056600093061000130600029305500013850700EF
:10567000EFE0DFC86F0050068327C4FD83A7070053
:1056800093061000130600019305400013850700E0
:10569000EFE0DFC68327C4FD1307200023AAE7023B
:1056A0008327C4FD238607000325C4FDEFF05FE3D5
:1056B0006F0090028327C4FD03A707028327C4FD60
:1056C00083A7C7016370F7048327C4FD83A707007E
:1056D000138587008327C4FD03A787018327C4FDA3
:1056E00083A70702138617008326C4FD23A0C602E2
:1056F000B307F70083C7070093850700EFE01FBFDC
:105700006F00807D8327C4FD03C7C7009307300067
:105710006318F7028327C4FD1307100023A2E702D2
:105720008327C4FD83A70700930610001306000219
:105730009305500013850700EFE05FBC6F00C07950
:105740008327C4FD238607008327C4FD83C7470141
:1057500093F717002307F4FE8327C4FD0347E4FEF5
:105760002384E7068347E4FE639607028327C4FD8C
:1057700083A707009306100013060001930540005D
:1057800013850700EFE09FB70325C4FDEFF05FD559
:105790006F0000010325C4FDEF00807BA30704FE1A
:1057A0008327C4FD23AA07026F0000738327C4FD6B
:1057B00083A707009306100013060001930540001D
:1057C00013850700EFE09FB38327C4FD1307200074
:1057D00023AAE7028327C4FD238607000325C4FD0F
:1057E000EFF01FD06F00406F8327C4FD03A7C702EF
:1057F0009307100063F2E7028327C4FD83A7070025
:10580000930610001306400093052000138507003F
:10581000EFE0DFAE6F00406C8327C4FD03A7C70233
:10582000930710006312F7028327C4FD83A70700C4
:10583000930600001306400093052000138507001F
:10584000EFE0DFAB6F0040698327C4FD83A707004B
:1058500093061000130640009305200013850700EF
:10586000EFE0DFA98327C4FD83A70700930610009C
:10587000130600019305400013850700EFE01FA801
:105880008327C4FD23AA07028327C4FD23860700BC
:105890006F0080648327C4FD83A707009306100070
:1058A000130600019305400013850700EFE01FA5D4
:1058B0008327C4FD1307200023AAE7028327C4FD22
:1058C000238607000325C4FDEFF09FC16F00C06071
:1058D0008327C4FD83A70700938587008327C4FD22
:1058E00003A787028327C4FD83A707031386170036
:1058F0008326C4FD23A8C602B304F7001385050060
:10590000EFE05F9F930705002380F4008327C4FD29
:1059100003A707038327C4FD83A7C7029387F7FF65
:10592000636AF7588327C4FD83A707009306000026
:10593000130640009305200013850700EFE01F9C2D
:105940006F0040578327C4FD83A707009386870015
:105950008327C4FD03A787028327C4FD83A707030A
:10596000B304F70013850600EFE0DF989307050006
:105970002380F4008327C4FD83C7470193F71700F2
:105980002307F4FE8327C4FD0347E4FE2384E706D0
:105990008347E4FE639607028327C4FD83A70700BD
:1059A00093061000130600019305400013850700BD
:1059B000EFE0DF940325C4FDEFF09FB26F0000011C
:1059C0000325C4FDEF00C058A30704FE8327C4FDD0
:1059D000238607008327C4FD23AA07026F00C04F58
:1059E0008327C4FD83A70700930610001306400019
:1059F0009305200013850700EFE05F908327C4FD27
:105A0000238607008327C4FD23AA07048327C4FD38
:105A100083C797066384074A8327C4FD83A70700CB
:105A2000930610001306000293055000138507002B
:105A3000EFE0DF8C6F0080488327C4FD1307100060
:105A4000A384E7068327C4FD130740002386E700ED
:105A50008327C4FD23A807048327C4FD23A80700C8
:105A60008327C4FD83A70700130600029305500097
:105A700013850700EFE01F8B93070500638607027D
:105A80008327C4FD83A707009306000013060002C6
:105A90009305500013850700EFE05F868327C4FD60
:105AA00013071000A384E7068327C4FD1307100023
:105AB00023AAE7046F0040428327C4FD83A787041D
:105AC000638C07068327C4FD03A707058327C4FD4E
:105AD00083A7C7046372F7068327C4FD83A7070063
