:100000006F00C0006F0000006F00C0029702000088
:10001000938282027390523073500030735040309C
:1000200097A10000938101B317B10000130181DE95
:100030006F209060130101F823201100232221007A
:10004000232431002326410023285100232A610064
:10005000232C7100232E8100232091022322A10250
:100060002324B1022326C1022328D102232AE1023C
:10007000232CF102232E0103232011052322210525
:10008000232431052326410523285105232A610510
:10009000232C7105232E8105232091072322A107FC
:1000A0002324B1072326C1072328D107232AE107E8
:1000B000232CF107F3221034232E5106732520340C
:1000C000F325103413060100EF30801E7310153431
:1000D000B72200009382028073A0023083200100C7
:1000E00003214100832181000322C10083220101F9
:1000F00003234101832381010324C10183240102DD
:1001000003254102832581020326C10283260103C0
:1001100003274103832781030328C10383280104A4
:100120000329410483298104032AC104832A010588
:10013000032B4105832B8105032CC105832C01066C
:10014000032D4106832D8106032EC106832E010750
:10015000032F4107832F810713010108730020300B
:10016000130101FE232E1100232C81001304010230
:10017000A30704FE230704FEB777008093850732A8
:1001800013854129EF404035EF00400E6F00000914
:10019000EF008045930705002307F4FE8307E4FE84
:1001A000130720036386E70413072003634CF7005B
:1001B000130700036386E702130710036386E70251
:1001C0006F00400513078006638CE70213071007D2
:1001D000638CE702130730036380E7026F0080033C
:1001E000EF0000126F008003EF00C0176F000003E4
:1001F000EF0000236F008002EF00402D6F0000022F
:10020000EF00C0066F00800193071000A307F4FE03
:100210006F00C000EF004002130000008347F4FEAF
:10022000E38807F6130000008320C1010324810145
:100230001301010267800000130101FF2326110052
:100240002324810013040101B7770080938587344C
:1002500013854129EF404028130000008320C1008E
:10026000032481001301010167800000130101FFD5
:10027000232611002324810013040101B777008095
:100280009385473613854129EF400025B7770080D5
:100290009385473713854129EF400024B7770080C5
:1002A0009385473913854129EF400023B7770080B4
:1002B0009385873B13854129EF400022B777008063
:1002C0009385873D13854129EF400021B777008052
:1002D0009385473F13854129EF400020B777008081
:1002E0009385074113854129EF40001F130000004B
:1002F0008320C100032481001301010167800000F5
:10030000130101FF2326110023248100130401019E
:10031000B77700809385074213854129EF40C01BC2
:10032000EF00C03693070500638C0700B7770080A5
:100330009385C74213854129EF40001A6F004001A1
:10034000B77700809385474313854129EF40C01854
:10035000130000008320C100032481001301010168
:1003600067800000130101FB23261104232481046C
:1003700013040105B77700809385C743138541298E
:10038000EF408015B77700809385C74413854129D6
:10039000EF4080149307C4FB138607009305000009
:1003A00013052003EF00403AB77700809385C745D7
:1003B00013854129EF4040129307C4FB9385070042
:1003C00013854129EF404011B77700809385C746D8
:1003D00013854129EF4040109307C4FB13860700A3
:1003E0009305100013052003EF000036B777008057
:1003F0009385C74513854129EF40000E9307C4FB41
:100400009385070013854129EF40000D130000007C
:100410008320C104032481041301010567800000C7
:10042000130101FE232E1100232C8100130401026D
:10043000B77700809385C74713854129EF40C009EE
:1004400013053000EF00004E9307050093F7F70FF8
:100450002306F4FE8347C4FE130784FE93050700BA
:1004600013850700EF00500FB77700809385C748CA
:1004700013854129EF4040069307C4FE938507008A
:1004800013854129EF404005B77700809385C74920
:1004900013854129EF404004930784FE93850700AC
:1004A00013854129EF404003B77700809385074BC0
:1004B00013854129EF404002130000008320C10151
:1004C000032481011301010267800000130101FE72
:1004D000232E1100232C810013040102B777008022
:1004E0009385474B13854129EF30107FB777008004
:1004F0009385474C13854129EF30107E130510007A
:10050000EF00805C930705002326F4FEB777008098
:100510009385474D13854129EF30107C9307C4FE26
:100520009385070013854129EF30107BB777008052
:100530009385474E13854129EF30107A8327C4FEF7
:10054000130704FE9305070013850700EF00900DC5
:10055000930704FE9385070013854129EF30D07778
:10056000B77700809385874F13854129EF30D07688
:1005700013054000EF004055930705002326F4FEC5
:10058000B77700809385474D13854129EF30D074AC
:100590009307C4FE9385070013854129EF30D0737C
:1005A000B77700809385474E13854129EF30D0728D
:1005B0008327C4FE130704FE930507001385070075
:1005C000EF005006930704FE938507001385412929
:1005D000EF309070130000008320C10103248101DB
:1005E0001301010267800000130101FE232E110098
:1005F000232C810013040102230704FEA30704FE39
:10060000B77700809385875013854129EF30D06CF0
:100610006F0000039307C4FE1306200093850700B4
:1006200013854129EF305058930705002307F4FE46
:100630008347E4FE6386070093071000A307F4FED8
:100640008347F4FEE38807FCA30604FE9307C4FE79
:100650009385070013854129EF301068B777008034
:100660009385075113854129EF3010678347C4FEF6
:100670009397870193D78741138507008320C10192
:10068000032481011301010267800000130101FEB0
:10069000232E1100232C810013040102230704FEE2
:1006A000A30704FEB77700809385875013854129FF
:1006B000EF3090626F0000039307C4FE1306200022
:1006C0009385070013854129EF30104E93070500ED
:1006D0002307F4FE8347E4FE6386070093071000B8
:1006E000A307F4FE8347F4FEE38807FCA30604FE99
:1006F0009307C4FE9385070013854129EF30D05D31
:10070000B77700809385075113854129EF30D05C7E
:100710000347C4FE9307E0046308F7000347C4FEE1
:100720009307E0066316F700930700006F00800050
:1007300093071000138507008320C1010324810162
:100740001301010267800000130101FD232611023D
:100750002324810213040103930705001387050076
:10076000232CC4FCA30FF4FC93070700230FF4FC15
:10077000A30704FE230704FEA30604FE230604FECB
:10078000130744FE8347F4FD930507001385070014
:10079000EF00805CB77700809385875113854129EE
:1007A000EF309053930744FE93850700138541294A
:1007B000EF309052B7770080938587531385412996
:1007C000EF309051B7770080938587541385412986
:1007D000EF3090506F004012930784FE1306200004
:1007E0009385070013854129EF30103C93070500DE
:1007F0002306F4FE8347C4FE6386070093071000B8
:10080000A306F4FE8347D4FEE38807FCA30404FE9A
:10081000A30604FE0347F4FE8347F4FD9387F7FF26
:100820006350F70C834784FE938787FF130780018B
:10083000636AF70613972700B77700809387075CF2
:10084000B307F70083A7070067800700B77700802A
:100850009385074B13854129EF301048930710000B
:100860002307F4FE6F0000098347E4FD6382070855
:10087000930784FE9385070013854129EF30D04507
:100880008347F4FE032784FDB307F7001307000234
:100890002380E7008347F4FE93871700A307F4FE45
:1008A0006F000005930784FE938507001385412997
:1008B000EF309042834684FE8347F4FE032784FD95
:1008C000B307F70013978601135787412380E7008A
:1008D0008347F4FE93871700A307F4FE6F0080019F
:1008E000130000006F000001130000006F00800083
:1008F00013000000A30604FE8347E4FEE38407F030
:100900008347F4FE032784FDB307F7002380070025
:10091000130000008320C10203248102130101039C
:1009200067800000130101FC232E1102232C810299
:100930001304010493070500A307F4FC232604FE17
:10094000A30504FE930710002322F4FEA30104FE76
:10095000230104FEA30004FEB7770080938587542B
:1009600013854129EF3050376F0000149307C4FD01
:10097000130620009385070013854129EF30D0220C
:1009800093070500A300F4FE834714FE6386070067
:10099000930710002301F4FE834724FEE38807FC3D
:1009A000A30E04FC230104FE0347B4FE8347F4FCBA
:1009B0006374F70C8347C4FD938787FF1307800197
:1009C000636CF70213972700B7770080938747621D
:1009D000B307F70083A7070067800700B777008099
:1009E0009385074B13854129EF30102F9307100093
:1009F000A301F4FE6F00400B0347C4FD9307F00210
:100A000063F8E7060347C4FD9307900363E2E70634
:100A10009307C4FD9385070013854129EF30D02B40
:100A20008347C4FD938707FD13870700832744FE90
:100A3000B307F7020327C4FEB307F7002326F4FE2B
:100A40008347B4FE93871700A305F4FE032744FEF3
:100A50009307070093972700B387E7009397170042
:100A60002322F4FE6F00C000130000006F00C003DB
:100A7000130000006F0040030347C4FD9307D0003C
:100A80006308F7000347C4FD9307A000631EF70047
:100A9000B77700809385074B13854129EF30D0232A
:100AA00093071000A301F4FE834734FEE38607EEAC
:100AB0008327C4FE138507008320C1030324810319
:100AC0001301010467800000130101FD23261102B8
:100AD000232481021304010393070500A30FF4FCF0
:100AE000232604FEA30504FE230504FEA30404FE3E
:100AF0008347F4FD9397070193D707019397170056
:100B00002313F4FE231204FE130704FE8347F4FDAF
:100B10009305070013850700EF000024B7770080D6
:100B20009385C75413854129EF30101B930704FEAA
:100B30009385070013854129EF30101AB77700809D
:100B40009385075613854129EF301019B777008038
:100B50009385475B13854129EF3010186F00C01D46
:100B6000930744FE1306200093850700138541294F
:100B7000EF30900393070500A304F4FE834794FE2F
:100B80006386070093071000A305F4FE8347B4FEB5
:100B9000E38807FCA30204FEA30504FE034744FE0A
:100BA0009307F00263F8E700034744FE93079003BE
:100BB00063FAE702034744FE9307000663F8E70081
:100BC000034744FE9307600663FEE700034744FEC5
:100BD0009307000463F2E702034744FE93076004AF
:100BE00063ECE700930744FE9385070013854129D2
:100BF000EF30900E6F000004034744FE930700029D
:100C0000631CF700B77700809385C75B1385412984
:100C1000EF30900C6F000002034744FE9307D000B2
:100C2000631AF700B77700809385074B1385412936
:100C3000EF30900A834744FE938767FF1307C00590
:100C4000636AF70E13972700B7770080938787684A
:100C5000B307F70083A70700678007008327C4FE58
:100C60006F00400E8327C4FE939747002326F4FEAF
:100C7000834744FE138707008327C4FEB307F700AA
:100C8000938707FD2326F4FE6F00000B8327C4FE25
:100C9000939747002326F4FE8327C4FE9387A7007B
:100CA0002326F4FE6F0040098327C4FE9397470074
:100CB0002326F4FE8327C4FE9387B7002326F4FE81
:100CC0006F0080078327C4FE939747002326F4FE16
:100CD0008327C4FE9387C7002326F4FE6F00C00558
:100CE0008327C4FE939747002326F4FE8327C4FE80
:100CF0009387D7002326F4FE6F0000048327C4FEE9
:100D0000939747002326F4FE8327C4FE9387E700CA
:100D10002326F4FE6F0040028327C4FE939747000A
:100D20002326F4FE8327C4FE9387F7002326F4FED0
:100D30006F008000130000008347A4FEE38807E4EF
:100D40008327C4FE138507008320C1020324810288
:100D50001301010367800000130101FE232E8100AF
:100D600013040102930705002324B4FEA307F4FE35
:100D7000832784FE93873700238007000347F4FE10
:100D80009307A000B377F70293F7F70F9387070352
:100D900013F7F70F832784FE938727001317870124
:100DA000135787412380E7000347F4FE9307A00011
:100DB000B357F70213F7F70F9307A000B377F702C3
:100DC00093F7F70F9387070313F7F70F832784FE33
:100DD0009387170013178701135787412380E70074
:100DE0000347F4FE93074006B357F70213F7F70FD4
:100DF0009307A000B377F70293F7F70F93870703E2
:100E000093F7F70F1397870113578741832784FEC2
:100E10002380E700130000000324C1011301010235
:100E200067800000130101FE232E810013040102DC
:100E30002326A4FE2324B4FE032684FE1306B60054
:100E4000230006000326C4FE1376F60F1376F60081
:100E50001376F60F130606039375F60F032684FE2A
:100E60001306A6009395850193D585412300B6000E
:100E70000326C4FE135646001376F60F1376F600CB
:100E80001376F60F130606039375F60F032684FEFA
:100E9000130696009395850193D585412300B600EE
:100EA0000326C4FE135686001376F60F1376F6005B
:100EB0001376F60F130606039375F60F032684FECA
:100EC000130686009395850193D585412300B600CE
:100ED0000326C4FE1356C6001376F60F1376F600EB
:100EE0001376F60F130606039375F60F032684FE9A
:100EF000130676009395850193D585412300B600AE
:100F00000326C4FE135606011376F60F1376F60079
:100F10001376F60F130606039375F60F032684FE69
:100F2000130666009395850193D585412300B6008D
:100F30000326C4FE135646011376F60F1376F60009
:100F40001376F60F130606039375F60F032684FE39
:100F5000130656009395850193D585412300B6006D
:100F60000326C4FE135686011376F60F1376F60099
:100F70001376F60F130606039375F60F032684FE09
:100F8000130646009395850193D585412300B6004D
:100F90000326C4FE1356C6011376F60F1376F60029
:100FA0001376F60F130606039375F60F032684FED9
:100FB000130636009395850193D585412300B6002D
:100FC0000326C4FE130306009303000013D6F34167
:100FD000930706001356F6411308060093F6F7FF31
:100FE00013770800B3876600138607003336D600F0
:100FF000330877003307060113080700135E084023
:10100000935EF84193070E0013880E0093F7F70FD5
:1010100093F7F70093F7F70F9387070313F7F70F8B
:10102000832784FE9387270013178701135787416F
:101030002380E700832784FE938717001307800728
:101040002380E700832784FE130700032380E70043
:10105000130000000324C101130101026780000096
:10106000130101FE232E81001304010293070500E2
:101070002324B4FEA307F4FE832784FE938747004E
:10108000238007008347F4FE93F7F70093F7F70FE9
:101090009387070313F7F70F832784FE938737009F
:1010A00013178701135787412380E7008347F4FE16
:1010B00093D7470093F7F70F93F7F70093F7F70FDE
:1010C0009387070313F7F70F832784FE938727007F
:1010D00013178701135787412380E700832784FE76
:1010E00093871700130780072380E700832784FE78
:1010F000130700032380E700130000000324C1014D
:101100001301010267800000130101FE232E8100FC
:1011100013040102F32740F12324F4FE832784FE05
:101120002322F4FE232604FE6F00C003370700408D
:10113000832744FE939657008327C4FEB386F600A8
:10114000B717000093870780B387F60093972700AF
:10115000B307F70023A007008327C4FE9387170077
:101160002326F4FE8327C4FEE38207FC232604FE25
:101170006F004002370700408327C4FE9397270083
:10118000B307F70023A007008327C4FE9387170047
:101190002326F4FE0327C4FE9307E001E3FCE7FCEB
:1011A00037070040832744FE938707209397C700A3
:1011B000B307F70023A00700B71700009387078045
:1011C000F3A747302320F4FE130000000324C101DD
:1011D0001301010267800000130101FD2326810233
:1011E00013040103232EA4FCF32740F12326F4FE6D
:1011F0008327C4FE2324F4FE370700408327C4FD61
:1012000093D75700832684FE93965600B386F60044
:10121000B717000093870780B387F60093972700DE
:10122000B307F70083A707002322F4FE8327C4FD3A
:1012300093F7F70113071000B317F700032744FED5
:10124000B367F7002322F4FE370700408327C4FD6D
:1012500093D75700832684FE93965600B386F600F4
:10126000B717000093870780B387F600939727008E
:10127000B307F700032744FE23A0E7001300000094
:101280000324C1021301010367800000130101FE62
:10129000232E8100130401022326A4FE2324B4FE7E
:1012A000370700408327C4FE93972700B307F70052
:1012B000032784FE23A0E700130000000324C101DC
:1012C0001301010267800000130101FE232E1100AB
:1012D000232C810013040102230704FEEFF0DFE258
:1012E0009306300013069001B74500601385811BFB
:1012F000EF20D06EB7B74F031385C75AEF10505881
:101300009305100013055000EFF05FF8130550002F
:10131000EFF09FECEF205056EF000030EF00003C64
:10132000A30704FE6F0000030347F4FE9387011137
:10133000B307F700238007000347F4FE93870113E8
:10134000B307F700238007008347F4FE9387170055
:10135000A307F4FE0347F4FE9307F001E3F6E7FC6E
:101360009307C4FE130610009385070013854129D7
:10137000EF308003930705002307F4FE8347E4FE64
:10138000638807268347C4FE130720036380E712A0
:10139000130730036388E72213071003639EE722D5
:1013A000B77700809385C77F13854129EF30C0123E
:1013B00013854129EF30401D93070500A306F4FE75
:1013C000EF00003993070500138707002388E10E1B
:1013D0008347D4FE639A070483C7010F639C070009
:1013E000B78700809385878113854129EF30C00E30
:1013F0006F004002B787008093858783138541295A
:10140000EF30800DB78700809385C785138541290C
:10141000EF30800CB78700809385078613854129BC
:10142000EF30800B6F00001D0347D4FE93071000C0
:10143000631CF700B78700809385478B138541298C
:10144000EF3080096F0040050347D4FE930720006A
:10145000631CF700B78700809385078D13854129AA
:10146000EF3080076F0040030347D4FE930740002E
:10147000631CF700B78700809385078F1385412988
:10148000EF3080056F004001B78700809385C790DB
:1014900013854129EF304004B78700809385C792B8
:1014A00013854129EF3040036F00C014B7770080E7
:1014B0009385C77F13854129EF3000021306000290
:1014C0009385011113854129EF20106E1385412961
:1014D000EF30800B93070500A306F4FE8347D4FE8C
:1014E000639A070483C7010F639C0700B7870080D6
:1014F0009385878113854129EF20107E6F0040027C
:10150000B78700809385878313854129EF20D07C9E
:10151000B78700809385C78513854129EF20D07B4D
:10152000B78700809385078613854129EF20D07AFD
:101530006F0040080347D4FE93071000631CF700B8
:10154000B78700809385478B13854129EF20D0789A
:101550006F0040050347D4FE93072000631CF7008B
:10156000B78700809385078D13854129EF20D076BA
:101570006F0040030347D4FE93074000631CF7004D
:10158000B78700809385078F13854129EF20D0749A
:101590006F004001B78700809385C790138541296C
:1015A000EF209073B78700809385C79213854129F8
:1015B000EF2090729385011113854129EF20D0719E
:1015C0006F004003B78700809385079813854129F2
:1015D000EF2090706F000002B78700809385879A94
:1015E00013854129EF20506FEF00400F6F008000FE
:1015F000130000000347C4FE93073003E312F7D63D
:1016000013000000138507008320C101032481011A
:101610001301010267800000130101FF232611005E
:101620002324810013040101B78700809385C79CA0
:1016300013854129EF20506AB7870080938507A260
:1016400013854129EF205069B7870080938547A70C
:1016500013854129EF205068B7870080938587ACB8
:1016600013854129EF205067B7870080938507B124
:1016700013854129EF205066B78700809385C79274
:1016800013854129EF205065B7870080938547B6C1
:1016900013854129EF205064B7870080938587BB6D
:1016A00013854129EF205063B7870080938507BDDC
:1016B00013854129EF205062B78700809385078604
:1016C00013854129EF205061130000008320C100E1
:1016D000032481001301010167800000130101FF51
:1016E000232611002324810013040101B787008001
:1016F000938587BE13854129EF20105EB787008050
:101700009385C7C313854129EF20105DB7870080FB
:10171000938587C613854129EF20105CB787008029
:10172000938547C913854129EF20105BB787008057
:101730009385078613854129EF20105A1300000076
:101740008320C10003248100130101016780000090
:10175000130101FE232E1100232C8100130401022A
:10176000A30704FE230704FEA30604FEB787008038
:10177000938547CC13854129EF201056230704FE9B
:101780006F0080089307C4FE1306100093850700BE
:1017900013854129EF20504193070500A306F4FE6D
:1017A0008347D4FE638207069307C4FE1306100026
:1017B0009385070013854129EF20D0330347C4FEEA
:1017C0009307D0006318F70093071000A307F4FEF7
:1017D0006F0080038346E4FE0347C4FE9387011332
:1017E000B387F6002380E7008347E4FE9387170062
:1017F0002307F4FE0347E4FE930700026316F70095
:1018000093071000A307F4FE8347F4FEE38C07F66A
:10181000B78700809385C78513854129EF20D04B7A
:101820008347E4FE138507008320C101032481015F
:101830001301010267800000130101FF232611003C
:1018400023248100130401012382011C238A012027
:10185000379700801307873523A0E11CB7970080D6
:101860009387873503A7470023ACE12013060002C6
:10187000B72500601385811CEF2050561385811C0D
:10188000EF20D067130000008320C10003248100F3
:101890001301010167800000130101FE232E1100D6
:1018A000232C8100130401022326A4FE2324B4FE6A
:1018B0002322C4FE93870600A301F4FE8327C4FEFF
:1018C00003A707008327C4FE83A74700938507006B
:1018D00013050700EF20906D8327C4FE83A7070040
:1018E000034734FE1317070113570701832644FEED
:1018F00013061000832584FE13850700EF30400790
:101900008327C4FE03A707008327C4FE83A74700DD
:101910009385070013050700EF20507713000000A0
:101920008320C101032481011301010267800000AB
:10193000130101FE232E1100232C81001304010248
:101940002326A4FE2324B4FE930706002320D4FEFE
:10195000A303F4FE8327C4FE03A707008327C4FE66
:1019600083A747009385070013050700EF20106445
:101970008327C4FE83A70700034774FE13160701DD
:101980001356060113071000832604FE832584FEE8
:1019900013850700EF20D07D8327C4FE03A707002F
:1019A0008327C4FE83A7470093850700130507001C
:1019B000EF20D06D130000008320C10103248101BA
:1019C0001301010267800000130101FE232E1100A4
:1019D000232C810013040102A30704FEB7870080B3
:1019E000938547D113854129EF20102FEF00506FC9
:1019F000EFF09FE46F00C008B7870080938547D35E
:101A000013854129EF20502DEFE01FBE93070500FD
:101A1000A307F4FE8307F4FE938707FD1307100462
:101A2000636CF70413972700B78700809387874973
:101A3000B307F70083A7070067800700EF00506A2D
:101A40006F000004EF0010746F0080031307100094
:101A50002382E11C6F00C002EF10400A6F004002B9
:101A6000EF00907B6F00C001EF0040046F00400169
:101A7000EF0080116F00C000EF10C02D13000000B8
:101A800083C7411CE38A07F6B7870080938547D553
:101A900013854129EF205024130000008320C10149
:101AA000032481011301010267800000130101FE7C
:101AB000232E1100232C810013040102A30704FE2E
:101AC0006F008009B7870080938547D71385412928
:101AD000EF209020EF000019EFE01FB19307050001
:101AE000A307F4FE8307F4FE938707FD1307100492
:101AF0006360F70613972700B78700809387075A1C
:101B0000B307F70083A7070067800700EF00801581
:101B10006F008004EF0010676F00000413071000CF
:101B20002382E11C6F004003EF00507D6F00C00274
:101B3000EF00906E6F004002EF00001E6F00C001CA
:101B4000EF0000376F004001EF00405C6F00C00005
:101B5000EF1040201300000083C7411CE38407F608
:101B60002382011CB7870080938547D113854129C3
:101B7000EF209016130000008320C101032481018F
:101B80001301010267800000130101FE232E1100E2
:101B9000232C810013040102A30704FE6F008009B7
:101BA000B7870080938547D713854129EF20D0124E
:101BB000EF00400BEFE05FA393070500A307F4FEDF
:101BC0008307F4FE938707FD130710046360F7068D
:101BD00013972700B78700809387876AB307F700BA
:101BE00083A7070067800700EF00007C6F00800478
:101BF000EF0050596F000004130710002382E11C0E
:101C00006F004003EF00906F6F00C002EF00D060E4
:101C10006F004002EF0090046F00C001EF00D0178A
:101C20006F004001EF00102F6F00C000EF10801216
:101C30001300000083C7411CE38407F62382011CC4
:101C4000B7870080938547D113854129EF20D008BD
:101C5000130000008320C10103248101130101024C
:101C600067800000130101FF232611002324810057
:101C700013040101B7870080938587DA1385412912
:101C8000EF209005B7870080938587DB1385412976
:101C9000EF209004B7870080938587DD1385412965
:101CA000EF209003B7870080938587DF1385412954
:101CB000EF209002B7870080938547E11385412983
:101CC000EF209001B78700809385C7E213854129F3
:101CD000EF209000B7870080938547E51385412961
:101CE000EF20807FB7870080938547E713854129E0
:101CF000EF20807EB7870080938547E913854129CF
:101D0000EF20807D130000008320C10003248100A8
:101D10001301010167800000130101FE232E110051
:101D2000232C810013040102230604FEA30504FEF4
:101D3000A30704FEB78700809385C7EB138541296D
:101D4000EF2080796F00000EB7870080938507EF42
:101D500013854129EF20407813051000EFE0DFD60E
:101D60009307050013F7F70F238AE120B787008058
:101D7000938587F013854129EF2000761305100025
:101D8000EFE09FD49307050093F7F70F2306F4FEC7
:101D9000B7870080938507F213854129EF20C07330
:101DA00083C74121130744FE9305070013850700ED
:101DB000EFF00FAB930744FE93850700138541298D
:101DC000EF208071B7870080938587F313854129C1
:101DD000EF2080708347C4FE130744FE930507007D
:101DE00013850700EFF0CFA7930744FE9385070004
:101DF00013854129EF20406EB7870080938587F4D3
:101E000013854129EF20406DEFE05F8893070500BF
:101E100013870700930710006316F700930710005D
:101E2000A307F4FE8347F4FEE38007F283A7011CB7
:101E30009306B4FE1307C4FE1306100093050700B3
:101E400013850700EFF0DFAEB78700809385C7F4F6
:101E500013854129EF204068B7870080938587F676
:101E600013854129EF2040678347B4FE130744FEE2
:101E70009305070013850700EFF08F9E930744FE3C
:101E80009385070013854129EF200065B7870080FF
:101E9000938587F713854129EF2000641300000024
:101EA0008320C10103248101130101026780000026
:101EB000130101FE232E1100232C810013040102C3
:101EC000A30704FEA30604FE230704FE230604FE64
:101ED000B78700809385C7F713854129EF20C05F3E
:101EE0006F00001AB7870080938507EF138541299B
:101EF000EF20805E13051000EFE01FBD9307050083
:101F000013F7F70F238AE120A30704FE6F00800870
:101F10008347F4FE9387070393F7F70F2306F4FE36
:101F2000B78700809385C7FA13854129EF20C05AEF
:101F30009307C4FE9385070013854129EF20C059FC
:101F40008347F4FE639A0700B7870080938547FCB8
:101F500013854129EF204058B78700809385C7FC3F
:101F600013854129EF20405713051000EFE0DFB53E
:101F7000130705008347F4FE1377F70F930604FF5A
:101F8000B387F600238CE7FE8347F4FE93871700A0
:101F9000A307F4FE0347F4FE93073000E3FAE7F6E5
:101FA000B7870080938507F213854129EF20C0523F
:101FB00083C74121130704FE93050700138507001B
:101FC000EFF00F8A930704FE9385070013854129DC
:101FD000EF208050B7870080938507FD1385412946
:101FE000EF20804FA30704FE6F0000068347F4FE36
:101FF000130704FFB307F70083C787FF130704FE27
:102000009305070013850700EFF08F85B7870080E1
:10201000938507FE13854129EF20004C930704FEAA
:102020009385070013854129EF20004BB787008077
:10203000938547FE13854129EF20004A8347F4FE2C
:1020400093871700A307F4FE0347F4FE93073000BD
:10205000E3FEE7F8B7870080938587FE1385412963
:10206000EF208047EFE08FE293070500138707001A
:10207000930710006316F700930710002307F4FE80
:102080008347E4FEE38007E683A7011C9306D4FEA2
:10209000130784FE1306400093050700138507000D
:1020A000EFF01F89B78700809385C7F41385412916
:1020B000EF208042B7870080938587F613854129FA
:1020C000EF2080418347D4FE130704FE93050700E9
:1020D00013850700EFE0DFF8930704FE9385070000
:1020E00013854129EF20403FB7870080938587F70C
:1020F00013854129EF20403E130000008320C101D9
:10210000032481011301010267800000130101FD16
:10211000232611022324810213040103A30704FED2
:10212000A30604FEA30304FE230704FE230204FE09
:10213000B7870080938507FF13854129EF20C039B9
:10214000B78700809385470213854129EF20C03867
:1021500013053000EFE00FFD93070500A306F4FE22
:102160008347D4FE13850700EF40804393070500A3
:102170002324F4FE6F00001AB7870080938507EFD1
:1021800013854129EF20403513051000EFE0DF9360
:102190009307050013F7F70F238AE120A30704FE36
:1021A0006F0080088347F4FE9387070393F7F70FC8
:1021B0002302F4FEB78700809385C7FA138541296F
:1021C000EF208031930744FE938507001385412952
:1021D000EF2080308347F4FE639A0700B7870080C2
:1021E000938547FC13854129EF20002FB787008096
:1021F0009385C7FC13854129EF20002E130510009D
:10220000EFE09F8C930605008347F4FE032784FECE
:10221000B307F70013F7F60F2380E7008347F4FEB8
:1022200093871700A307F4FE0347F4FE8347D4FE09
:10223000E36AF7F6B7870080938507F21385412993
:10224000EF20802983C741211307C4FD93050700B0
:1022500013850700EFE0DFE09307C4FD93850700D7
:1022600013854129EF204027B7870080938507FD1C
:1022700013854129EF204026A30704FE6F000006C6
:102280008347F4FE032784FEB307F70083C70700E4
:102290001307C4FD9305070013850700EFE05FDC1B
:1022A000B7870080938507FE13854129EF20C02260
:1022B0009307C4FD9385070013854129EF20C021B2
:1022C000B7870080938547FE13854129EF20C02002
:1022D0008347F4FE93871700A307F4FE0347F4FE39
:1022E0008347D4FEE36EF7F8B7870080938587FEB7
:1022F00013854129EF20401EEFE04FB993070500F9
:1023000013870700930710006316F7009307100068
:102310002307F4FE8347E4FEE38007E683A7011C5E
:10232000930674FE0347D4FE13060700832584FE3C
:1023300013850700EFF0CFDFB78700809385C7F4E0
:1023400013854129EF204019B7870080938587F6D0
:1023500013854129EF204018834774FE1307C4FDFD
:102360009305070013850700EFE09FCF9307C4FD97
:102370009385070013854129EF200016B787008059
:10238000938587F713854129EF200015032584FEE7
:10239000EF400022130000008320C10203248102C9
:1023A0001301010367800000130101FF23261100C0
:1023B0002324810013040101B7870080938587DA05
:1023C00013854129EF204011B7870080938587DB73
:1023D00013854129EF204010B7870080938587DD62
:1023E00013854129EF20400FB787008093850705AB
:1023F00013854129EF20400EB78700809385C706DB
:1024000013854129EF20400DB78700809385470849
:1024100013854129EF20400CB7870080938547E55D
:1024200013854129EF20400BB7870080938547E74C
:1024300013854129EF20400AB7870080938547E93B
:1024400013854129EF204009130000008320C100BB
:10245000032481001301010167800000130101FEC4
:10246000232E1100232C810013040102230604FEF5
:10247000A30704FEB78700809385870A1385412947
:10248000EF2080056F008008B78700809385C70D17
:1024900013854129EF20400413051000EFE0CFE23F
:1024A0009307050013F7F70F238AE120B787008011
:1024B0009385470F13854129EF20000283C74121EF
:1024C000130744FE9305070013850700EFE05FB98B
:1024D000930744FE9385070013854129EF10D07FB1
:1024E000B7870080938587F413854129EF10D07E4C
:1024F000EFE0CF99930705001387070093071000BB
:102500006316F70093071000A307F4FE8347F4FE59
:10251000E38C07F603A7011C9307C4FE9306100083
:10252000138607009385412113050700EFF0CFB60E
:10253000B78700809385C71013854129EF10D079A4
:10254000B78700809385871213854129EF10D078D3
:102550008347C4FE130744FE930507001385070055
:10256000EFE01FB0930744FE9385070013854129D0
:10257000EF109076B7870080938587F71385412900
:10258000EF109075130000008320C1010324810126
:102590001301010267800000130101FE232E1100C8
:1025A000232C810013040102A30704FE230704FE69
:1025B000230604FEB787008093858713138541297E
:1025C000EF1090716F008007B78700809385C70D6B
:1025D00013854129EF10507013051000EFE0CFCEA6
:1025E0009307050013F7F70F238AE120B7870080D0
:1025F000938507F213854129EF10106E83C741219F
:10260000130704FE9305070013850700EFE05FA59D
:10261000B78700809385871613854129EF10D06B0B
:10262000EFE0CF869307050013870700930710009C
:102630006316F700930710002307F4FE8347E4FEB8
:10264000E38407F803A7011C930784FE9306400068
:10265000138607009385412113050700EFF0CFA3F0
:10266000B78700809385C7F413854129EF10D066A2
:10267000B78700809385471713854129EF10D065F0
:10268000A30704FE6F000006B7870080938507FE4E
:1026900013854129EF1050648347F4FE130704FFAC
:1026A000B307F70083C787FF130704FE93050700EE
:1026B00013850700EFE0DF9A930704FE9385070078
:1026C00013854129EF105061B7870080938547FE3D
:1026D00013854129EF1050608347F4FE938717005C
:1026E000A307F4FE0347F4FE93073000E3FEE7F888
:1026F000B78700809385471813854129EF10D05D77
:10270000130000008320C101032481011301010291
:1027100067800000130101FD23261102232481029A
:1027200013040103A30704FEA30604FE230704FE0B
:10273000230204FEB7870080938507FF1385412994
:10274000EF109059B7870080938547021385412980
:10275000EF10905813053000EFE0CF9C9307050071
:10276000A306F4FE8347D4FE13850700EF305063C1
:10277000930705002324F4FE6F008008B7870080CC
:10278000938507EF13854129EF10105513051000AD
:10279000EFE08FB39307050013F7F70F238AE120CB
:1027A000B7870080938507F213854129EF10D05237
:1027B00083C741211307C4FD930507001385070054
:1027C000EFE01F8A9307C4FD938507001385412915
:1027D000EF109050B78700809385871613854129A5
:1027E000EF10904FEFD09FEA930705001387070083
:1027F000930710006316F700930710002307F4FEF9
:102800008347E4FEE38C07F603A7011C8347D4FE4D
:1028100093860700032684FE938541211305070054
:10282000EFF08F87B78700809385C7F41385412920
:10283000EF10904AB7870080938547171385412989
:10284000EF109049A30704FE6F000006B7870080D1
:10285000938507FE13854129EF1010488347F4FE46
:10286000032784FEB307F70083C707001307C4FDDF
:102870009305070013850700EFE08FFE9307C4FD63
:102880009385070013854129EF101045B787008015
:10289000938547FE13854129EF1010448347F4FECA
:1028A00093871700A307F4FE0347F4FE9307300055
:1028B000E3FEE7F8B7870080938547181385412921
:1028C000EF109041032584FEEF30904E130000007E
:1028D0008320C102032481021301010367800000E9
:1028E000130101FF23261100232481001304010199
:1028F000B7870080938587DA13854129EF10D03D93
:10290000B7870080938587DB13854129EF10D03C82
:10291000B7870080938587DD13854129EF10D03B71
:10292000B78700809385871813854129EF10D03A27
:10293000B78700809385471A13854129EF10D03956
:10294000B7870080938547E513854129EF10D0387C
:10295000B7870080938547E713854129EF10D0376B
:10296000B78700809385071C13854129EF10D03667
:10297000130000008320C100032481001301010122
:1029800067800000130101FF23261100232481002A
:1029900013040101B78700809385071E1385412921
:1029A000EF109033B78700809385471F1385412927
:1029B000EF109032B7870080938547201385412917
:1029C000EF109031B78700809385C7211385412987
:1029D000EF109030B78700809385472313854129F6
:1029E000EF10902FB7870080938507241385412926
:1029F000EF10902EB78700809385472513854129D6
:102A0000EF10902D130000008320C10003248100EB
:102A10001301010167800000130101FF232611004B
:102A20002324810013040101B78700809385C72602
:102A300013854129EF10502A83A7812113075000E5
:102A4000636AF70813972700B78700809387077B8F
:102A5000B307F70083A7070067800700B7870080E8
:102A60009385072813854129EF1010276F00C007B1
:102A7000B78700809385872813854129EF10D025DB
:102A80006F008006B78700809385C7291385412989
:102A9000EF1090246F004005B78700809385072BC7
:102AA00013854129EF1050236F000004B787008081
:102AB0009385872B13854129EF1010226F00C002E8
:102AC000B78700809385872C13854129EF10D0208C
:102AD0006F008001B78700809385872D138541297A
:102AE000EF10901F13000000130000008320C100AE
:102AF000032481001301010167800000130101FE1E
:102B0000232E1100232C810013040102A30704FECD
:102B1000230704FEB78700809385472E138541293C
:102B2000EF10901BB78700809385C731138541292B
:102B3000EF10901AB7870080938587341385412959
:102B4000EF109019EFF01FE46F00001FB7870080AF
:102B50009385C73713854129EF101018EFD0DFA8F0
:102B600093070500A306F4FE8347D4FE938707FD71
:102B70002306F4FE8307D4FE13078006638CE70068
:102B8000130710076380E702130740066388E70016
:102B90006F000003EFF01FDF6F004003EFF0DFE78F
:102BA0006F00C002B78700809385C738138541291D
:102BB000EF10901293071000A307F4FE6F000001BE
:102BC000930710002307F4FE130000008347E4FE80
:102BD0006382071693071000A307F4FE8347C4FE21
:102BE00013075000636AF71213972700B787008016
:102BF0009387877CB307F70083A7070067800700E8
:102C0000B78700809385473A13854129EF10D00C90
:102C1000379700801307073523A0E11CB797008082
:102C20009387073503A7470023ACE120B7870080CF
:102C30009385073D13854129EF10100A6F00C00FDF
:102C4000379700801307873523A0E11CB7970080D2
:102C50009387873503A7470023ACE120B78700801F
:102C60009385073E13854129EF1010076F00C00CB4
:102C7000379700801307073623A0E11CB797008021
:102C80009387073603A7470023ACE120B78700806E
:102C90009385C73F13854129EF1010046F00C009C9
:102CA0001387818123A0E11C9387818103A74700BB
:102CB00023ACE120B78700809385874113854129A4
:102CC000EF1090016F0040071387018223A0E11CE1
:102CD0009387018203A7470023ACE120B7870080D8
:102CE0009385874213854129EF10007F6F00C00450
:102CF0001387818223A0E11C9387818203A7470069
:102D000023ACE120B78700809385074413854129D0
:102D1000EF10807C6F004002B78700809385C74525
:102D200013854129EF10407BA30704FE230704FE0F
:102D30006F008000130000008347F4FEE38807E083
:102D4000130000008320C10103248101130101024B
:102D500067800000130101FF232611002324810056
:102D600013040101B78700809385C7471385412964
:102D7000EF108076130000008320C100032481003F
:102D80001301010167800000130101FE232E810061
:102D9000130401022326A4FE2324B4FE2322C4FE2E
:102DA0006F00C0028327C4FE03A70700832784FEA9
:102DB00023A0E7008327C4FE938747002326F4FE61
:102DC000832784FE938747002324F4FE032784FE91
:102DD000832744FEE3F8E7FC130000000324C1014D
:102DE0001301010267800000130101FD2326810207
:102DF00013040103232EA4FC232CB4FC8327C4FD5D
:102E00002326F4FE6F0080018327C4FE23A0070061
:102E10008327C4FE938747002326F4FE0327C4FEBE
:102E2000832784FDE3F2E7FE130000000324C102C0
:102E30001301010367800000130101FE232E11001E
:102E4000232C810013040102B78700809387077E3B
:102E50002326F4FE8327C4FE2320F4FE232204FE4F
:102E6000232404FE13860184B797008093850735D9
:102E7000B797008013850735EFF01FF11386010F18
:102E80009385018413850184EFF01FF09385011170
:102E90001385010FEFF05FF59385012C1385011168
:102EA000EFF09FF4930704FE9385070013051000CD
:102EB000EF308037130000008320C101032481011B
:102EC0001301010267800000130101FF2326810026
:102ED00013040101130000000324C10013010101C8
:102EE00067800000130101FD232681021304010302
:102EF000232EA4FCF32740F12326F4FE8327C4FEEF
:102F00002324F4FE370700408327C4FD93D75700DE
:102F1000832684FE93965600B386F600B71700000A
:102F200093870780B387F60093972700B307F700CE
:102F300083A707002322F4FE8327C4FD93F7F7013C
:102F400013071000B317F70093C7F7FF032744FEDA
:102F5000B377F7002322F4FE370700408327C4FD30
:102F600093D75700832684FE93965600B386F600C7
:102F7000B717000093870780B387F6009397270061
:102F8000B307F700032744FE23A0E7001300000067
:102F90000324C1021301010367800000130101FE35
:102FA000232E810013040102F32740F12326F4FEAF
:102FB0008327C4FE2324F4FE37070040832784FEC2
:102FC000938707209397C700B307F70083A74700AD
:102FD000138507000324C10113010102678000006B
:102FE000130101FD2326810213040103232EA4FCF7
:102FF000F32740F12326F4FE8327C4FE2324F4FEA6
:1030000037070040832784FE938707209397C700E4
:10301000B307F7000327C4FD23A2E7001300000055
:103020000324C1021301010367800000130101FEA4
:10303000232E81001304010293070008F3B7073021
:103040002326F4FEF37704302324F4FE130000005B
:103050000324C1011301010267800000130101FE76
:10306000232E810013040102F36704302326F4FEAB
:10307000130000000324C101130101026780000056
:10308000130101FD232611022324810213040103ED
:10309000232EA4FC130710002326E4FE8326C4FD80
:1030A0001307400633D7E602930707001308000012
:1030B00023ACF10E23AE010F83A6810F03A7C10F2E
:1030C00093870600B3E7E70063840708F32740F11E
:1030D0002324F4FE832784FE2322F4FE37070044D2
:1030E000B7C70000B307F70003A8C7FF83A787FF90
:1030F00083A5810F03A6C10F37050044B386B7002F
:1031000093880600B3B8F8003307C800B387E80017
:10311000138707009387060013080700832644FEE1
:1031200037170000130707803387E60013173700AF
:103130003307E5002320F700232207019307000847
:10314000F3A747302320F4FEEFF05FF1232604FEBF
:103150008327C4FE138507008320C1020324810254
:103160001301010367800000130101FE232E1100EB
:10317000232C81001304010293070008F3B74730A2
:103180002326F4FEEF00506737070044B7C700005E
:10319000B307F70003A8C7FF83A787FF83A5810FA5
:1031A00003A6C10F37050044732740F12324E4FE32
:1031B000832884FEB386B700138306003333F300FD
:1031C0003307C800B307E30013870700938706009F
:1031D0001308070037170000130707803387E8003C
:1031E000131737003307E5002320F70023220701D8
:1031F00093070008F3A747302322F4FE13000000D2
:103200008320C101032481011301010267800000B2
:10321000130101FE232E1100232C8100130401024F
:10322000EFF0DFD72326A4FEA30504FEB7970080A6
:103230000327C4FE1317270093870739B307F70046
:1032400083A70700E780070093070500A305F4FEA6
:103250000325C4FEEFF0DFD80347B4FE9307100048
:103260006316F7000325C4FEEFF0DFC7130000006C
:103270008320C10103248101130101026780000042
:10328000130101FF232611002324810013040101EF
:10329000EF00C011B707004423A00700130000008F
:1032A0008320C10003248100130101016780000015
:1032B000130101FB232611042324810413040105B7
:1032C000232EA4FA232CB4FA8327C4FB63D207026B
:1032D0000327C4FBB707008093C7F7FF3377F700D6
:1032E0009307B0006316F700EFF09FF26F00800ABB
:1032F0008327C4FB63D207020327C4FBB707008000
:1033000093C7F7FF3377F700930770006316F70052
:10331000EFF09FE56F0000088327C4FB63D207022C
:103320000327C4FBB707008093C7F7FF3377F70085
:10333000930730006316F700EFF09FF46F008005ED
:10334000F32740342326F4FE8327C4FE2324F4FE0F
:10335000F32730342322F4FE832744FE2320F4FE97
:10336000F3275030232EF4FC8327C4FD232CF4FCD8
:10337000F3270034232AF4FC832744FD2328F4FC9C
:10338000F32700302326F4FC8327C4FC2324F4FC19
:1033900073001000832784FB138507008320C1047A
:1033A000032481041301010567800000130101FF5C
:1033B0002326110023248100130401011305A0001A
:1033C000EF00403C130101FF23268100130401019B
:1033D00093070000138507000324C10013010101B6
:1033E00067800000130101FF2326810013040101FF
:1033F00093070000138507000324C1001301010196
:1034000067800000130101FF2326810013040101DE
:1034100093070000138507000324C1001301010175
:1034200067800000130101FF2326810013040101BE
:1034300093070000138507000324C1001301010155
:1034400067800000130101FF23268100130401019E
:1034500093070000138507000324C1001301010135
:1034600067800000130101FF23268100130401017E
:1034700093070000138507000324C1001301010115
:1034800067800000130101FF23268100130401015E
:1034900093070000138507000324C10013010101F5
:1034A00067800000130101FF23268100130401013E
:1034B00093070000138507000324C10013010101D5
:1034C00067800000130101FF23268100130401011E
:1034D00093070000138507000324C10013010101B5
:1034E00067800000130101FF2326810013040101FE
:1034F00093070000138507000324C1001301010195
:1035000067800000130101FF2326810013040101DD
:1035100093070000138507000324C1001301010174
:1035200067800000130101FF2326810013040101BD
:1035300093070000138507000324C1001301010154
:1035400067800000130101FF23268100130401019D
:1035500093070000138507000324C1001301010134
:1035600067800000130101FF23268100130401017D
:1035700093070000138507000324C1001301010114
:1035800067800000130101FF23268100130401015D
:1035900093070000138507000324C10013010101F4
:1035A00067800000130101FF23268100130401013D
:1035B00093070000138507000324C10013010101D4
:1035C00067800000130101FF23268100130401011D
:1035D00093070000138507000324C10013010101B4
:1035E00067800000130101FF2326810013040101FD
:1035F00093070000138507000324C1001301010194
:1036000067800000130101FF2326810013040101DC
:1036100093070000138507000324C1001301010173
:1036200067800000130101FF2326810013040101BC
:1036300093070000138507000324C1001301010153
:1036400067800000130101FF23268100130401019C
:1036500093070000138507000324C1001301010133
:1036600067800000130101FF23268100130401017C
:1036700093070000138507000324C1001301010113
:1036800067800000130101FF23268100130401015C
:1036900093070000138507000324C10013010101F3
:1036A00067800000130101FF23268100130401013C
:1036B00093070000138507000324C10013010101D3
:1036C00067800000130101FF23268100130401011C
:1036D00093070000138507000324C10013010101B3
:1036E00067800000130101FF2326810013040101FC
:1036F00093070000138507000324C1001301010193
:1037000067800000130101FF2326810013040101DB
:1037100093070000138507000324C1001301010172
:1037200067800000130101FF2326810013040101BB
:1037300093070000138507000324C1001301010152
:1037400067800000130101FF23268100130401019B
:1037500093070000138507000324C1001301010132
:1037600067800000130101FF23268100130401017B
:1037700093070000138507000324C1001301010112
:1037800067800000130101FE232E81001304010253
:103790002326A4FE6F000000130101FE232E8100EA
:1037A000130401022326A4FE03A701838327C4FE7A
:1037B0003307F7009387012C636EF70003A701839B
:1037C0008327C4FE3307F700B7A7008093870761FC
:1037D00063F6E7009307F0FF6F00400203A7018341
:1037E0008327C4FE3307F70023A8E18203A70183E0
:1037F0008327C4FEB307F040B307F7001385070023
:103800000324C1011301010267800000130101FDBF
:10381000232611022324810213040103232EA4FC76
:10382000B78700809385877E13854129EF00D04AB2
:10383000EFF0CFAC930710002326F4FE6F00C00119
:103840008327C4FD93971700232EF4FC8327C4FE1F
:10385000938717002326F4FE0327C4FE93078000F6
:10386000E3D0E7FE130000008320C102032481029D
:103870001301010367800000130101FF23261100DB
:10388000232481001304010113050000EFF01FF849
:10389000130000008320C1000324810013010101F3
:1038A00067800000130101FE232E81001304010232
:1038B000F32740F12324F4FE832784FE2322F4FE21
:1038C000232604FE6F00C00337070040832744FE11
:1038D000939657008327C4FEB386F600B7170000FF
:1038E00093870780B387F60093972700B307F70005
:1038F00023A007008327C4FE938717002326F4FE26
:103900008327C4FEE38207FC232604FE6F004002E7
:10391000370700408327C4FE93972700B307F700BB
:1039200023A007008327C4FE938717002326F4FEF5
:103930000327C4FE9307E001E3FCE7FC37070040E0
:10394000832744FE938707209397C700B307F700A8
:1039500023A00700B717000093870780F3A747301D
:103960002320F4FE130000000324C101130101020F
:1039700067800000130101FD232681021304010367
:10398000232EA4FCF32740F12326F4FE8327C4FE54
:103990002324F4FE370700408327C4FD93D7570044
:1039A000832684FE93965600B386F600B717000070
:1039B00093870780B387F60093972700B307F70034
:1039C00083A707002322F4FE8327C4FD93F7F701A2
:1039D00013071000B317F700032744FEB367F7007F
:1039E0002322F4FE370700408327C4FD93D75700F6
:1039F000832684FE93965600B386F600B717000020
:103A000093870780B387F60093972700B307F700E3
:103A1000032744FE23A0E700130000000324C10293
:103A20001301010367800000130101FE232E8100B2
:103A3000130401022326A4FE2324B4FE370700400A
:103A40008327C4FE93972700B307F700032784FE5C
:103A500023A0E700130000000324C10113010102A9
:103A600067800000130101FE232E1100232C81002A
:103A700013040102230704FEEFF0DFE293060000C7
:103A800013061002B735006013850122EF10805332
:103A9000B7B74F031385C75AEFF08FDE93051000B9
:103AA00013055000EFF05FF813055000EFF09FECA6
:103AB000EF00805CEF008024EF008031A30704FE5C
:103AC0006F0000030347F4FE93870115B307F70067
:103AD000238007000347F4FE93870117B307F7001D
:103AE000238007008347F4FE93871700A307F4FEA3
:103AF0000347F4FE9307F001E3F6E7FC930744FE67
:103B0000130610009385070013854129EF00D009A3
:103B1000930705002307F4FE8347E4FE6380071440
:103B2000834744FE130710036388E700130740032D
:103B30006380E7106F000011B797008093850780BE
:103B400013854129EF005019EF00C030930705009D
:103B5000138707002380E11083C701101386070035
:103B60009385011713050003EF00C0112324A4FE61
:103B7000832784FE639A070483C70110639C0700B0
:103B8000B79700809385C78113854129EF00D01432
:103B90006F004002B79700809385C7831385412942
:103BA000EF009013B797008093850786138541290E
:103BB000EF009012B79700809385478613854129BF
:103BC000EF0090116F004006032784FE930720004A
:103BD000631CF700B79700809385878B1385412975
:103BE000EF00900F6F004003032784FE930730001F
:103BF000631CF700B79700809385078D13854129D3
:103C0000EF00900D6F004001B79700809385878E7D
:103C100013854129EF00500CB7970080938587905A
:103C200013854129EF00500BEF0040316F00400336
:103C3000B79700809385C79513854129EF00D00978
:103C40006F000002B797008093854798138541293C
:103C5000EF009008EF00C0176F0080001300000015
:103C6000034744FE93074003E31AF7E89307000075
:103C7000138507008320C101032481011301010280
:103C800067800000130101FD232611022324810215
:103C90001304010393070500232CB4FC130706004B
:103CA000A30FF4FC93070700230FF4FC8347E4FD04
:103CB0009396070193D606018347F4FD130700008E
:103CC000032684FD9385070013850122EF1000462B
:103CD000B7170000938587BB13850122EF10005BA7
:103CE0002326A4FE8327C4FE138507008320C10278
:103CF000032481021301010367800000130101FF07
:103D0000232611002324810013040101B7970080AA
:103D10009385879A13854129EF00007CB79700802F
:103D20009385C79F13854129EF00007BB7970080DB
:103D3000938507A513854129EF00007AB797008086
:103D4000938547AA13854129EF000079B797008032
:103D50009385C7AE13854129EF000078B79700809F
:103D60009385879013854129EF000077B7970080EE
:103D7000938507B413854129EF000076B79700803B
:103D8000938547B913854129EF000075B7970080E7
:103D90009385C7BD13854129EF000074B797008054
:103DA0009385C7C213854129EF000073B797008040
:103DB0009385478613854129EF00007213000000A8
:103DC0008320C100032481001301010167800000EA
:103DD000130101FF23261100232481001304010194
:103DE000B7970080938507C813854129EF00C06EFF
:103DF000B7970080938547CD13854129EF00C06DAB
:103E0000B7970080938587D113854129EF00C06C57
:103E1000B79700809385C7D513854129EF00C06B04
:103E2000B7970080938507DA13854129EF00C06AB0
:103E3000B79700809385478613854129EF00C069B5
:103E4000130000008320C10003248100130101013D
:103E500067800000130101FE232E1100232C810036
:103E600013040102A30704FE230704FEA30604FEB5
:103E7000B7970080938507DD13854129EF00C06562
:103E8000230704FE6F0080089307C4FE130610008A
:103E90009385070013854129EF0000519307050022
:103EA000A306F4FE8347D4FE638207069307C4FE8D
:103EB000130610009385070013854129EF00804306
:103EC0000347C4FE9307D0006318F7009307100060
:103ED000A307F4FE6F0080038346E4FE0347C4FE9D
:103EE00093870117B387F6002380E7008347E4FE3A
:103EF000938717002307F4FE0347E4FE93070002AD
:103F00006316F70093071000A307F4FE8347F4FE3F
:103F1000E38C07F6B79700809385078613854129C0
:103F2000EF00805B8347E4FE138507008320C10117
:103F3000032481011301010267800000130101FCC9
:103F4000232E1102232C810213040104B797008051
:103F500083A807E0138707E003284700138707E0DB
:103F600003258700138707E08325C700138707E031
:103F700003260701138707E083264701138707E01D
:103F800003278701232614FD232804FD232AA4FCEC
:103F9000232CB4FC232EC4FC2320D4FE2322E4FED5
:103FA000938707E083C7C7012304F4FE9307C4FC8B
:103FB0001306D0019385070013854129EF00803354
:103FC0009307B4FE1306100093850700138541295B
:103FD000EF00803D2326A4FE8327C4FEE38207FE74
:103FE000EFF01FDF130000008320C10303248103CF
:103FF0001301010467800000130101FF2326110053
:1040000023248100130401019305A00013850122DC
:10401000EF10002E130000008320C1000324810054
:104020001301010167800000130101FF2326110025
:10403000232481001304010113850122EF10C039EC
:1040400093070000138507008320C100032481002B
:104050001301010167800000130101FF2326810085
:104060001304010193070000138507000324C10016
:104070001301010167800000130101FF23261100D5
:104080002324810013040101EFE05FFD1300000011
:104090008320C10003248100130101016780000017
:1040A000130101FE232E1100232C810013040102B1
:1040B000F32700302326F4FE8327C4FE2324F4FED6
:1040C000EFE0DFF6832784FE138507008320C1011C
:1040D000032481011301010267800000130101FE26
:1040E000232E8100130401022326A4FE8327C4FE8D
:1040F00073900730130000000324C1011301010273
:10410000678000002320B5006780000003250500BC
:1041100067800000138E0600331EBE00337ECE0083
:10412000032305009303060093C3F3FF3373730067
:104130003363C30123206500678000000325050069
:104140003375C5003355B500678000002310B500F6
:10415000678000000315050067800000138E0600CD
:10416000331EBE00337ECE0003130500930306000A
:1041700093C3F3FF337373003363C30123106500EC
:1041800067800000031505003375C5003355B50081
:10419000678000002300B50067800000030505006C
:1041A00067800000138E0600331EBE00337ECE00F3
:1041B000030305009303060093C3F3FF33737300F7
:1041C0003363C30123006500678000000305050019
:1041D0003375C5003355B50067800000130101FD3C
:1041E000232611022324810213040103232EA4FC9D
:1041F000232CB4FC9307060013870600231BF4FC52
:1042000093070700A30AF4FC8327C4FD638A070C05
:10421000034754FD9307700063E4E70C035764FD04
:10422000B7270000637EF70A832784FD1387870082
:10423000835764FD93F7F70F938507001305070075
:10424000EFF05FF5832784FD9386C700034754FD95
:10425000835764FD93D7574093F7877FB367F70081
:104260009385070013850600EFF0DFF28327C4FD76
:10427000032784FD23A0E7008327C4FD83A707004D
:104280009387070113850700EFF05FF1930705009F
:1042900093F72700A307F4FE6F0080038327C4FD74
:1042A00083A707009387470013850700EFF01FEFF0
:1042B0008327C4FD83A707009387070113850700A1
:1042C000EFF0DFED9307050093F72700A307F4FE57
:1042D0008347F4FEE39407FC8327C4FD2382070091
:1042E000130000008320C102032481021301010393
:1042F00067800000130101FD23261102232481029F
:1043000013040103232EA4FC232CB4FC232AC4FC95
:104310008327C4FD63800708832784FD638C070619
:10432000832744FD63880706232604FE6F00C0052B
:104330008327C4FD83A70700938707011385070020
:10434000EFF0DFE59307050093F71700A305F4FEF0
:104350008347B4FEE38E07FC8327C4FD83A60700D2
:10436000032784FD8327C4FEB307F70083C7070034
:104370009385070013850600EFF0DFE18327C4FE75
:10438000938717002326F4FE0327C4FE832744FDEA
:10439000E360F7FA130000008320C10203248102C6
:1043A0001301010367800000130101FD23261102A0
:1043B000232481022322910213040103232EA4FC4F
:1043C000232CB4FC232AC4FC232404FE8327C4FD2D
:1043D0006386070E832784FD6382070E832744FDCF
:1043E000638E070C232404FE8327C4FD83A70700E4
:1043F0009387070113850700EFF05FDA9307050045
:10440000A303F4FE8327C4FD03C74700834774FE5C
:10441000B367F70013F7F70F8327C4FD2382E70084
:10442000834774FE93F72700A307F4FE6F00C007CD
:104430008327C4FD83A7070093864700032784FDD5
:10444000832784FEB304F70013850600EFF01FD521
:10445000930705002380F400832784FE93871700C9
:104460002324F4FE8327C4FD83A707009387070155
:1044700013850700EFF09FD293070500A303F4FE16
:104480008327C4FD03C74700834774FEB367F70063
:1044900013F7F70F8327C4FD2382E700834774FED9
:1044A00093F72700A307F4FE8347F4FE6388070011
:1044B000032784FE832744FDE36CF7F6832784FEFD
:1044C000138507008320C102032481028324410253
:1044D0001301010367800000130101FD232611026F
:1044E0002324810213040103232EA4FC232CB4FCF7
:1044F0008327C4FD63800708832784FD638C070638
:10450000232604FE6F00C0058327C4FD83A7070090
:104510009387070113850700EFF05FC89307050035
:1045200093F71700A305F4FE8347B4FEE38E07FC60
:104530008327C4FD83A60700032784FD8327C4FEC9
:10454000B307F70083C707009385070013850600AC
:10455000EFF05FC48327C4FE938717002326F4FE81
:10456000032784FD8327C4FEB307F70083C7070032
:10457000E39C07F8130000008320C102032481029A
:104580001301010367800000130101FD232681024E
:1045900013040103232EA4FC9307F0FFA307F4FEEA
:1045A0008327C4FD638207028327C4FD83C74700B6
:1045B00093D7274093F7F70F93F77700A307F4FEFD
:1045C0008327C4FD238207008347F4FE1385070079
:1045D0000324C1021301010367800000130101FEDF
:1045E000232E1100232C8100130401022326A4FE94
:1045F0002324B4FE930706002313F4FE8327C4FE8E
:104600006384070E832784FE6380070E1306C004AD
:10461000930500000325C4FEEF2040778327C4FEE6
:10462000032784FE23A0E700035764FE93070002DC
:1046300063EEE700835764FE638A07008327C4FEA6
:10464000035764FE2392E7046F0000018327C4FE32
:10465000130710002392E7048327C4FE83A70700F3
:104660009306000013061000930500001385070051
:10467000EFF05FB38327C4FE83A707009387470249
:104680009305000013850700EFF0DFB08327C4FE19
:1046900083A707009387C7019305300013850700A0
:1046A000EFF05FAF8327C4FE83A70700938747001F
:1046B0009305F00F13850700EFF0DFAD8327C4FEED
:1046C00083A70700938787019305000013850700E0
:1046D000EFF05FAC8327C4FE83A70700930530008B
:1046E00013850700EFF01FAB130000008320C1010A
:1046F000032481011301010267800000130101FE00
:10470000232E1100232C8100130401022326A4FE72
:104710008327C4FE638207088327C4FE83A707009C
:104720009306000013061000930500001385070090
:10473000EFF05FA78327C4FE23A407048327C4FEEA
:1047400083A707009387C7019305300013850700EF
:10475000EFF05FA48327C4FE83A707009387470079
:104760009305F00F13850700EFF0DFA28327C4FE47
:1047700083A707009387870193050000138507002F
:10478000EFF05FA18327C4FE83A7070093053000E5
:1047900013850700EFF01FA0130000008320C10164
:1047A000032481011301010267800000130101FD50
:1047B000232611022324810213040103232EA4FCC7
:1047C000232CB4FC232604FE8327C4FD6386070A3A
:1047D000032784FD9307700063E0E70A8327C4FD85
:1047E00083A7070013062000930510001385070018
:1047F000EFF0DF9D93070500638007088327C4FD62
:1048000083A7070093870702130600019305400062
:1048100013850700EFF09F9B9307050013870700A0
:10482000930710006316F7000325C4FDEF008070A6
:104830008327C4FD83A707009387470213850700DA
:10484000EFF0DF959307050093860700832784FD2B
:1048500013071000B317F700B3E7F6002326F4FEA2
:104860008327C4FD83A70700938747028325C4FEDF
:1048700013850700EFF01F92130000008320C10290
:10488000032481021301010367800000130101FD6D
:10489000232611022324810213040103232EA4FCE6
:1048A000232CB4FC232604FE8327C4FD6388070A57
:1048B000032784FD9307700063E2E70A8327C4FDA2
:1048C00083A7070013062000930510001385070037
:1048D000EFF0DF8F93070500638207088327C4FD8D
:1048E00083A7070093870702130600019305400082
:1048F00013850700EFF09F8D9307050013870700CE
:10490000930710006316F7000325C4FDEF008062D3
:104910008327C4FD83A707009387470213850700F9
:10492000EFF0DF879307050093860700832784FD58
:1049300013071000B317F70093C7F7FFB3F7F6009C
:104940002326F4FE8327C4FD83A70700938747022D
:104950008325C4FE13850700EFF0DF8313000000FA
:104960008320C10203248102130101036780000038
:10497000130101FD232611022324810213040103E4
:10498000232EA4FC232CB4FC930706002328D4FC7C
:10499000231BF4FC93070700231AF4FC232204FED4
:1049A000231704FE231604FE231504FE231404FE1D
:1049B0008327C4FD638607568327C4FD83A70700AA
:1049C000130620009305100013850700EFF01F80E9
:1049D0009307050063860754035764FD835744FD1E
:1049E000B307F700638E0752035764FD835744FDF6
:1049F000B307F7009387F7FF2322F4FE8327C4FD54
:104A000083A707009387C70193053000138507002C
:104A1000EFF04FF88327C4FD83A7070093870702B1
:104A2000130600019305400013850700EFF00FFA0D
:104A30009307050013870700930710006316F7001C
:104A40000325C4FDEF00004F8327C4FD83A70700A3
:104A5000930600001306100093050000138507005D
:104A6000EFF04FF46F00C0060357C4FE835764FD98
:104A70006378F7028327C4FD83A707009386C700E6
:104A80008357C4FE032784FDB307F70083C70700DD
:104A90009385070013850600EFF0CFE66F00C00195
:104AA0008327C4FD83A707009387C70093050000F1
:104AB00013850700EFF00FE5835784FE93871700F7
:104AC0002314F4FE8357C4FE938717002316F4FEC5
:104AD0008357C4FE032744FE63FAE7008327C4FD1F
:104AE00083D747040357C4FEE360F7F88357C4FE37
:104AF000032744FE631EF7068327C4FD83D74704BC
:104B00000357C4FE6376F7060357C4FE835764FD5C
:104B10006378F7028327C4FD83A707009386870283
:104B20008357C4FE032784FDB307F70083C707003C
:104B30009385070013850600EFF0CFDC6F00C001FE
:104B40008327C4FD83A7070093878702930500008E
:104B500013850700EFF00FDB835784FE9387170060
:104B60002314F4FE8357C4FE938717002316F4FE24
:104B70008327C4FD83A707009306100013061000C7
:104B80009305000013850700EFF0CFE16F00C00D23
:104B90008327C4FD83D74704035784FE637EF7064B
:104BA0008357C4FE032744FE6318F7028327C4FD1E
:104BB00083A70700938687028357C4FE032784FDDB
:104BC000B307F70083C70700938507001385060026
:104BD000EFF04FD36F00C0028327C4FD83A7070007
:104BE0009386C7008357C4FE032784FDB307F700ED
:104BF00083C707009385070013850600EFF08FD069
:104C00008357C4FE938717002316F4FE835784FE50
:104C1000938717002314F4FE8327C4FD83A707009E
:104C200093870702130640009305200013850700B1
:104C3000EFF0CFD993070500639807028327C4FDDF
:104C400083A707009387870013850700EFF00FCC39
:104C50008357E4FE938717002317F4FE835784FEDF
:104C60009387F7FF2314F4FE0357C4FE835764FDB4
:104C7000E360F7F26F00000A8327C4FD83D747047F
:104C8000035784FE6370F7048357C4FE032744FE72
:104C900063FAE7028327C4FD83A707009387C70051
:104CA0009305000013850700EFF0CFC58357C4FEBE
:104CB000938717002316F4FE835784FE938717000B
:104CC0002314F4FE8327C4FD83A7070093870702FC
:104CD000130640009305200013850700EFF00FCF67
:104CE00093070500639807028327C4FD83A7070085
:104CF0009387870013850700EFF04FC18357E4FEC9
:104D0000938717002317F4FE835784FE9387F7FFDA
:104D10002314F4FE0357E4FE835764FDE36EF7F4B7
:104D20006F00800B8327C4FD83D74704035784FE9D
:104D3000637AF7028327C4FD83A707009387C70020
:104D40009305000013850700EFF0CFBB8357C4FE27
:104D5000938717002316F4FE835784FE938717006A
:104D60002314F4FE8327C4FD83A70700938707025B
:104D7000130640009305200013850700EFF00FC5D0
:104D800093070500639A07048327C4FD83A70700E0
:104D90009387870013850700EFF04FB79306050050
:104DA0008357A4FE032704FDB307F70013F7F60F9C
:104DB0002380E7008357A4FE938717002315F4FE92
:104DC0008357E4FE938717002317F4FE835784FE6E
:104DD0009387F7FF2314F4FE8357C4FE032744FE92
:104DE000E3E2E7F46F00800B8327C4FD83D7470419
:104DF000035784FE637AF7028327C4FD83A7070065
:104E0000938787029305000013850700EFF08FAFAB
:104E10008357C4FE938717002316F4FE835784FE3E
:104E2000938717002314F4FE8327C4FD83A707008C
:104E3000938707021306400093052000138507009F
:104E4000EFF0CFB893070500639A07048327C4FDEA
:104E500083A707009387870013850700EFF00FAB48
:104E6000930605008357A4FE032704FDB307F7004C
:104E700013F7F60F2380E7008357A4FE93871700EC
:104E80002315F4FE8357E4FE938717002317F4FEDF
:104E9000835784FE9387F7FF2314F4FE8357C4FEE1
:104EA000032744FEE302F7F46F00C0068327C4FD26
:104EB00083A707009387070213064000930520008D
:104EC00013850700EFF08FB0930705006394070484
:104ED0008327C4FD83A707009387870013850700F6
:104EE000EFF0CFA2930605008357A4FE032704FD2D
:104EF000B307F70013F7F60F2380E7008357A4FEEC
:104F0000938717002315F4FE8357E4FE9387170059
:104F10002317F4FE8357E4FE032744FEE378F7F8F3
:104F2000130000008320C102032481021301010346
:104F300067800000130101FE232E1100232C810045
:104F4000130401022326A4FE8327C4FE83A70700BF
:104F50009306000013061000930500001385070058
:104F6000EFF04FA48327C4FE83A707009387C701F0
:104F70009305300013850700EFF0CFA18327C4FE0F
:104F800083A70700938747009305F00F1385070059
:104F9000EFF04FA08327C4FE83A7070093061000FD
:104FA000130610009305000013850700EFF08F9F94
:104FB000130000008320C1010324810113010102B9
:104FC00067800000130101FD2326110223248102C2
:104FD00013040103232EA4FC232CB4FC9307060026
:104FE0002328D4FCA30BF4FC832704FD2326F4FE22
:104FF000EFF00F8B2324A4FE1306C00693050000D8
:105000000325C4FDEF1090588327C4FD032784FDBA
:1050100023A0E700834774FD139717008327C4FD7F
:1050200023A2E7008327C4FD83A70700930600009F
:10503000130600049305600013850700EFF08F96B8
:105040008327C4FD83A707009306100013060004FE
:105050009305600013850700EFF0CF948327C4FD0C
:1050600003A707008327C4FE93D7270093F71700F1
:1050700093860700130600089305700013050700C8
:10508000EFF04F928327C4FD03A707008327C4FED8
:1050900093D7170093F71700938607001306200095
:1050A0009305100013050700EFF0CF8F8327C4FD91
:1050B00003A707008327C4FE93F717009386070012
:1050C000130610009305000013050700EFF08F8D05
:1050D0008327C4FD83A707001387C7008327C4FD68
:1050E00083A747009385070013050700EFF08F8A19
:1050F0008327C4FD83A707001387C7018327C4FD47
:1051000083A747009385070013050700EFF08F88FA
:10511000032584FEEFE09FFC130000008320C10202
:10512000032481021301010367800000130101FDC4
:10513000232611022324810213040103232EA4FC3D
:1051400093870500232AC4FCA30DF4FC9387060073
:10515000231CF4FC93070700230DF4FCEFE05FF43D
:105160002326A4FE8327C4FD83C7C70063980700D6
:105170008327C4FD130710002386E7008327C4FD9F
:10518000130710002385E7068347B4FD1397170024
:105190008327C4FD23A4E7008327C4FD23A20702BD
:1051A0008327C4FD032744FD23ACE700035784FD98
:1051B0008327C4FD23AEE7008327C4FD23A0070295
:1051C0008327C4FD1307100023AAE7028327C4FD29
:1051D0000347A4FD238AE7008327C4FD03A74705EF
:1051E00093071000631AF7008327C4FD130710000C
:1051F000A384E7066F0000028327C4FD83A707008E
:105200009306100013060002930550001385070053
:10521000EFE05FF98327C4FD03C7870693071000FB
:105220006310F7028327C4FD83A7070093060000DD
:10523000130680009305300013850700EFE09FF60A
:105240008327C4FD83A707009387470013850700C2
:10525000EFE0DFF493070500A305F4FE8347B4FEF7
:1052600093F7F70FA305F4FE0325C4FDEF00D03636
:105270000325C4FEEFE09FE6130000008320C10277
:10528000032481021301010367800000130101FD63
:10529000232611022324810213040103232EA4FCDC
:1052A000232CB4FCEFE0DFDF2326A4FE8327C4FD1C
:1052B000032784FD23ACE7020325C4FEEFE01FE2D1
:1052C0008327C4FD83A747032324F4FE032784FE1A
:1052D00093071000E306F7FE832784FE138507007B
:1052E0008320C102032481021301010367800000AF
:1052F000130101FD2326110223248102130401035B
:10530000232EA4FC232CB4FC8327C4FD83A787038E
:10531000638207068327C4FD83A78703032784FDD1
:105320006370F7028327C4FD03A78703832784FDE7
:105330003307F7408327C4FD23ACE7026F008003E7
:10534000EFE01FD62326A4FE8327C4FD13073000F9
:1053500023AAE7028327C4FD238607008327C4FD11
:10536000A38407060325C4FEEFE05FD78327C4FDAF
:1053700023AC0702130000008320C1020324810232
:105380001301010367800000130101FE232E1100A9
:10539000232C8100130401022326A4FE8327C4FECC
:1053A00083C70706638007028327C4FE83A707001D
:1053B0009306100013064000930520001385070094
:1053C000EFE05FDE130000008320C10103248101B0
:1053D0001301010267800000130101FD2326110261
:1053E000232481022322910213040103232EA4FC0F
:1053F00093071000A307F4FE8327C4FD83A70700CB
:105400009387470013850700EFE05FD993070500F6
:10541000A303F4FE834774FE93F7F70F938787FF88
:105420001307800DE360F70C13972700B7970080F0
:10543000938707E2B307F70083A707006780070099
:105440008327C4FD83A7070093060000130600020C
:105450009305500013850700EFE0DFD48327C4FDD8
:1054600083A70700138787008327C4FD83A78700CE
:105470009385070013050700EFE0DFD18327C4FD04
:1054800083A70700138787008327C4FD83A74702EC
:10549000938607001306100093050000130507000C
:1054A000EFE05FD08327C4FD83A74702639807001E
:1054B0008327C4FD23A007026F00C0008327C4FD1B
:1054C00023A807028327C4FD83C7970663860700C6
:1054D0008327C4FDA38407068327C4FD03C7C70031
:1054E0008327C4FD83C7A706E306F7068327C4FD09
:1054F00003C7A7068327C4FD2386E7006F00900536
:105500008327C4FD83A7070093061000130600023B
:105510009305500013850700EFE0DFC86F005006C9
:105520008327C4FD83A7070093061000130600011C
:105530009305400013850700EFE0DFC68327C4FD15
:105540001307200023AAE7028327C4FD2386070050
:105550000325C4FDEFF05FE36F0090028327C4FDD5
:1055600003A707028327C4FD83A7C7016370F7045D
:105570008327C4FD83A70700138587008327C4FD05
:1055800003A787018327C4FD83A70702138617009B
:105590008326C4FD23A0C602B307F70083C7070014
:1055A00093850700EFE01FBF6F00807D8327C4FD58
:1055B00003C7C700930730006318F7028327C4FDB1
:1055C0001307100023A2E7028327C4FD83A7070067
:1055D0009306100013060002930550001385070080
:1055E000EFE05FBC6F00C0798327C4FD238607000E
:1055F0008327C4FD83C7470193F717002307F4FEF1
:105600008327C4FD0347E4FE2384E7068347E4FEC3
:10561000639607028327C4FD83A707009306100043
:10562000130600019305400013850700EFE09FB7C4
:105630000325C4FDEFF05FD56F0000010325C4FD15
:10564000EF00807BA30704FE8327C4FD23AA070283
:105650006F0000738327C4FD83A707009306100023
:10566000130600019305400013850700EFE09FB388
:105670008327C4FD1307200023AAE7028327C4FD64
:10568000238607000325C4FDEFF01FD06F00406F95
:105690008327C4FD03A7C7029307100063F2E70244
:1056A0008327C4FD83A7070093061000130640005C
:1056B0009305200013850700EFE0DFAE6F00406C1C
:1056C0008327C4FD03A7C702930710006312F702E4
:1056D0008327C4FD83A7070093060000130640003C
:1056E0009305200013850700EFE0DFAB6F004069F2
:1056F0008327C4FD83A7070093061000130640000C
:105700009305200013850700EFE0DFA98327C4FD80
:1057100083A70700930610001306000193054000BD
:1057200013850700EFE01FA88327C4FD23AA070203
:105730008327C4FD238607006F0080648327C4FD90
:1057400083A707009306100013060001930540008D
:1057500013850700EFE01FA58327C4FD1307200072
:1057600023AAE7028327C4FD238607000325C4FD7F
:10577000EFF09FC16F00C0608327C4FD83A70700BF
:10578000938587008327C4FD03A787028327C4FD71
:1057900083A70703138617008326C4FD23A8C60228
:1057A000B304F70013850500EFE05F9F9307050042
:1057B0002380F4008327C4FD03A707038327C4FDC8
:1057C00083A7C7029387F7FF636AF7588327C4FD4F
:1057D00083A70700930600001306400093052000EE
:1057E00013850700EFE01F9C6F0040578327C4FD1F
:1057F00083A70700938687008327C4FD03A787023A
:105800008327C4FD83A70703B304F70013850600AD
:10581000EFE0DF98930705002380F4008327C4FDA1
:1058200083C7470193F717002307F4FE8327C4FDBE
:105830000347E4FE2384E7068347E4FE63960702FA
:105840008327C4FD83A707009306100013060001F9
:105850009305400013850700EFE0DF940325C4FDA6
:10586000EFF09FB26F0000010325C4FDEF00C058A8
:10587000A30704FE8327C4FD238607008327C4FDF6
:1058800023AA07026F00C04F8327C4FD83A7070028
:1058900093061000130640009305200013850700AF
:1058A000EFE05F908327C4FD238607008327C4FDB4
:1058B00023AA07048327C4FD83C797066384074A86
:1058C0008327C4FD83A70700930610001306000278
:1058D0009305500013850700EFE0DF8C6F008048D0
:1058E0008327C4FD13071000A384E7068327C4FDA4
:1058F000130740002386E7008327C4FD23A807047D
:105900008327C4FD23A807008327C4FD83A70700BE
:10591000130600029305500013850700EFE01F8B6C
:1059200093070500638607028327C4FD83A707004A
:10593000930600001306000293055000138507002C
:10594000EFE05F868327C4FD13071000A384E706FA
:105950008327C4FD1307100023AAE7046F00404209
:105960008327C4FD83A78704638C07068327C4FDB0
:1059700003A707058327C4FD83A7C7046372F7063F
:105980008327C4FD83A7070093878700138507003B
:10599000EFE0DF8093070500A306F4FE8327C4FD34
:1059A00003A787048327C4FD83A707051386170071
:1059B0008326C4FD23A8C604B307F7000347D4FE1B
:1059C0002380E7008327C4FD83A70701139787007F
:1059D0008347D4FE3307F7008327C4FD23A8E700DD
:1059E0008327C4FD03A707058327C4FD83A7C70436
:1059F000636EF7368327C4FD83A707009306000074
:105A0000130640009305200013850700EFE08FF98F
:105A10006F00C0358327C4FD03C7C700930740004C
:105A20006312F70C8327C4FD03A707058327C4FD72
:105A300083A78705631AF7008327C4FD03A707011F
:105A40008327C4FD23A2E7048327C4FD83A7C705DA
:105A5000638A07068327C4FD83A6C7058327C4FD81
:105A600003A787048327C4FD83A70705939707012E
:105A700093D7070113860700930507000325C4FD8C
:105A8000E78006002324A4FE832784FE6398070092
:105A90000325C4FDEFF05F8F6F00C0058327C4FDB1
:105AA00083A707009306000013064000930520001B
:105AB00013850700EFE00FEF8327C4FD238007065F
:105AC0006F0040038327C4FD83A7070093061000DF
:105AD000130640009305200013850700EFE08FECCC
