:100000006F00C0006F0000006F00C0029702000088
:10001000938282027390523073500030735040309C
:1000200097910000938101E917A10000130181104D
:100030006F20806D130101F823201100232221007D
:10004000232431002326410023285100232A610064
:10005000232C7100232E8100232091022322A10250
:100060002324B1022326C1022328D102232AE1023C
:10007000232CF102232E0103232011052322210525
:10008000232431052326410523285105232A610510
:10009000232C7105232E8105232091072322A107FC
:1000A0002324B1072326C1072328D107232AE107E8
:1000B000232CF107F3221034232E5106732520340C
:1000C000F325103413060100EF20902B7310153424
:1000D000B72200009382028073A0023083200100C7
:1000E00003214100832181000322C10083220101F9
:1000F00003234101832381010324C10183240102DD
:1001000003254102832581020326C10283260103C0
:1001100003274103832781030328C10383280104A4
:100120000329410483298104032AC104832A010588
:10013000032B4105832B8105032CC105832C01066C
:10014000032D4106832D8106032EC106832E010750
:10015000032F4107832F810713010108730020300B
:10016000130101FE232E1100232C81001304010230
:10017000A30704FE230704FEB7770080938507BA20
:100180001385C124EF305042EF00400E6F0000098C
:10019000EF008045930705002307F4FE8307E4FE84
:1001A000130720036386E70413072003634CF7005B
:1001B000130700036386E702130710036386E70251
:1001C0006F00400513078006638CE70213071007D2
:1001D000638CE702130730036380E7026F0080033C
:1001E000EF0000126F008003EF00C0176F000003E4
:1001F000EF0000236F008002EF00402D6F0000022F
:10020000EF00C0066F00800193071000A307F4FE03
:100210006F00C000EF004002130000008347F4FEAF
:10022000E38807F6130000008320C1010324810145
:100230001301010267800000130101FF2326110052
:100240002324810013040101B7770080938587BCC4
:100250001385C124EF305035130000008320C10006
:10026000032481001301010167800000130101FFD5
:10027000232611002324810013040101B777008095
:10028000938547BE1385C124EF301032B7770080C5
:10029000938547BF1385C124EF301031B7770080B5
:1002A000938547C11385C124EF301030B7770080A4
:1002B000938587C31385C124EF30102FB777008053
:1002C000938587C51385C124EF30102EB777008042
:1002D000938547C71385C124EF30102DB777008071
:1002E000938507C91385C124EF30102C130000003B
:1002F0008320C100032481001301010167800000F5
:10030000130101FF2326110023248100130401019E
:10031000B7770080938507CA1385C124EF30D028B2
:10032000EF00C03693070500638C0700B7770080A5
:100330009385C7CA1385C124EF3010276F00400191
:10034000B7770080938547CB1385C124EF30D02544
:10035000130000008320C100032481001301010168
:1003600067800000130101FB23261104232481046C
:1003700013040105B77700809385C7CB1385C1248B
:10038000EF309022B77700809385C7CC1385C124C6
:10039000EF3090219307C4FB1386070093050000FC
:1003A00013052003EF00403AB77700809385C7CD4F
:1003B0001385C124EF30501F9307C4FB93850700BA
:1003C0001385C124EF30501EB77700809385C7CEC8
:1003D0001385C124EF30501D9307C4FB138607001B
:1003E0009305100013052003EF000036B777008057
:1003F0009385C7CD1385C124EF30101B9307C4FB31
:10040000938507001385C124EF30101A13000000F4
:100410008320C104032481041301010567800000C7
:10042000130101FE232E1100232C8100130401026D
:10043000B77700809385C7CF1385C124EF30D016DE
:1004400013053000EF00004E9307050093F7F70FF8
:100450002306F4FE8347C4FE130784FE93050700BA
:1004600013850700EF00500FB77700809385C7D042
:100470001385C124EF3050139307C4FE9385070002
:100480001385C124EF305012B77700809385C7D110
:100490001385C124EF305011930784FE9385070024
:1004A0001385C124EF305010B7770080938507D3B0
:1004B0001385C124EF30500F130000008320C101C9
:1004C000032481011301010267800000130101FE72
:1004D000232E1100232C810013040102B777008022
:1004E000938547D31385C124EF30100CB777008074
:1004F000938547D41385C124EF30100B13051000EA
:10050000EF00805C930705002326F4FEB777008098
:10051000938547D51385C124EF3010099307C4FE96
:10052000938507001385C124EF301008B77700804A
:10053000938547D61385C124EF3010078327C4FE67
:10054000130704FE9305070013850700EF00900DC5
:10055000930704FE938507001385C124EF30D00470
:10056000B7770080938587D71385C124EF30D003F8
:1005700013054000EF004055930705002326F4FEC5
:10058000B7770080938547D51385C124EF30D0011C
:100590009307C4FE938507001385C124EF30D00074
:1005A000B7770080938547D61385C124EF30C07F8D
:1005B0008327C4FE130704FE930507001385070075
:1005C000EF005006930704FE938507001385C124AE
:1005D000EF30807D130000008320C10103248101DE
:1005E0001301010267800000130101FE232E110098
:1005F000232C810013040102230704FEA30704FE39
:10060000B7770080938587D81385C124EF30C079F0
:100610006F0000039307C4FE1306200093850700B4
:100620001385C124EF304065930705002307F4FECE
:100630008347E4FE6386070093071000A307F4FED8
:100640008347F4FEE38807FCA30604FE9307C4FE79
:10065000938507001385C124EF300075B7770080BC
:10066000938507D91385C124EF3000748347C4FEF6
:100670009397870193D78741138507008320C10192
:10068000032481011301010267800000130101FEB0
:10069000232E1100232C810013040102230704FEE2
:1006A000A30704FEB7770080938587D81385C124FC
:1006B000EF30806F6F0000039307C4FE1306200025
:1006C000938507001385C124EF30005B9307050075
:1006D0002307F4FE8347E4FE6386070093071000B8
:1006E000A307F4FE8347F4FEE38807FCA30604FE99
:1006F0009307C4FE938507001385C124EF30C06AB9
:10070000B7770080938507D91385C124EF30C0697E
:100710000347C4FE9307E0046308F7000347C4FEE1
:100720009307E0066316F700930700006F00800050
:1007300093071000138507008320C1010324810162
:100740001301010267800000130101FD232611023D
:100750002324810213040103930705001387050076
:10076000232CC4FCA30FF4FC93070700230FF4FC15
:10077000A30704FE230704FEA30604FE230604FECB
:10078000130744FE8347F4FD930507001385070014
:10079000EF00805CB7770080938587D91385C124EB
:1007A000EF308060930744FE938507001385C124D2
:1007B000EF30805FB7770080938587DB1385C12496
:1007C000EF30805EB7770080938587DC1385C12486
:1007D000EF30805D6F004012930784FE1306200007
:1007E000938507001385C124EF3000499307050066
:1007F0002306F4FE8347C4FE6386070093071000B8
:10080000A306F4FE8347D4FEE38807FCA30404FE9A
:10081000A30604FE0347F4FE8347F4FD9387F7FF26
:100820006350F70C834784FE938787FF130780018B
:10083000636AF70613972700B7770080938707E46A
:10084000B307F70083A7070067800700B77700802A
:10085000938507D31385C124EF300055930710000B
:100860002307F4FE6F0000098347E4FD6382070855
:10087000930784FE938507001385C124EF30C0528F
:100880008347F4FE032784FDB307F7001307000234
:100890002380E7008347F4FE93871700A307F4FE45
:1008A0006F000005930784FE938507001385C1241C
:1008B000EF30804F834684FE8347F4FE032784FD98
:1008C000B307F70013978601135787412380E7008A
:1008D0008347F4FE93871700A307F4FE6F0080019F
:1008E000130000006F000001130000006F00800083
:1008F00013000000A30604FE8347E4FEE38407F030
:100900008347F4FE032784FDB307F7002380070025
:10091000130000008320C10203248102130101039C
:1009200067800000130101FC232E1102232C810299
:100930001304010493070500A307F4FC232604FE17
:10094000A30504FE930710002322F4FEA30104FE76
:10095000230104FEA30004FEB7770080938587DCA3
:100960001385C124EF3040446F0000149307C4FD89
:1009700013062000938507001385C124EF30C02F94
:1009800093070500A300F4FE834714FE6386070067
:10099000930710002301F4FE834724FEE38807FC3D
:1009A000A30E04FC230104FE0347B4FE8347F4FCBA
:1009B0006374F70C8347C4FD938787FF1307800197
:1009C000636CF70213972700B7770080938747EA95
:1009D000B307F70083A7070067800700B777008099
:1009E000938507D31385C124EF30003C9307100093
:1009F000A301F4FE6F00400B0347C4FD9307F00210
:100A000063F8E7060347C4FD9307900363E2E70634
:100A10009307C4FD938507001385C124EF30C038C8
:100A20008347C4FD938707FD13870700832744FE90
:100A3000B307F7020327C4FEB307F7002326F4FE2B
:100A40008347B4FE93871700A305F4FE032744FEF3
:100A50009307070093972700B387E7009397170042
:100A60002322F4FE6F00C000130000006F00C003DB
:100A7000130000006F0040030347C4FD9307D0003C
:100A80006308F7000347C4FD9307A000631EF70047
:100A9000B7770080938507D31385C124EF30C0302A
:100AA00093071000A301F4FE834734FEE38607EEAC
:100AB0008327C4FE138507008320C1030324810319
:100AC0001301010467800000130101FD23261102B8
:100AD000232481021304010393070500A30FF4FCF0
:100AE000232604FEA30504FE230504FEA30404FE3E
:100AF0008347F4FD9397070193D707019397170056
:100B00002313F4FE231204FE130704FE8347F4FDAF
:100B10009305070013850700EF000024B7770080D6
:100B20009385C7DC1385C124EF300028930704FEAA
:100B3000938507001385C124EF300027B777008025
:100B4000938507DE1385C124EF300026B777008038
:100B5000938547E31385C124EF3000256F00C01D46
:100B6000930744FE13062000938507001385C124D4
:100B7000EF30801093070500A304F4FE834794FE32
:100B80006386070093071000A305F4FE8347B4FEB5
:100B9000E38807FCA30204FEA30504FE034744FE0A
:100BA0009307F00263F8E700034744FE93079003BE
:100BB00063FAE702034744FE9307000663F8E70081
:100BC000034744FE9307600663FEE700034744FEC5
:100BD0009307000463F2E702034744FE93076004AF
:100BE00063ECE700930744FE938507001385C12457
:100BF000EF30801B6F000004034744FE93070002A0
:100C0000631CF700B77700809385C7E31385C12481
:100C1000EF3080196F000002034744FE9307D000B5
:100C2000631AF700B7770080938507D31385C12433
:100C3000EF308017834744FE938767FF1307C00593
:100C4000636AF70E13972700B7770080938787F0C2
:100C5000B307F70083A70700678007008327C4FE58
:100C60006F00400E8327C4FE939747002326F4FEAF
:100C7000834744FE138707008327C4FEB307F700AA
:100C8000938707FD2326F4FE6F00000B8327C4FE25
:100C9000939747002326F4FE8327C4FE9387A7007B
:100CA0002326F4FE6F0040098327C4FE9397470074
:100CB0002326F4FE8327C4FE9387B7002326F4FE81
:100CC0006F0080078327C4FE939747002326F4FE16
:100CD0008327C4FE9387C7002326F4FE6F00C00558
:100CE0008327C4FE939747002326F4FE8327C4FE80
:100CF0009387D7002326F4FE6F0000048327C4FEE9
:100D0000939747002326F4FE8327C4FE9387E700CA
:100D10002326F4FE6F0040028327C4FE939747000A
:100D20002326F4FE8327C4FE9387F7002326F4FED0
:100D30006F008000130000008347A4FEE38807E4EF
:100D40008327C4FE138507008320C1020324810288
:100D50001301010367800000130101FE232E8100AF
:100D600013040102930705002324B4FEA307F4FE35
:100D7000832784FE93873700238007000347F4FE10
:100D80009307A000B377F70293F7F70F9387070352
:100D900013F7F70F832784FE938727001317870124
:100DA000135787412380E7000347F4FE9307A00011
:100DB000B357F70213F7F70F9307A000B377F702C3
:100DC00093F7F70F9387070313F7F70F832784FE33
:100DD0009387170013178701135787412380E70074
:100DE0000347F4FE93074006B357F70213F7F70FD4
:100DF0009307A000B377F70293F7F70F93870703E2
:100E000093F7F70F1397870113578741832784FEC2
:100E10002380E700130000000324C1011301010235
:100E200067800000130101FE232E810013040102DC
:100E30002326A4FE2324B4FE032684FE1306B60054
:100E4000230006000326C4FE1376F60F1376F60081
:100E50001376F60F130606039375F60F032684FE2A
:100E60001306A6009395850193D585412300B6000E
:100E70000326C4FE135646001376F60F1376F600CB
:100E80001376F60F130606039375F60F032684FEFA
:100E9000130696009395850193D585412300B600EE
:100EA0000326C4FE135686001376F60F1376F6005B
:100EB0001376F60F130606039375F60F032684FECA
:100EC000130686009395850193D585412300B600CE
:100ED0000326C4FE1356C6001376F60F1376F600EB
:100EE0001376F60F130606039375F60F032684FE9A
:100EF000130676009395850193D585412300B600AE
:100F00000326C4FE135606011376F60F1376F60079
:100F10001376F60F130606039375F60F032684FE69
:100F2000130666009395850193D585412300B6008D
:100F30000326C4FE135646011376F60F1376F60009
:100F40001376F60F130606039375F60F032684FE39
:100F5000130656009395850193D585412300B6006D
:100F60000326C4FE135686011376F60F1376F60099
:100F70001376F60F130606039375F60F032684FE09
:100F8000130646009395850193D585412300B6004D
:100F90000326C4FE1356C6011376F60F1376F60029
:100FA0001376F60F130606039375F60F032684FED9
:100FB000130636009395850193D585412300B6002D
:100FC0000326C4FE130306009303000013D6F34167
:100FD000930706001356F6411308060093F6F7FF31
:100FE00013770800B3876600138607003336D600F0
:100FF000330877003307060113080700135E084023
:10100000935EF84193070E0013880E0093F7F70FD5
:1010100093F7F70093F7F70F9387070313F7F70F8B
:10102000832784FE9387270013178701135787416F
:101030002380E700832784FE938717001307800728
:101040002380E700832784FE130700032380E70043
:10105000130000000324C101130101026780000096
:10106000130101FE232E81001304010293070500E2
:101070002324B4FEA307F4FE832784FE938747004E
:10108000238007008347F4FE93F7F70093F7F70FE9
:101090009387070313F7F70F832784FE938737009F
:1010A00013178701135787412380E7008347F4FE16
:1010B00093D7470093F7F70F93F7F70093F7F70FDE
:1010C0009387070313F7F70F832784FE938727007F
:1010D00013178701135787412380E700832784FE76
:1010E00093871700130780072380E700832784FE78
:1010F000130700032380E700130000000324C1014D
:101100001301010267800000130101FF2326110073
:101110002324810013040101238E01162386011C60
:10112000378700801307876B23ACE116B7870080F1
:101130009387876B03A7470023A8E11C13060002CF
:10114000B725006013850118EF2010511385011891
:10115000EF209062130000008320C100032481006F
:101160001301010167800000130101FE232E11000D
:10117000232C8100130401022326A4FE2324B4FEA1
:101180002322C4FE93870600A301F4FE8327C4FE36
:1011900003A707008327C4FE83A7470093850700A2
:1011A00013050700EF2050688327C4FE83A70700BC
:1011B000034734FE1317070113570701832644FE24
:1011C00013061000832584FE13850700EF3000020C
:1011D0008327C4FE03A707008327C4FE83A7470015
:1011E0009385070013050700EF201072130000001D
:1011F0008320C101032481011301010267800000E3
:10120000130101FE232E1100232C8100130401027F
:101210002326A4FE2324B4FE930706002320D4FE35
:10122000A303F4FE8327C4FE03A707008327C4FE9D
:1012300083A747009385070013050700EF20D05EC2
:101240008327C4FE83A70700034774FE1316070114
:101250001356060113071000832604FE832584FE1F
:1012600013850700EF2090788327C4FE03A70700AB
:101270008327C4FE83A74700938507001305070053
:10128000EF209068130000008320C1010324810136
:101290001301010267800000130101FE232E1100DB
:1012A000232C810013040102A30704FEB7770080FA
:1012B0009385C7071385C124EF20102FEF00506FCF
:1012C000EFF09FE46F00C008B77700809385C709EF
:1012D0001385C124EF20502DEFF00FB193070500C7
:1012E000A307F4FE8307F4FE938707FD130710049A
:1012F000636CF70413972700B787008093870780F4
:10130000B307F70083A7070067800700EF00506A64
:101310006F000004EF0010746F00800313071000CB
:10132000238EE1166F00C002EF10400A6F004002EA
:10133000EF00907B6F00C001EF0040046F004001A0
:10134000EF0080116F00C000EF10C02D13000000EF
:1013500083C7C117E38A07F6B77700809385C70B69
:101360001385C124EF205024130000008320C10105
:10137000032481011301010267800000130101FEB3
:10138000232E1100232C810013040102A30704FE65
:101390006F008009B77700809385C70D1385C1243E
:1013A000EF209020EF000019EFF00FA49307050045
:1013B000A307F4FE8307F4FE938707FD13071004C9
:1013C0006360F70613972700B7870080938787909D
:1013D000B307F70083A7070067800700EF008015B9
:1013E0006F008004EF0010676F0000041307100007
:1013F000238EE1166F004003EF00507D6F00C002A6
:10140000EF00906E6F004002EF00001E6F00C00101
:10141000EF0000376F004001EF00405C6F00C0003C
:10142000EF1040201300000083C7C117E38407F6C4
:10143000238E0116B77700809385C7071385C124D3
:10144000EF209016130000008320C10103248101C6
:101450001301010267800000130101FE232E110019
:10146000232C810013040102A30704FE6F008009EE
:10147000B77700809385C70D1385C124EF20D01264
:10148000EF00400BEFF04F9693070500A307F4FE23
:101490008307F4FE938707FD130710046360F706C4
:1014A00013972700B7870080938707A1B307F7003A
:1014B00083A7070067800700EF00007C6F008004AF
:1014C000EF0050596F00000413071000238EE1163F
:1014D0006F004003EF00906F6F00C002EF00D0601C
:1014E0006F004002EF0090046F00C001EF00D017C2
:1014F0006F004001EF00102F6F00C000EF1080124E
:101500001300000083C7C117E38407F6238E01167A
:10151000B77700809385C7071385C124EF20D008D3
:10152000130000008320C101032481011301010283
:1015300067800000130101FF23261100232481008E
:1015400013040101B7770080938507111385C12427
:10155000EF209005B7770080938507121385C1248B
:10156000EF209004B7770080938507141385C1247A
:10157000EF209003B7770080938507161385C12469
:10158000EF209002B77700809385C7171385C12499
:10159000EF209001B7770080938547191385C12408
:1015A000EF209000B77700809385C71B1385C12477
:1015B000EF20807FB77700809385C71D1385C124F6
:1015C000EF20807EB77700809385C71F1385C124E5
:1015D000EF20807D130000008320C10003248100E0
:1015E0001301010167800000130101FE232E110089
:1015F000232C810013040102230604FEA30504FE2C
:10160000A30704FEB7770080938547221385C12482
:10161000EF2080796F00000EB777008093858725D3
:101620001385C124EF20407813051000EFF0CFC9D7
:101630009307050013F7F70F2386E11CB7770080A7
:10164000938507271385C124EF200076130510002A
:10165000EFF08FC79307050093F7F70F2306F4FE0B
:10166000B7770080938587281385C124EF20C07346
:1016700083C7C11C130744FE9305070013850700A9
:10168000EFF01F9E930744FE938507001385C12446
:10169000EF208071B77700809385072A1385C124D6
:1016A000EF2080708347C4FE130744FE93050700B4
:1016B00013850700EFF0DF9A930744FE9385070038
:1016C0001385C124EF20406EB77700809385072BE8
:1016D0001385C124EF20406DEFE05FFB9307050009
:1016E00013870700930710006316F7009307100095
:1016F000A307F4FE8347F4FEE38007F283A7811774
:101700009306B4FE1307C4FE1306100093050700EA
:1017100013850700EFF0DFAEB77700809385472B86
:101720001385C124EF204068B77700809385072D8B
:101730001385C124EF2040678347B4FE130744FE9E
:101740009305070013850700EFF09F91930744FE70
:10175000938507001385C124EF200065B7770080CB
:101760009385072E1385C124EF2000641300000029
:101770008320C1010324810113010102678000005D
:10178000130101FE232E1100232C810013040102FA
:10179000A30704FEA30604FE230704FE230604FE9B
:1017A000B77700809385472E1385C124EF20C05F53
:1017B0006F00001AB7770080938587251385C124B1
:1017C000EF20805E13051000EFF00FB093070500C7
:1017D00013F7F70F2386E11CA30704FE6F008008B0
:1017E0008347F4FE9387070393F7F70F2306F4FE6E
:1017F000B7770080938547311385C124EF20C05A05
:101800009307C4FE938507001385C124EF20C059B8
:101810008347F4FE639A0700B77700809385C73249
:101820001385C124EF204058B77700809385473354
:101830001385C124EF20405713051000EFF0CFA807
:10184000130705008347F4FE1377F70F930604FF91
:10185000B387F600238CE7FE8347F4FE93871700D7
:10186000A307F4FE0347F4FE93073000E3FAE7F61C
:10187000B7770080938587281385C124EF20C05255
:1018800083C7C11C130704FE9305070013850700D7
:10189000EFF00FFD930704FE938507001385C12425
:1018A000EF208050B7770080938587331385C1245C
:1018B000EF20804FA30704FE6F0000068347F4FE6D
:1018C000130704FFB307F70083C787FF130704FE5E
:1018D0009305070013850700EFF08FF8B7770080B6
:1018E000938587341385C124EF20004C930704FEB1
:1018F000938507001385C124EF20004BB777008044
:101900009385C7341385C124EF20004A8347F4FE32
:1019100093871700A307F4FE0347F4FE93073000F4
:10192000E3FEE7F8B7770080938507351385C12478
:10193000EF208047EFE09FD593070500138707004E
:10194000930710006316F700930710002307F4FEB7
:101950008347E4FEE38007E683A781179306D4FE5E
:10196000130784FE13064000930507001385070044
:10197000EFF01F89B77700809385472B1385C1242B
:10198000EF208042B77700809385072D1385C1240F
:10199000EF2080418347D4FE130704FE9305070020
:1019A00013850700EFF0CFEB930704FE9385070044
:1019B0001385C124EF20403FB77700809385072E21
:1019C0001385C124EF20403E130000008320C10195
:1019D000032481011301010267800000130101FD4E
:1019E000232611022324810213040103A30704FE0A
:1019F000A30604FEA30304FE230704FE230204FE41
:101A0000B7770080938587351385C124EF20C039CF
:101A1000B77700809385C7381385C124EF20C0387D
:101A200013053000EFE01FF093070500A306F4FE56
:101A30008347D4FE13850700EF40403E930705001F
:101A40002324F4FE6F00001AB77700809385872562
:101A50001385C124EF20403513051000EFF0CF8629
:101A60009307050013F7F70F2386E11CA30704FE75
:101A70006F0080088347F4FE9387070393F7F70FFF
:101A80002302F4FEB7770080938547311385C12484
:101A9000EF208031930744FE938507001385C1240E
:101AA000EF2080308347F4FE639A0700B777008009
:101AB0009385C7321385C124EF20002FB7770080AC
:101AC000938547331385C124EF20002E13051000A2
:101AD000EFE09FFF930605008347F4FE032784FE93
:101AE000B307F70013F7F60F2380E7008347F4FEF0
:101AF00093871700A307F4FE0347F4FE8347D4FE41
:101B0000E36AF7F6B7770080938587281385C124A9
:101B1000EF20802983C7C11C1307C4FD930507006C
:101B200013850700EFF0CFD39307C4FD938507001B
:101B30001385C124EF204027B77700809385873332
:101B40001385C124EF204026A30704FE6F00000682
:101B50008347F4FE032784FEB307F70083C707001B
:101B60001307C4FD9305070013850700EFF04FCF5F
:101B7000B7770080938587341385C124EF20C02276
:101B80009307C4FD938507001385C124EF20C0216E
:101B9000B77700809385C7341385C124EF20C02018
:101BA0008347F4FE93871700A307F4FE0347F4FE70
:101BB0008347D4FEE36EF7F8B77700809385073547
:101BC0001385C124EF20401EEFE05FAC93070500B2
:101BD00013870700930710006316F70093071000A0
:101BE0002307F4FE8347E4FEE38007E683A781171B
:101BF000930674FE0347D4FE13060700832584FE74
:101C000013850700EFF0CFDFB77700809385472B70
:101C10001385C124EF204019B77700809385072DE5
:101C20001385C124EF204018834774FE1307C4FDB9
:101C30009305070013850700EFF08FC29307C4FDDB
:101C4000938507001385C124EF200016B777008025
:101C50009385072E1385C124EF200015032584FEEC
:101C6000EF40C01C130000008320C1020324810246
:101C70001301010367800000130101FF23261100F7
:101C80002324810013040101B77700809385071195
:101C90001385C124EF204011B77700809385071288
:101CA0001385C124EF204010B77700809385071477
:101CB0001385C124EF20400FB77700809385873BC1
:101CC0001385C124EF20400EB77700809385473DF0
:101CD0001385C124EF20400DB77700809385C73E60
:101CE0001385C124EF20400CB77700809385C71B74
:101CF0001385C124EF20400BB77700809385C71D63
:101D00001385C124EF20400AB77700809385C71F51
:101D10001385C124EF204009130000008320C10077
:101D2000032481001301010167800000130101FEFB
:101D3000232E1100232C810013040102230604FE2C
:101D4000A30704FEB7770080938507411385C1245C
:101D5000EF2080056F008008B777008093854744A7
:101D60001385C124EF20400413051000EFE0DFD5F8
:101D70009307050013F7F70F2386E11CB777008060
:101D80009385C7451385C124EF20000283C7C11C7A
:101D9000130744FE9305070013850700EFF04FACCF
:101DA000930744FE938507001385C124EF10D07F6D
:101DB000B77700809385072B1385C124EF10D07E61
:101DC000EFE0DF8C930705001387070093071000EF
:101DD0006316F70093071000A307F4FE8347F4FE91
:101DE000E38C07F603A781179307C4FE9306100040
:101DF000138607009385C11C13050700EFF0CFB6CB
:101E0000B7770080938547471385C124EF10D079B9
:101E1000B7770080938507491385C124EF10D078E8
:101E20008347C4FE130744FE93050700138507008C
:101E3000EFF00FA3930744FE938507001385C12499
:101E4000EF109076B77700809385072E1385C12415
:101E5000EF109075130000008320C101032481015D
:101E60001301010267800000130101FE232E1100FF
:101E7000232C810013040102A30704FE230704FEA0
:101E8000230604FEB77700809385074A1385C12493
:101E9000EF1090716F008007B777008093854744FB
:101EA0001385C124EF10507013051000EFE0DFC15F
:101EB0009307050013F7F70F2386E11CB77700801F
:101EC000938587281385C124EF10106E83C7C11C2A
:101ED000130704FE9305070013850700EFF04F98E2
:101EE000B77700809385074D1385C124EF10D06B21
:101EF000EFE0CFF993070500138707009307100061
:101F00006316F700930710002307F4FE8347E4FEEF
:101F1000E38407F803A78117930784FE9306400024
:101F2000138607009385C11C13050700EFF0CFA3AC
:101F3000B77700809385472B1385C124EF10D066B7
:101F4000B77700809385C74D1385C124EF10D06506
:101F5000A30704FE6F000006B777008093858734DF
:101F60001385C124EF1050648347F4FE130704FF68
:101F7000B307F70083C787FF130704FE9305070025
:101F800013850700EFF0CF8D930704FE93850700BC
:101F90001385C124EF105061B77700809385C73453
:101FA0001385C124EF1050608347F4FE9387170018
:101FB000A307F4FE0347F4FE93073000E3FEE7F8BF
:101FC000B77700809385C74E1385C124EF10D05D8D
:101FD000130000008320C1010324810113010102C9
:101FE00067800000130101FD2326110223248102D2
:101FF00013040103A30704FEA30604FE230704FE43
:10200000230204FEB7770080938587351385C124AA
:10201000EF109059B77700809385C7381385C12496
:10202000EF10905813053000EFE0DF8F93070500A5
:10203000A306F4FE8347D4FE13850700EF30105E3D
:10204000930705002324F4FE6F008008B777008013
:10205000938587251385C124EF10105513051000B3
:10206000EFE09FA69307050013F7F70F2386E11C07
:10207000B7770080938587281385C124EF10D0524D
:1020800083C7C11C1307C4FD930507001385070010
:10209000EFE01FFD9307C4FD938507001385C1245E
:1020A000EF109050B77700809385074D1385C124BA
:1020B000EF10904FEFE08FDD9307050013870700C7
:1020C000930710006316F700930710002307F4FE30
:1020D0008347E4FEE38C07F603A781178347D4FE0A
:1020E00093860700032684FE9385C11C1305070011
:1020F000EFF08F87B77700809385472B1385C12436
:10210000EF10904AB77700809385C74D1385C1249F
:10211000EF109049A30704FE6F000006B777008018
:10212000938587341385C124EF1010488347F4FE4C
:10213000032784FEB307F70083C707001307C4FD16
:102140009305070013850700EFE09FF19307C4FD97
:10215000938507001385C124EF101045B7770080E1
:102160009385C7341385C124EF1010448347F4FED0
:1021700093871700A307F4FE0347F4FE930730008C
:10218000E3FEE7F8B77700809385C74E1385C12437
:10219000EF109041032584FEEF30504913000000FA
:1021A0008320C10203248102130101036780000020
:1021B000130101FF232611002324810013040101D0
:1021C000B7770080938507111385C124EF10D03DA8
:1021D000B7770080938507121385C124EF10D03C98
:1021E000B7770080938507141385C124EF10D03B87
:1021F000B77700809385074F1385C124EF10D03A3D
:10220000B77700809385C7501385C124EF10D0396C
:10221000B77700809385C71B1385C124EF10D03892
:10222000B77700809385C71D1385C124EF10D03781
:10223000B7770080938587521385C124EF10D0367D
:10224000130000008320C100032481001301010159
:1022500067800000130101FF232611002324810061
:1022600013040101B7770080938587541385C12437
:10227000EF109033B77700809385C7551385C1243D
:10228000EF109032B77700809385C7561385C1242D
:10229000EF109031B7770080938547581385C1249C
:1022A000EF109030B77700809385C7591385C1240C
:1022B000EF10902FB77700809385875A1385C1243C
:1022C000EF10902EB77700809385C75B1385C124EC
:1022D000EF10902D130000008320C1000324810023
:1022E0001301010167800000130101FF2326110083
:1022F0002324810013040101B77700809385475D93
:102300001385C124EF10502A83A7011D1307500025
:10231000636AF70813972700B7870080938787B110
:10232000B307F70083A7070067800700B77700802F
:102330009385875E1385C124EF1010276F00C007B7
:10234000B77700809385075F1385C124EF10D025F0
:102350006F008006B7770080938547601385C1249E
:10236000EF1090246F004005B77700809385876158
:102370001385C124EF1050236F000004B77700804D
:10238000938507621385C124EF1010226F00C002ED
:10239000B7770080938507631385C124EF10D020A1
:1023A0006F008001B7770080938507641385C1248F
:1023B000EF10901F13000000130000008320C100E5
:1023C000032481001301010167800000130101FE55
:1023D000232E1100232C810013040102A30704FE05
:1023E000230704FEB77700809385C7641385C12453
:1023F000EF10901BB7770080938547681385C12441
:10240000EF10901AB77700809385076B1385C1246E
:10241000EF109019EFF01FE46F00001FB7770080F6
:102420009385476E1385C124EF101018EFE0CF9B02
:1024300093070500A306F4FE8347D4FE938707FDA8
:102440002306F4FE8307D4FE13078006638CE7009F
:10245000130710076380E702130740066388E7004D
:102460006F000003EFF01FDF6F004003EFF0DFE7C6
:102470006F00C002B77700809385476F1385C12432
:10248000EF10901293071000A307F4FE6F000001F5
:10249000930710002307F4FE130000008347E4FEB7
:1024A0006382071693071000A307F4FE8347C4FE58
:1024B00013075000636AF71213972700B78700804D
:1024C000938707B3B307F70083A707006780070068
:1024D000B77700809385C7701385C124EF10D00CA7
:1024E000378700801307076B23ACE116B78700809E
:1024F0009387076B03A7470023A8E11CB7770080E9
:10250000938587731385C124EF10100A6F00C00FE5
:10251000378700801307876B23ACE116B7870080ED
:102520009387876B03A7470023A8E11CB777008038
:10253000938587741385C124EF1010076F00C00CBA
:10254000378700801307076C23ACE116B78700803C
:102550009387076C03A7470023A8E11CB777008087
:10256000938547761385C124EF1010046F00C009CE
:102570001387818123ACE1169387818103A74700EC
:1025800023A8E11CB7770080938507781385C124C1
:10259000EF1090016F0040071387018223ACE11612
:1025A0009387018203A7470023A8E11CB777008027
:1025B000938507791385C124EF10007F6F00C00455
:1025C0001387818223ACE1169387818203A747009A
:1025D00023A8E11CB77700809385877A1385C124EF
:1025E000EF10807C6F004002B77700809385477CB6
:1025F0001385C124EF10407BA30704FE230704FECC
:102600006F008000130000008347F4FEE38807E0BA
:10261000130000008320C101032481011301010282
:1026200067800000130101FF23261100232481008D
:1026300013040101B77700809385477E1385C12479
:10264000EF108076130000008320C1000324810076
:102650001301010167800000130101FE232E810098
:10266000130401022326A4FE2324B4FE2322C4FE65
:102670006F00C0028327C4FE03A70700832784FEE0
:1026800023A0E7008327C4FE938747002326F4FE98
:10269000832784FE938747002324F4FE032784FEC8
:1026A000832744FEE3F8E7FC130000000324C10184
:1026B0001301010267800000130101FD232681023E
:1026C00013040103232EA4FC232CB4FC8327C4FD94
:1026D0002326F4FE6F0080018327C4FE23A0070099
:1026E0008327C4FE938747002326F4FE0327C4FEF6
:1026F000832784FDE3F2E7FE130000000324C102F8
:102700001301010367800000130101FE232E110055
:10271000232C810013040102B7870080938787B4BC
:102720002326F4FE8327C4FE2320F4FE232204FE86
:10273000232404FE13860184B78700809385076BEA
:10274000B78700801385076BEFF01FF11386010F29
:102750009385018413850184EFF01FF093850111A7
:102760001385010FEFF05FF59385012813850111A3
:10277000EFF09FF4930704FE938507001305100004
:10278000EF304032130000008320C1010324810197
:102790001301010267800000130101FF232681005D
:1027A00013040101130000000324C10013010101FF
:1027B00067800000130101FD232681021304010339
:1027C000232EA4FCF32740F12326F4FE8327C4FE26
:1027D0002324F4FE370700408327C4FD93D7570016
:1027E000832684FE93965600B386F600B717000042
:1027F00093870780B387F60093972700B307F70006
:1028000083A707002322F4FE8327C4FD93F7F70173
:1028100013071000B317F70093C7F7FF032744FE11
:10282000B377F7002322F4FE370700408327C4FD67
:1028300093D75700832684FE93965600B386F600FE
:10284000B717000093870780B387F6009397270098
:10285000B307F700032744FE23A0E700130000009E
:102860000324C1021301010367800000130101FE6C
:10287000232E810013040102F32740F12326F4FEE6
:102880008327C4FE2324F4FE37070040832784FEF9
:10289000938707209397C700B307F70083A74700E4
:1028A000138507000324C1011301010267800000A2
:1028B000130101FD2326810213040103232EA4FC2E
:1028C000F32740F12326F4FE8327C4FE2324F4FEDD
:1028D00037070040832784FE938707209397C7001C
:1028E000B307F7000327C4FD23A2E700130000008D
:1028F0000324C1021301010367800000130101FEDC
:10290000232E81001304010293070008F3B7073058
:102910002326F4FEF37704302324F4FE1300000092
:102920000324C1011301010267800000130101FEAD
:10293000232E810013040102F36704302326F4FEE2
:10294000130000000324C10113010102678000008D
:10295000130101FD23261102232481021304010324
:10296000232EA4FC130710002326E4FE8326C4FDB7
:102970001307400633D7E602930707001308000049
:1029800023A8F10E23AA010F83A6010F03A7410F6D
:1029900093870600B3E7E70063840708F32740F155
:1029A0002324F4FE832784FE2322F4FE3707004409
:1029B000B7C70000B307F70003A8C7FF83A787FFC7
:1029C00083A5010F03A6410F37050044B386B70066
:1029D00093880600B3B8F8003307C800B387E8004F
:1029E000138707009387060013080700832644FE19
:1029F00037170000130707803387E60013173700E7
:102A00003307E5002320F70023220701930700087E
:102A1000F3A747302320F4FEEFF05FF1232604FEF6
:102A20008327C4FE138507008320C102032481028B
:102A30001301010367800000130101FE232E110022
:102A4000232C81001304010293070008F3B74730D9
:102A50002326F4FEEF00506737070044B7C7000095
:102A6000B307F70003A8C7FF83A787FF83A5010F5C
:102A700003A6410F37050044732740F12324E4FEE9
:102A8000832884FEB386B700138306003333F30034
:102A90003307C800B307E3001387070093870600D6
:102AA0001308070037170000130707803387E80073
:102AB000131737003307E5002320F700232207010F
:102AC00093070008F3A747302322F4FE1300000009
:102AD0008320C101032481011301010267800000EA
:102AE000130101FE232E1100232C81001304010287
:102AF000EFF0DFD72326A4FEA30504FEB7870080EE
:102B00000327C4FE131727009387076FB307F70047
:102B100083A70700E780070093070500A305F4FEDD
:102B20000325C4FEEFF0DFD80347B4FE930710007F
:102B30006316F7000325C4FEEFF0DFC713000000A3
:102B40008320C10103248101130101026780000079
:102B5000130101FF23261100232481001304010126
:102B6000EF00C011B707004423A0070013000000C6
:102B70008320C1000324810013010101678000004C
:102B8000130101FB232611042324810413040105EE
:102B9000232EA4FA232CB4FA8327C4FB63D20702A2
:102BA0000327C4FBB707008093C7F7FF3377F7000D
:102BB0009307B0006316F700EFF09FF26F00800AF2
:102BC0008327C4FB63D207020327C4FBB707008037
:102BD00093C7F7FF3377F700930770006316F7008A
:102BE000EFF09FE56F0000088327C4FB63D2070264
:102BF0000327C4FBB707008093C7F7FF3377F700BD
:102C0000930730006316F700EFF09FF46F00800524
:102C1000F32740342326F4FE8327C4FE2324F4FE46
:102C2000F32730342322F4FE832744FE2320F4FECE
:102C3000F3275030232EF4FC8327C4FD232CF4FC0F
:102C4000F3270034232AF4FC832744FD2328F4FCD3
:102C5000F32700302326F4FC8327C4FC2324F4FC50
:102C600073001000832784FB138507008320C104B1
:102C7000032481041301010567800000130101FF93
:102C80002326110023248100130401011305A00051
:102C9000EF00403C130101FF2326810013040101D2
:102CA00093070000138507000324C10013010101ED
:102CB00067800000130101FF232681001304010136
:102CC00093070000138507000324C10013010101CD
:102CD00067800000130101FF232681001304010116
:102CE00093070000138507000324C10013010101AD
:102CF00067800000130101FF2326810013040101F6
:102D000093070000138507000324C100130101018C
:102D100067800000130101FF2326810013040101D5
:102D200093070000138507000324C100130101016C
:102D300067800000130101FF2326810013040101B5
:102D400093070000138507000324C100130101014C
:102D500067800000130101FF232681001304010195
:102D600093070000138507000324C100130101012C
:102D700067800000130101FF232681001304010175
:102D800093070000138507000324C100130101010C
:102D900067800000130101FF232681001304010155
:102DA00093070000138507000324C10013010101EC
:102DB00067800000130101FF232681001304010135
:102DC00093070000138507000324C10013010101CC
:102DD00067800000130101FF232681001304010115
:102DE00093070000138507000324C10013010101AC
:102DF00067800000130101FF2326810013040101F5
:102E000093070000138507000324C100130101018B
:102E100067800000130101FF2326810013040101D4
:102E200093070000138507000324C100130101016B
:102E300067800000130101FF2326810013040101B4
:102E400093070000138507000324C100130101014B
:102E500067800000130101FF232681001304010194
:102E600093070000138507000324C100130101012B
:102E700067800000130101FF232681001304010174
:102E800093070000138507000324C100130101010B
:102E900067800000130101FF232681001304010154
:102EA00093070000138507000324C10013010101EB
:102EB00067800000130101FF232681001304010134
:102EC00093070000138507000324C10013010101CB
:102ED00067800000130101FF232681001304010114
:102EE00093070000138507000324C10013010101AB
:102EF00067800000130101FF2326810013040101F4
:102F000093070000138507000324C100130101018A
:102F100067800000130101FF2326810013040101D3
:102F200093070000138507000324C100130101016A
:102F300067800000130101FF2326810013040101B3
:102F400093070000138507000324C100130101014A
:102F500067800000130101FF232681001304010193
:102F600093070000138507000324C100130101012A
:102F700067800000130101FF232681001304010173
:102F800093070000138507000324C100130101010A
:102F900067800000130101FF232681001304010153
:102FA00093070000138507000324C10013010101EA
:102FB00067800000130101FF232681001304010133
:102FC00093070000138507000324C10013010101CA
:102FD00067800000130101FF232681001304010113
:102FE00093070000138507000324C10013010101AA
:102FF00067800000130101FF2326810013040101F3
:1030000093070000138507000324C1001301010189
:1030100067800000130101FF2326810013040101D2
:1030200093070000138507000324C1001301010169
:1030300067800000130101FF2326810013040101B2
:1030400093070000138507000324C1001301010149
:1030500067800000130101FE232E8100130401028A
:103060002326A4FE6F000000130101FE232E810021
:10307000130401022326A4FE03A701838327C4FEB1
:103080003307F70093870128636EF70003A70183D6
:103090008327C4FE3307F700B7A700809387079301
:1030A00063F6E7009307F0FF6F00400203A7018378
:1030B0008327C4FE3307F70023A8E18203A7018317
:1030C0008327C4FEB307F040B307F700138507005A
:1030D0000324C1011301010267800000130101FDF7
:1030E000232611022324810213040103232EA4FCAE
:1030F000B7870080938507B51385C124EF00D04AB8
:10310000EFF0CFAC930710002326F4FE6F00C00150
:103110008327C4FD93971700232EF4FC8327C4FE56
:10312000938717002326F4FE0327C4FE930780002D
:10313000E3D0E7FE130000008320C10203248102D4
:103140001301010367800000130101FF2326110012
:10315000232481001304010113050000EFF01FF880
:10316000130000008320C10003248100130101012A
:1031700067800000130101FE232E81001304010269
:10318000F32740F12324F4FE832784FE2322F4FE58
:10319000232604FE6F00C00337070040832744FE48
:1031A000939657008327C4FEB386F600B717000036
:1031B00093870780B387F60093972700B307F7003C
:1031C00023A007008327C4FE938717002326F4FE5D
:1031D0008327C4FEE38207FC232604FE6F0040021F
:1031E000370700408327C4FE93972700B307F700F3
:1031F00023A007008327C4FE938717002326F4FE2D
:103200000327C4FE9307E001E3FCE7FC3707004017
:10321000832744FE938707209397C700B307F700DF
:1032200023A00700B717000093870780F3A7473054
:103230002320F4FE130000000324C1011301010246
:1032400067800000130101FD23268102130401039E
:10325000232EA4FCF32740F12326F4FE8327C4FE8B
:103260002324F4FE370700408327C4FD93D757007B
:10327000832684FE93965600B386F600B7170000A7
:1032800093870780B387F60093972700B307F7006B
:1032900083A707002322F4FE8327C4FD93F7F701D9
:1032A00013071000B317F700032744FEB367F700B6
:1032B0002322F4FE370700408327C4FD93D757002D
:1032C000832684FE93965600B386F600B717000057
:1032D00093870780B387F60093972700B307F7001B
:1032E000032744FE23A0E700130000000324C102CB
:1032F0001301010367800000130101FE232E8100EA
:10330000130401022326A4FE2324B4FE3707004041
:103310008327C4FE93972700B307F700032784FE93
:1033200023A0E700130000000324C10113010102E0
:1033300067800000130101FE232E1100232C810061
:1033400013040102230704FEEFF0DFE293060000FE
:1033500013061002B73500601385811DEF10404E33
:10336000B7B74F031385C75AEFF08FDE93051000F0
:1033700013055000EFF05FF813055000EFF09FECDD
:10338000EF00805CEF008024EF008031A30704FE93
:103390006F0000030347F4FE93870111B307F700A2
:1033A000238007000347F4FE93870113B307F70058
:1033B000238007008347F4FE93871700A307F4FEDA
:1033C0000347F4FE9307F001E3F6E7FC930744FE9E
:1033D00013061000938507001385C124EF00D00960
:1033E000930705002307F4FE8347E4FE6380071478
:1033F000834744FE130710036388E7001307400365
:103400006380E7106F000011B7870080938587B64F
:103410001385C124EF005019EF00C0309307050059
:1034200013870700238CE10E83C7810F13860700E3
:103430009385011313050003EF00C0112324A4FE9C
:10344000832784FE639A070483C7810F639C070068
:10345000B7870080938547B81385C124EF00D01447
:103460006F004002B7870080938547BA1385C12457
:10347000EF009013B7870080938587BC1385C12424
:10348000EF009012B78700809385C7BC1385C124D5
:10349000EF0090116F004006032784FE9307200081
:1034A000631CF700B7870080938507C21385C1248A
:1034B000EF00900F6F004003032784FE9307300056
:1034C000631CF700B7870080938587C31385C124E9
:1034D000EF00900D6F004001B7870080938507C50E
:1034E0001385C124EF00500CB7870080938507C770
:1034F0001385C124EF00500BEF0040316F004003F3
:10350000B7870080938547CC1385C124EF00D0098D
:103510006F000002B78700809385C7CE1385C12452
:10352000EF009008EF00C0176F008000130000004C
:10353000034744FE93074003E31AF7E893070000AC
:10354000138507008320C1010324810113010102B7
:1035500067800000130101FD23261102232481024C
:103560001304010393070500232CB4FC1307060082
:10357000A30FF4FC93070700230FF4FC8347E4FD3B
:103580009396070193D606018347F4FD13070000C5
:10359000032684FD938507001385811DEF10C0402D
:1035A000B7170000938587BB1385811DEF10C055A9
:1035B0002326A4FE8327C4FE138507008320C102AF
:1035C000032481021301010367800000130101FF3E
:1035D000232611002324810013040101B7870080F2
:1035E000938507D11385C124EF00007CB787008045
:1035F000938547D61385C124EF00007BB7870080F1
:10360000938587DB1385C124EF00007AB78700809C
:103610009385C7E01385C124EF000079B787008048
:10362000938547E51385C124EF000078B7870080B4
:10363000938507C71385C124EF000077B787008003
:10364000938587EA1385C124EF000076B787008051
:103650009385C7EF1385C124EF000075B7870080FD
:10366000938547F41385C124EF000074B787008069
:10367000938547F91385C124EF000073B787008055
:103680009385C7BC1385C124EF00007213000000AE
:103690008320C10003248100130101016780000021
:1036A000130101FF232611002324810013040101CB
:1036B000B7870080938587FE1385C124EF00C06E15
:1036C000B78700809385C7031385C124EF00C06DC1
:1036D000B7870080938507081385C124EF00C06C6D
:1036E000B78700809385470C1385C124EF00C06B1A
:1036F000B7870080938587101385C124EF00C06AC7
:10370000B78700809385C7BC1385C124EF00C069CB
:10371000130000008320C100032481001301010174
:1037200067800000130101FE232E1100232C81006D
:1037300013040102A30704FE230704FEA30604FEEC
:10374000B7870080938587131385C124EF00C06578
:10375000230704FE6F0080089307C4FE13061000C1
:10376000938507001385C124EF00005193070500DE
:10377000A306F4FE8347D4FE638207069307C4FEC4
:1037800013061000938507001385C124EF008043C2
:103790000347C4FE9307D0006318F7009307100097
:1037A000A307F4FE6F0080038346E4FE0347C4FED4
:1037B00093870113B387F6002380E7008347E4FE75
:1037C000938717002307F4FE0347E4FE93070002E4
:1037D0006316F70093071000A307F4FE8347F4FE77
:1037E000E38C07F6B7870080938587BC1385C124D7
:1037F000EF00805B8347E4FE138507008320C1014F
:10380000032481011301010267800000130101FC00
:10381000232E1102232C810213040104B787008098
:1038200083A88716138787160328470013878716F0
:1038300003258700138787168325C70013878716FC
:1038400003260701138787168326470113878716E8
:1038500003278701232614FD232804FD232AA4FC23
:10386000232CB4FC232EC4FC2320D4FE2322E4FE0C
:103870009387871683C7C7012304F4FE9307C4FC0C
:103880001306D001938507001385C124EF00803310
:103890009307B4FE13061000938507001385C12417
:1038A000EF00803D2326A4FE8327C4FEE38207FEAB
:1038B000EFF01FDF130000008320C1030324810306
:1038C0001301010467800000130101FF232611008A
:1038D00023248100130401019305A0001385811D99
:1038E000EF10C028130000008320C10003248100D2
:1038F0001301010167800000130101FF232611005D
:1039000023248100130401011385811DEF108034ED
:1039100093070000138507008320C1000324810062
:103920001301010167800000130101FF23268100BC
:103930001304010193070000138507000324C1004D
:103940001301010167800000130101FF232611000C
:103950002324810013040101EFE05FFD1300000048
:103960008320C1000324810013010101678000004E
:10397000130101FE232E1100232C810013040102E8
:10398000F32700302326F4FE8327C4FE2324F4FE0D
:10399000EFE0DFF6832784FE138507008320C10153
:1039A000032481011301010267800000130101FE5D
:1039B000232E8100130401022326A4FE8327C4FEC4
:1039C00073900730130000000324C10113010102AA
:1039D000678000002320B5006780000003250500F4
:1039E00067800000138E0600331EBE00337ECE00BB
:1039F000032305009303060093C3F3FF337373009F
:103A00003363C301232065006780000003250500A0
:103A10003375C5003355B500678000002310B5002D
:103A2000678000000315050067800000138E060004
:103A3000331EBE00337ECE00031305009303060041
:103A400093C3F3FF337373003363C3012310650023
:103A500067800000031505003375C5003355B500B8
:103A6000678000002300B5006780000003050500A3
:103A700067800000138E0600331EBE00337ECE002A
:103A8000030305009303060093C3F3FF337373002E
:103A90003363C30123006500678000000305050050
:103AA0003375C5003355B50067800000130101FD73
:103AB000232611022324810213040103232EA4FCD4
:103AC000232CB4FC9307060013870600231BF4FC89
:103AD00093070700A30AF4FC8327C4FD638A070C3D
:103AE000034754FD9307700063E4E70C035764FD3C
:103AF000B7270000637EF70A832784FD13878700BA
:103B0000835764FD93F7F70F9385070013050700AC
:103B1000EFF05FF5832784FD9386C700034754FDCC
:103B2000835764FD93D7574093F7877FB367F700B8
:103B30009385070013850600EFF0DFF28327C4FDAD
:103B4000032784FD23A0E7008327C4FD83A7070084
:103B50009387070113850700EFF05FF193070500D6
:103B600093F72700A307F4FE6F0080038327C4FDAB
:103B700083A707009387470013850700EFF01FEF27
:103B80008327C4FD83A707009387070113850700D8
:103B9000EFF0DFED9307050093F72700A307F4FE8E
:103BA0008347F4FEE39407FC8327C4FD23820700C8
:103BB000130000008320C1020324810213010103CA
:103BC00067800000130101FD2326110223248102D6
:103BD00013040103232EA4FC232CB4FC232AC4FCCD
:103BE0008327C4FD63800708832784FD638C070651
:103BF000832744FD63880706232604FE6F00C00563
:103C00008327C4FD83A70700938707011385070057
:103C1000EFF0DFE59307050093F71700A305F4FE27
:103C20008347B4FEE38E07FC8327C4FD83A6070009
:103C3000032784FD8327C4FEB307F70083C707006B
:103C40009385070013850600EFF0DFE18327C4FEAC
:103C5000938717002326F4FE0327C4FE832744FD21
:103C6000E360F7FA130000008320C10203248102FD
:103C70001301010367800000130101FD23261102D7
:103C8000232481022322910213040103232EA4FC86
:103C9000232CB4FC232AC4FC232404FE8327C4FD64
:103CA0006386070E832784FD6382070E832744FD06
:103CB000638E070C232404FE8327C4FD83A707001B
:103CC0009387070113850700EFF05FDA930705007C
:103CD000A303F4FE8327C4FD03C74700834774FE94
:103CE000B367F70013F7F70F8327C4FD2382E700BC
:103CF000834774FE93F72700A307F4FE6F00C00705
:103D00008327C4FD83A7070093864700032784FD0C
:103D1000832784FEB304F70013850600EFF01FD558
:103D2000930705002380F400832784FE9387170000
:103D30002324F4FE8327C4FD83A70700938707018C
:103D400013850700EFF09FD293070500A303F4FE4D
:103D50008327C4FD03C74700834774FEB367F7009A
:103D600013F7F70F8327C4FD2382E700834774FE10
:103D700093F72700A307F4FE8347F4FE6388070048
:103D8000032784FE832744FDE36CF7F6832784FE34
:103D9000138507008320C10203248102832441028A
:103DA0001301010367800000130101FD23261102A6
:103DB0002324810213040103232EA4FC232CB4FC2E
:103DC0008327C4FD63800708832784FD638C07066F
:103DD000232604FE6F00C0058327C4FD83A70700C8
:103DE0009387070113850700EFF05FC8930705006D
:103DF00093F71700A305F4FE8347B4FEE38E07FC98
:103E00008327C4FD83A60700032784FD8327C4FE00
:103E1000B307F70083C707009385070013850600E3
:103E2000EFF05FC48327C4FE938717002326F4FEB8
:103E3000032784FD8327C4FEB307F70083C7070069
:103E4000E39C07F8130000008320C10203248102D1
:103E50001301010367800000130101FE232E1100EE
:103E6000232C8100130401022326A4FE2324B4FE84
:103E7000930706002313F4FE8327C4FE6384070E12
:103E8000832784FE6380070E1306C0049305000099
:103E90000325C4FEEF2040778327C4FE032784FE5A
:103EA00023A0E700035764FE9307000263EEE700D8
:103EB000835764FE638A07008327C4FE035764FEAA
:103EC0002392E7046F0000018327C4FE130710004C
:103ED0002392E7048327C4FE83A70700930600000C
:103EE000130610009305000013850700EFF09FB83C
:103EF0008327C4FE83A7070093874702930500002A
:103F000013850700EFF01FB68327C4FE83A70700C1
:103F10009387C7019305300013850700EFF09FB426
:103F20008327C4FE83A70700938747009305F00FFC
:103F300013850700EFF01FB38327C4FE83A7070094
:103F4000938787019305000013850700EFF09FB169
:103F50008327C4FE83A7070093053000138507005D
:103F6000EFF05FB0130000008320C1010324810142
:103F70001301010267800000130101FE232E1100CE
:103F8000232C8100130401022326A4FE8327C4FEF0
:103F9000638207088327C4FE83A7070093060000F7
:103FA000130610009305000013850700EFF09FAC87
:103FB0008327C4FE23A407048327C4FE83A7070026
:103FC0009387C7019305300013850700EFF09FA981
:103FD0008327C4FE83A70700938747009305F00F4C
:103FE00013850700EFF01FA88327C4FE83A70700EF
:103FF000938787019305000013850700EFF09FA6C4
:104000008327C4FE83A707009305300013850700AC
:10401000EFF05FA5130000008320C101032481019C
:104020001301010267800000130101FD2326110224
:104030002324810213040103232EA4FC232CB4FCAB
:10404000232604FE8327C4FD6386070A032784FD15
:104050009307700063E0E70A8327C4FD83A7070086
:10406000130620009305100013850700EFF01FA32F
:1040700093070500638007088327C4FD83A7070013
:10408000938707021306000193054000138507007C
:10409000EFF0DFA0930705001387070093071000D8
:1040A0006316F7000325C4FDEF0080708327C4FD6D
:1040B00083A707009387470213850700EFF01F9B34
:1040C0009307050093860700832784FD13071000DC
:1040D000B317F700B3E7F6002326F4FE8327C4FDE9
:1040E00083A70700938747028325C4FE1385070033
:1040F000EFF05F97130000008320C10203248102C8
:104100001301010367800000130101FD2326110242
:104110002324810213040103232EA4FC232CB4FCCA
:10412000232604FE8327C4FD6388070A032784FD32
:104130009307700063E2E70A8327C4FD83A70700A3
:10414000130620009305100013850700EFF01F955C
:1041500093070500638207088327C4FD83A7070030
:10416000938707021306000193054000138507009B
:10417000EFF0DF9293070500138707009307100005
:104180006316F7000325C4FDEF0080628327C4FD9A
:1041900083A707009387470213850700EFF01F8D61
:1041A0009307050093860700832784FD13071000FB
:1041B000B317F70093C7F7FFB3F7F6002326F4FE13
:1041C0008327C4FD83A70700938747028325C4FE86
:1041D00013850700EFF01F89130000008320C10240
:1041E000032481021301010367800000130101FD14
:1041F000232611022324810213040103232EA4FC8D
:10420000232CB4FC930706002328D4FC231BF4FCC6
:1042100093070700231AF4FC232204FE231704FE4D
:10422000231604FE231504FE231404FE8327C4FD75
:10423000638607568327C4FD83A707001306200063
:104240009305100013850700EFF05F8593070500C5
:1042500063860754035764FD835744FDB307F70093
:10426000638E0752035764FD835744FDB307F7007D
:104270009387F7FF2322F4FE8327C4FD83A707005B
:104280009387C7019305300013850700EFF08FFD7A
:104290008327C4FD83A70700938707021306000145
:1042A0009305400013850700EFF04FFF93070500CB
:1042B00013870700930710006316F7000325C4FD5A
:1042C000EF00004F8327C4FD83A70700930600007B
:1042D000130610009305000013850700EFF08FF917
:1042E0006F00C0060357C4FE835764FD6378F7026E
:1042F0008327C4FD83A707009386C7008357C4FEA6
:10430000032784FDB307F70083C7070093850700E1
:1043100013850600EFF00FEC6F00C0018327C4FD8A
:1043200083A707009387C700930500001385070044
:10433000EFF04FEA835784FE938717002314F4FEAF
:104340008357C4FE938717002316F4FE8357C4FED9
:10435000032744FE63FAE7008327C4FD83D747049D
:104360000357C4FEE360F7F88357C4FE032744FEF7
:10437000631EF7068327C4FD83D747040357C4FE93
:104380006376F7060357C4FE835764FD6378F7022C
:104390008327C4FD83A70700938687028357C4FE43
:1043A000032784FDB307F70083C707009385070041
:1043B00013850600EFF00FE26F00C0018327C4FDF4
:1043C00083A70700938787029305000013850700E2
:1043D000EFF04FE0835784FE938717002314F4FE19
:1043E0008357C4FE938717002316F4FE8327C4FD6A
:1043F00083A7070093061000130610009305000022
:1044000013850700EFF00FE76F00C00D8327C4FD91
:1044100083D74704035784FE637EF7068357C4FEA1
:10442000032744FE6318F7028327C4FD83A7070010
:10443000938687028357C4FE032784FDB307F700E2
:1044400083C707009385070013850600EFF08FD818
:104450006F00C0028327C4FD83A707009386C700AF
:104460008357C4FE032784FDB307F70083C7070003
:104470009385070013850600EFF0CFD58357C4FE60
:10448000938717002316F4FE835784FE9387170043
:104490002314F4FE8327C4FD83A707009387070234
:1044A000130640009305200013850700EFF00FDF8F
:1044B00093070500639807028327C4FD83A70700BD
:1044C0009387870013850700EFF04FD18357E4FEF1
:1044D000938717002317F4FE835784FE9387F7FF13
:1044E0002314F4FE0357C4FE835764FDE360F7F220
:1044F0006F00000A8327C4FD83D74704035784FE57
:104500006370F7048357C4FE032744FE63FAE7028F
:104510008327C4FD83A707009387C7009305000086
:1045200013850700EFF00FCB8357C4FE9387170066
:104530002316F4FE835784FE938717002314F4FE9A
:104540008327C4FD83A70700938707021306400053
:104550009305200013850700EFF04FD49307050063
:10456000639807028327C4FD83A70700938787000A
:1045700013850700EFF08FC68357E4FE938717007B
:104580002317F4FE835784FE9387F7FF2314F4FE6A
:104590000357E4FE835764FDE36EF7F46F00800B6E
:1045A0008327C4FD83D74704035784FE637AF70249
:1045B0008327C4FD83A707009387C70093050000E6
:1045C00013850700EFF00FC18357C4FE93871700D0
:1045D0002316F4FE835784FE938717002314F4FEFA
:1045E0008327C4FD83A707009387070213064000B3
:1045F0009305200013850700EFF04FCA93070500CD
:10460000639A07048327C4FD83A707009387870065
:1046100013850700EFF08FBC930605008357A4FEB7
:10462000032704FDB307F70013F7F60F2380E70015
:104630008357A4FE938717002315F4FE8357E4FEE7
:10464000938717002317F4FE835784FE9387F7FFA1
:104650002314F4FE8357C4FE032744FEE3E2E7F489
:104660006F00800B8327C4FD83D74704035784FE64
:10467000637AF7028327C4FD83A707009387870225
:104680009305000013850700EFF0CFB48357C4FEF5
:10469000938717002316F4FE835784FE9387170031
:1046A0002314F4FE8327C4FD83A707009387070222
:1046B000130640009305200013850700EFF00FBE9E
:1046C00093070500639A07048327C4FD83A70700A7
:1046D0009387870013850700EFF04FB0930605001E
:1046E0008357A4FE032704FDB307F70013F7F60F63
:1046F0002380E7008357A4FE938717002315F4FE59
:104700008357E4FE938717002317F4FE835784FE34
:104710009387F7FF2314F4FE8357C4FE032744FE58
:10472000E302F7F46F00C0068327C4FD83A70700E8
:1047300093870702130640009305200013850700A6
:10474000EFF0CFB593070500639407048327C4FDFA
:1047500083A707009387870013850700EFF00FA852
:10476000930605008357A4FE032704FDB307F70053
:1047700013F7F60F2380E7008357A4FE93871700F3
:104780002315F4FE8357E4FE938717002317F4FEE6
:104790008357E4FE032744FEE378F7F81300000094
:1047A0008320C102032481021301010367800000FA
:1047B000130101FE232E1100232C8100130401029A
:1047C0002326A4FE8327C4FE83A7070093060000C8
:1047D000130610009305000013850700EFF08FA962
:1047E0008327C4FE83A707009387C7019305300082
:1047F00013850700EFF00FA78327C4FE83A70700E8
:10480000938747009305F00F13850700EFF08FA5FE
:104810008327C4FE83A70700930610001306100029
:104820009305000013850700EFF0CFA413000000EC
:104830008320C1010324810113010102678000006C
:10484000130101FD23261102232481021304010315
:10485000232EA4FC232CB4FC930706002328D4FCAD
:10486000A30BF4FC832704FD2326F4FEEFF04F9006
:104870002324A4FE1306C006930500000325C4FDEF
:10488000EF1090588327C4FD032784FD23A0E70081
:10489000834774FD139717008327C4FD23A2E70005
:1048A0008327C4FD83A707009306000013060004B6
:1048B0009305600013850700EFF0CF9B8327C4FDAD
:1048C00083A70700930610001306000493056000F9
:1048D00013850700EFF00F9A8327C4FD03A7070095
:1048E0008327C4FE93D7270093F71700938607000A
:1048F000130600089305700013050700EFF08F976B
:104900008327C4FD03A707008327C4FE93D717009E
:1049100093F71700938607001306200093051000F5
:1049200013050700EFF00F958327C4FD03A70700C9
:104930008327C4FE93F71700938607001306100021
:104940009305000013050700EFF0CF928327C4FD05
:1049500083A707001387C7008327C4FD83A74700E9
:104960009385070013050700EFF0CF8F8327C4FD61
:1049700083A707001387C7018327C4FD83A74700C8
:104980009385070013050700EFF0CF8D032584FE04
:10499000EFF0CF81130000008320C10203248102C5
:1049A0001301010367800000130101FD232611029A
:1049B0002324810213040103232EA4FC9387050002
:1049C000232AC4FCA30DF4FC93870600231CF4FCEB
:1049D00093070700230DF4FCEFE09FF92326A4FEC4
:1049E0008327C4FD83C7C700639807008327C4FDDE
:1049F000130710002386E7008327C4FD1307100068
:104A00002385E7068347B4FD139717008327C4FD6A
:104A100023A4E7008327C4FD23A207028327C4FD44
:104A2000032744FD23ACE700035784FD8327C4FD1F
:104A300023AEE7008327C4FD23A007028327C4FD1C
:104A40001307100023AAE7028327C4FD0347A4FD30
:104A5000238AE7008327C4FD03A7470593071000B7
:104A6000631AF7008327C4FD13071000A384E70629
:104A70006F0000028327C4FD83A707009306100080
:104A8000130600029305500013850700EFE09FFE18
:104A90008327C4FD03C78706930710006310F7023E
:104AA0008327C4FD83A70700930600001306800038
:104AB0009305300013850700EFE0DFFB8327C4FD7B
:104AC00083A707009387470013850700EFE01FFACD
:104AD00093070500A305F4FE8347B4FE93F7F70F91
:104AE000A305F4FE0325C4FDEF00D0360325C4FE64
:104AF000EFE0DFEB130000008320C10203248102FA
:104B00001301010367800000130101FD2326110238
:104B10002324810213040103232EA4FC232CB4FCC0
:104B2000EFE01FE52326A4FE8327C4FD032784FDB1
:104B300023ACE7020325C4FEEFE05FE78327C4FD53
:104B400083A747032324F4FE032784FE9307100062
:104B5000E306F7FE832784FE138507008320C10246
:104B6000032481021301010367800000130101FD8A
:104B7000232611022324810213040103232EA4FC03
:104B8000232CB4FC8327C4FD83A787036382070615
:104B90008327C4FD83A78703032784FD6370F7027F
:104BA0008327C4FD03A78703832784FD3307F740CA
:104BB0008327C4FD23ACE7026F008003EFE05FDBD7
:104BC0002326A4FE8327C4FD1307300023AAE7028F
:104BD0008327C4FD238607008327C4FDA38407061B
:104BE0000325C4FEEFE09FDC8327C4FD23AC07024E
:104BF000130000008320C10203248102130101037A
:104C000067800000130101FE232E1100232C810078
:104C1000130401022326A4FE8327C4FE83C70706CC
:104C2000638007028327C4FE83A707009306100052
:104C3000130640009305200013850700EFE09FE373
:104C4000130000008320C10103248101130101022C
:104C500067800000130101FD232611022324810235
:104C60002322910213040103232EA4FC93071000B6
:104C7000A307F4FE8327C4FD83A70700938747009B
:104C800013850700EFE09FDE93070500A303F4FE02
:104C9000834774FE93F7F70F938787FF1307800D01
:104CA000E360F70C13972700B78700809387871876
:104CB000B307F70083A70700678007008327C4FDB9
:104CC00083A7070093060000130600029305500017
:104CD00013850700EFE01FDA8327C4FD83A70700D1
:104CE000138787008327C4FD83A787009385070068
:104CF00013050700EFE01FD78327C4FD83A7070034
:104D0000138787008327C4FD83A747029386070084
:104D1000130610009305000013050700EFE09FD570
:104D20008327C4FD83A74702639807008327C4FD38
:104D300023A007026F00C0008327C4FD23A8070239
:104D40008327C4FD83C79706638607008327C4FDB6
:104D5000A38407068327C4FD03C7C7008327C4FDB8
:104D600083C7A706E306F7068327C4FD03C7A70684
:104D70008327C4FD2386E7006F0090058327C4FDC9
:104D800083A7070093061000130600029305500046
:104D900013850700EFE01FCE6F0050068327C4FD88
:104DA00083A7070093061000130600019305400037
:104DB00013850700EFE01FCC8327C4FD13072000F5
:104DC00023AAE7028327C4FD238607000325C4FD29
:104DD000EFF05FE36F0090028327C4FD03A7070293
:104DE0008327C4FD83A7C7016370F7048327C4FD2D
:104DF00083A70700138587008327C4FD03A78701C6
:104E00008327C4FD83A70702138617008326C4FDEA
:104E100023A0C602B307F70083C7070093850700E6
:104E2000EFE05FC46F00807D8327C4FD03C7C70028
:104E3000930730006318F7028327C4FD130710009F
:104E400023A2E7028327C4FD83A70700930610006F
:104E5000130600029305500013850700EFE09FC181
:104E60006F00C0798327C4FD238607008327C4FD14
:104E700083C7470193F717002307F4FE8327C4FD78
:104E80000347E4FE2384E7068347E4FE63960702B4
:104E90008327C4FD83A707009306100013060001B3
:104EA0009305400013850700EFE0DFBC0325C4FD38
:104EB000EFF05FD56F0000010325C4FDEF00807B9C
:104EC000A30704FE8327C4FD23AA07026F00007313
:104ED0008327C4FD83A70700930610001306000173
:104EE0009305400013850700EFE0DFB88327C4FD7A
:104EF0001307200023AAE7028327C4FD23860700A7
:104F00000325C4FDEFF01FD06F00406F8327C4FD61
:104F100003A7C7029307100063F2E7028327C4FDCB
:104F200083A7070093061000130640009305200096
:104F300013850700EFE01FB46F00406C8327C4FDAA
:104F400003A7C702930710006312F7028327C4FD6B
:104F500083A7070093060000130640009305200076
:104F600013850700EFE01FB16F0040698327C4FD80
:104F700083A7070093061000130640009305200046
:104F800013850700EFE01FAF8327C4FD83A7070049
:104F900093061000130600019305400013850700D7
:104FA000EFE05FAD8327C4FD23AA07028327C4FD7A
:104FB000238607006F0080648327C4FD83A7070052
:104FC00093061000130600019305400013850700A7
:104FD000EFE05FAA8327C4FD1307200023AAE7029E
:104FE0008327C4FD238607000325C4FDEFF09FC17E
:104FF0006F00C0608327C4FD83A7070093858700E7
:105000008327C4FD03A787028327C4FD83A7070363
:10501000138617008326C4FD23A8C602B304F70035
:1050200013850500EFE09FA4930705002380F4009B
:105030008327C4FD03A707038327C4FD83A7C702F3
:105040009387F7FF636AF7588327C4FD83A7070098
:105050009306000013064000930520001385070007
:10506000EFE05FA16F0040578327C4FD83A70700CF
:10507000938687008327C4FD03A787028327C4FD87
:1050800083A70703B304F70013850600EFE01F9E14
:10509000930705002380F4008327C4FD83C74701DD
:1050A00093F717002307F4FE8327C4FD0347E4FEAC
:1050B0002384E7068347E4FE639607028327C4FD43
:1050C00083A7070093061000130600019305400014
:1050D00013850700EFE01F9A0325C4FDEFF09FB290
:1050E0006F0000010325C4FDEF00C058A30704FEB4
:1050F0008327C4FD238607008327C4FD23AA070254
:105100006F00C04F8327C4FD83A7070093061000DC
:10511000130640009305200013850700EFE09F95DC
:105120008327C4FD238607008327C4FD23AA070421
:105130008327C4FD83C797066384074A8327C4FD7A
:1051400083A7070093061000130600029305500082
:1051500013850700EFE01F926F0080488327C4FD8E
:1051600013071000A384E7068327C4FD130740003C
:105170002386E7008327C4FD23A807048327C4FDF3
:1051800023A807008327C4FD83A707001306000296
:105190009305500013850700EFE05F90930705002B
:1051A000638607028327C4FD83A7070093060000D8
:1051B000130600029305500013850700EFE09F8B54
:1051C0008327C4FD13071000A384E7068327C4FDCB
:1051D0001307100023AAE7046F0040428327C4FD91
:1051E00083A78704638C07068327C4FD03A70705ED
:1051F0008327C4FD83A7C7046372F7068327C4FD12
:1052000083A707009387870013850700EFE01F86B9
:1052100093070500A306F4FE8327C4FD03A78704B4
:105220008327C4FD83A70705138617008326C4FDC3
:1052300023A8C604B307F7000347D4FE2380E70082
:105240008327C4FD83A70701139787008347D4FEF4
:105250003307F7008327C4FD23A8E7008327C4FD95
:1052600003A707058327C4FD83A7C704636EF7362A
:105270008327C4FD83A707009306000013064000A0
:105280009305200013850700EFE0CFFE6F00C035C7
:105290008327C4FD03C7C700930740006312F70CC0
:1052A0008327C4FD03A707058327C4FD83A78705BC
:1052B000631AF7008327C4FD03A707018327C4FDF2
:1052C00023A2E7048327C4FD83A7C705638A0706D3
:1052D0008327C4FD83A6C7058327C4FD03A78704CE
:1052E0008327C4FD83A707059397070193D7070179
:1052F00013860700930507000325C4FDE780060019
:105300002324A4FE832784FE639807000325C4FD9D
:10531000EFF05F8F6F00C0058327C4FD83A70700F0
:105320009306000013064000930520001385070034
:10533000EFE04FF48327C4FD238007066F0040038E
:105340008327C4FD83A707009306100013064000BF
:105350009305200013850700EFE0CFF16F004001B7
:105360008327C4FD23A207040325C4FDEFF09F8912
:105370008327C4FD23AA07048327C4FD83C7970698
:10538000638007028327C4FD83A7070093061000EC
:10539000130600029305500013850700EFE08FED20
:1053A0008327C4FD238607006F0040258327C4FDA3
:1053B000238607008327C4FD23A207048327C4FD97
:1053C00003A74705930710006318F7008327C4FD60
:1053D0001307200023AAE7040325C4FDEFF09F82F2
:1053E0006F00C021834774FE13F7F70F9307800AFD
:1053F0006316F7068327C4FD130750002386E700D2
:105400008327C4FD23A807008327C4FD13071000CA
:1054100023AAE7048327C4FD83A70700130600021D
:105420009305500013850700EFE04FE79307050051
:10543000638607028327C4FD83A707009306000045
:10544000130600029305500013850700EFE08FE27A
:105450008327C4FD13071000A384E7068327C4FD38
:1054600003A747048327C4FD83A707046360F702EB
:105470008327C4FD83A70700938787009305F00F58
:1054800013850700EFE00FDE6F00C0038327C4FD24
:1054900083A70700138587008327C4FD03A7C703DD
:1054A0008327C4FD83A74704138617008326C4FD02
:1054B00023A2C604B307F70083C70700938507003C
:1054C000EFE04FDA8327C4FD03A747048327C4FD19
:1054D00083A70704636EF7108327C4FD83A7070023
:1054E0009306000013064000930520001385070073
:1054F000EFE04FD88327C4FD23A207046F00400FBD
:105500008327C4FD23A207048327C4FD83A70700C4
:105510009306100013064000930520001385070032
:10552000EFE04FD58327C4FD23AA07048327C4FDDA
:1055300083C79706638007028327C4FD83A70700FC
:105540009306100013060002930550001385070010
:10555000EFE04FD28327C4FD238607006F00000AC7
:105560008327C4FD83A707009306000013060002EB
:105570009305500013850700EFE0CFCF8327C4FDCC
:10558000238607008327C4FD23A207048327C4FDC5
:1055900003A74703930710006318F7008327C4FD90
:1055A0001307200023AAE7028327C4FD03A74705AA
:1055B000930710006312F7048327C4FD130720002C
:1055C00023AAE7046F004003130000006F000003EC
:1055D000130000006F008002130000006F00000243
:1055E000130000006F008001130000006F00000135
:1055F000130000006F008000130000008347F4FEDA
:10560000638007028327C4FD83A707009306000079
:10561000130680009305300013850700EFE08FC567
:105620008327C4FD83A707009387470013850700DE
:10563000EFE0CFC393070500A303F4FE13000000BF
:105640008320C10203248102832441021301010348
:1056500067800000130101FE232E81001304010264
:105660002326A4FE130000000324C101130101023C
:1056700067800000130101FE232E81001304010244
:105680002326A4FE130000000324C101130101021C
:1056900067800000130101FD2326110223248102EB
:1056A00013040103232EA4FC232CB4FC232AC4FCE2
:1056B000A30704FE832784FD2324F4FE8327C4FD6F
:1056C000032784FD23A0E7008327C4FD032744FDAF
:1056D00023A2E700A30704FE832784FD2324F4FE0E
:1056E0006F00800293050000032584FEEFE08FB772
:1056F000832784FE938747002324F4FE8347F4FE28
:1057000093871700A307F4FE0347F4FE9307F00105
:10571000E3FAE7FC8327C4FD83A7470013071000C3
:105720006386E70263820706130720006390E70C95
:105730008327C4FD83A70700938707089305F0FF1D
:1057400013850700EFE00FA96F00800A8327C4FDCF
:1057500083A7070013870708B70701009385F7FFA2
:1057600013050700EFE08FAB8327C4FD83A7070075
:1057700013874708B70701009385F7FF1305070054
:10578000EFE0CFA96F00C0068327C4FD83A7070001
:10579000938707089305F00F13850700EFE08FACA0
:1057A0008327C4FD83A70700938747089305F00F5D
:1057B00013850700EFE00FAB8327C4FD83A7070025
:1057C000938787089305F00F13850700EFE08FA9F3
:1057D0008327C4FD83A707009387C7089305F00FAD
:1057E00013850700EFE00FA86F0080001300000092
:1057F000130000008320C10203248102130101036E
:1058000067800000130101FD232611022324810279
:1058100013040103232EA4FC232CB4FC232AC4FC70
:10582000032784FD9307F00163E8E7028327C4FDA3
:1058300083A707002326F4FE832784FD9397270080
:105840000327C4FEB307F7002326F4FE832544FD97
:105850000325C4FEEFE00F98130000008320C1026F
:10586000032481021301010367800000130101FD7D
:10587000232611022324810213040103232EA4FCF6
:10588000232CB4FC93070600A30BF4FC8327C4FD70
:1058900083A74700130710006386E708638E07128B
:1058A000130720006394E71E8327C4FD83A7070026
:1058B0009387070A13850700EFE04F922326A4FE83
:1058C000834774FD63940702832784FD1307100048
:1058D000B317F70093C7F7FF138707008327C4FEAA
:1058E000B3F7E7002326F4FE6F000002832784FD50
:1058F00013071000B317F700138707008327C4FEB0
:10590000B3E7E7002326F4FE8327C4FD83A707003F
:105910009387070A8325C4FE13850700EFE08F8B6A
:105920006F0000178327C4FD03A70700832784FDAA
:1059300093D7470093972700B307F7009387070A89
:105940002322F4FE032544FEEFE0CF8D93070500EC
:105950002315F4FE834774FD63900704832784FDB9
:1059600093F7F70013071000B317F7009397070199
:1059700093D7074193C7F7FF1397070113570741C1
:105980008317A4FEB377F7009397070193D70741D6
:105990002315F4FE6F000003832784FD93F7F700BF
:1059A00013071000B317F7001397070113570741A8
:1059B0008317A4FEB367F7009397070193D70741B6
:1059C0002315F4FE8357A4FE93850700032544FEA8
:1059D000EFE0CF846F00C00B8327C4FD03A707004F
:1059E000832784FD93D7370093972700B307F700E9
:1059F0009387070A2320F4FE032504FEEFE00F87B8
:105A000093070500A304F4FE834774FD6390070425
:105A1000832784FD93F7770013071000B317F7006F
:105A20009397870193D7874193C7F7FF1397870110
:105A300013578741830794FEB377F7009397870145
:105A400093D78741A304F4FE6F000003832784FDEE
:105A500093F7770013071000B317F7001397870128
:105A600013578741830794FEB367F7009397870125
:105A700093D78741A304F4FE834794FE93850700E0
:105A8000032504FEEFD01FFE6F008000130000000E
:105A9000130000008320C1020324810213010103CB
:105AA00067800000130101FE232E1100232C8100CA
:105AB00013040102232604FEA30504FE230504FEAD
:105AC00013062000B715006013854124EFF09FBC3A
:105AD000130650009305000013854124EFF09FD278
