:100000006F00C0006F0000006F00C0029702000088
:10001000938282027390523073500030735040309C
:1000200097B10000938101A117C10000130181CD98
:100030006F205060130101F82320110023222100BA
:10004000232431002326410023285100232A610064
:10005000232C7100232E8100232091022322A10250
:100060002324B1022326C1022328D102232AE1023C
:10007000232CF102232E0103232011052322210525
:10008000232431052326410523285105232A610510
:10009000232C7105232E8105232091072322A107FC
:1000A0002324B1072326C1072328D107232AE107E8
:1000B000232CF107F3221034232E5106732520340C
:1000C000F325103413060100EF30401E7310153471
:1000D000B72200009382028073A0023083200100C7
:1000E00003214100832181000322C10083220101F9
:1000F00003234101832381010324C10183240102DD
:1001000003254102832581020326C10283260103C0
:1001100003274103832781030328C10383280104A4
:100120000329410483298104032AC104832A010588
:10013000032B4105832B8105032CC105832C01066C
:10014000032D4106832D8106032EC106832E010750
:10015000032F4107832F810713010108730020300B
:10016000130101FE232E1100232C81001304010230
:10017000A30704FE230704FEB787008093850701C9
:1001800013858129EF40405FEF00400E6F000009AA
:10019000EF008045930705002307F4FE8307E4FE84
:1001A000130720036386E70413072003634CF7005B
:1001B000130700036386E702130710036386E70251
:1001C0006F00400513078006638CE70213071007D2
:1001D000638CE702130730036380E7026F0080033C
:1001E000EF0000126F008003EF00C0176F000003E4
:1001F000EF0000236F008002EF00402D6F0000022F
:10020000EF00C0066F00800193071000A307F4FE03
:100210006F00C000EF004002130000008347F4FEAF
:10022000E38807F6130000008320C1010324810145
:100230001301010267800000130101FF2326110052
:100240002324810013040101B7870080938587036D
:1002500013858129EF404052130000008320C10024
:10026000032481001301010167800000130101FFD5
:10027000232611002324810013040101B787008085
:100280009385470513858129EF40004FB78700808C
:100290009385470613858129EF40004EB78700807C
:1002A0009385470813858129EF40004DB78700806B
:1002B0009385870A13858129EF40004CB78700801A
:1002C0009385870C13858129EF40004BB787008009
:1002D0009385470E13858129EF40004AB787008038
:1002E0009385071013858129EF4000491300000012
:1002F0008320C100032481001301010167800000F5
:10030000130101FF2326110023248100130401019E
:10031000B78700809385071113858129EF40C04579
:10032000EF00C03693070500638C0700B787008095
:100330009385C71113858129EF4000446F00400168
:10034000B78700809385471213858129EF40C0420B
:10035000130000008320C100032481001301010168
:1003600067800000130101FB23261104232481046C
:1003700013040105B78700809385C712138581296F
:10038000EF40803FB78700809385C713138581298D
:10039000EF40803E9307C4FB1386070093050000DF
:1003A00013052003EF00403AB78700809385C714F8
:1003B00013858129EF40403C9307C4FB93850700D8
:1003C00013858129EF40403BB78700809385C7158F
:1003D00013858129EF40403A9307C4FB1386070039
:1003E0009305100013052003EF000036B787008047
:1003F0009385C71413858129EF4000389307C4FB08
:100400009385070013858129EF4000371300000012
:100410008320C104032481041301010567800000C7
:10042000130101FE232E1100232C8100130401026D
:10043000B78700809385C71613858129EF40C033A5
:1004400013053000EF00004E9307050093F7F70FF8
:100450002306F4FE8347C4FE130784FE93050700BA
:1004600013850700EF00500FB78700809385C717EB
:1004700013858129EF4040309307C4FE9385070020
:1004800013858129EF40402FB78700809385C718D7
:1004900013858129EF40402E930784FE9385070042
:1004A00013858129EF40402DB78700809385071A77
:1004B00013858129EF40402C130000008320C101E7
:1004C000032481011301010267800000130101FE72
:1004D000232E1100232C810013040102B787008012
:1004E0009385471A13858129EF400029B78700803B
:1004F0009385471B13858129EF40002813051000C1
:10050000EF00805C930705002326F4FEB787008088
:100510009385471C13858129EF4000269307C4FE6D
:100520009385070013858129EF400025B787008058
:100530009385471D13858129EF4000248327C4FE3E
:10054000130704FE9305070013850700EF00900DC5
:10055000930704FE9385070013858129EF40C0218E
:10056000B78700809385871E13858129EF40C020BF
:1005700013054000EF004055930705002326F4FEC5
:10058000B78700809385471C13858129EF40C01EE3
:100590009307C4FE9385070013858129EF40C01D92
:1005A000B78700809385471D13858129EF40C01CC4
:1005B0008327C4FE130704FE930507001385070075
:1005C000EF005006930704FE9385070013858129E9
:1005D000EF40801A130000008320C1010324810131
:1005E0001301010267800000130101FE232E110098
:1005F000232C810013040102230704FEA30704FE39
:10060000B78700809385871F13858129EF40C01627
:100610006F0000039307C4FE1306200093850700B4
:1006200013858129EF404002930705002307F4FE5C
:100630008347E4FE6386070093071000A307F4FED8
:100640008347F4FEE38807FCA30604FE9307C4FE79
:100650009385070013858129EF400012B78700803A
:100660009385072013858129EF4000118347C4FE3D
:100670009397870193D78741138507008320C10192
:10068000032481011301010267800000130101FEB0
:10069000232E1100232C810013040102230704FEE2
:1006A000A30704FEB78700809385871F13858129E0
:1006B000EF40800C6F0000039307C4FE1306200078
:1006C0009385070013858129EF3010789307050083
:1006D0002307F4FE8347E4FE6386070093071000B8
:1006E000A307F4FE8347F4FEE38807FCA30604FE99
:1006F0009307C4FE9385070013858129EF40C00747
:10070000B78700809385072013858129EF40C006B5
:100710000347C4FE9307E0046308F7000347C4FEE1
:100720009307E0066316F700930700006F00800050
:1007300093071000138507008320C1010324810162
:100740001301010267800000130101FD232611023D
:100750002324810213040103930705001387050076
:10076000232CC4FCA30FF4FC93070700230FF4FC15
:10077000A30704FE230704FEA30604FE230604FECB
:10078000130744FE8347F4FD930507001385070014
:10079000EF00805CB78700809385872013858129CF
:1007A000EF30907D930744FE9385070013858129E0
:1007B000EF30907CB787008093858722138581294D
:1007C000EF30907BB787008093858723138581293D
:1007D000EF30907A6F004012930784FE13062000DA
:1007E0009385070013858129EF3010669307050074
:1007F0002306F4FE8347C4FE6386070093071000B8
:10080000A306F4FE8347D4FEE38807FCA30404FE9A
:10081000A30604FE0347F4FE8347F4FD9387F7FF26
:100820006350F70C834784FE938787FF130780018B
:10083000636AF70613972700B78700809387072B13
:10084000B307F70083A7070067800700B78700801A
:100850009385071A13858129EF30107293071000D2
:100860002307F4FE6F0000098347E4FD6382070855
:10087000930784FE9385070013858129EF30D06F9D
:100880008347F4FE032784FDB307F7001307000234
:100890002380E7008347F4FE93871700A307F4FE45
:1008A0006F000005930784FE938507001385812957
:1008B000EF30906C834684FE8347F4FE032784FD6B
:1008C000B307F70013978601135787412380E7008A
:1008D0008347F4FE93871700A307F4FE6F0080019F
:1008E000130000006F000001130000006F00800083
:1008F00013000000A30604FE8347E4FEE38407F030
:100900008347F4FE032784FDB307F7002380070025
:10091000130000008320C10203248102130101039C
:1009200067800000130101FC232E1102232C810299
:100930001304010493070500A307F4FC232604FE17
:10094000A30504FE930710002322F4FEA30104FE76
:10095000230104FEA30004FEB7870080938587234C
:1009600013858129EF3050616F0000149307C4FD97
:10097000130620009385070013858129EF30D04CA2
:1009800093070500A300F4FE834714FE6386070067
:10099000930710002301F4FE834724FEE38807FC3D
:1009A000A30E04FC230104FE0347B4FE8347F4FCBA
:1009B0006374F70C8347C4FD938787FF1307800197
:1009C000636CF70213972700B7870080938747313E
:1009D000B307F70083A7070067800700B787008089
:1009E0009385071A13858129EF301059930710005A
:1009F000A301F4FE6F00400B0347C4FD9307F00210
:100A000063F8E7060347C4FD9307900363E2E70634
:100A10009307C4FD9385070013858129EF30D055D6
:100A20008347C4FD938707FD13870700832744FE90
:100A3000B307F7020327C4FEB307F7002326F4FE2B
:100A40008347B4FE93871700A305F4FE032744FEF3
:100A50009307070093972700B387E7009397170042
:100A60002322F4FE6F00C000130000006F00C003DB
:100A7000130000006F0040030347C4FD9307D0003C
:100A80006308F7000347C4FD9307A000631EF70047
:100A9000B78700809385071A13858129EF30D04DE1
:100AA00093071000A301F4FE834734FEE38607EEAC
:100AB0008327C4FE138507008320C1030324810319
:100AC0001301010467800000130101FD23261102B8
:100AD000232481021304010393070500A30FF4FCF0
:100AE000232604FEA30504FE230504FEA30404FE3E
:100AF0008347F4FD9397070193D707019397170056
:100B00002313F4FE231204FE130704FE8347F4FDAF
:100B10009305070013850700EF000024B7870080C6
:100B20009385C72313858129EF301045930704FE71
:100B30009385070013858129EF301044B787008023
:100B40009385072513858129EF301043B7870080EF
:100B50009385472A13858129EF3010426F00C01D0D
:100B6000930744FE1306200093850700138581290F
:100B7000EF30902D93070500A304F4FE834794FE05
:100B80006386070093071000A305F4FE8347B4FEB5
:100B9000E38807FCA30204FEA30504FE034744FE0A
:100BA0009307F00263F8E700034744FE93079003BE
:100BB00063FAE702034744FE9307000663F8E70081
:100BC000034744FE9307600663FEE700034744FEC5
:100BD0009307000463F2E702034744FE93076004AF
:100BE00063ECE700930744FE938507001385812992
:100BF000EF3090386F000004034744FE9307000273
:100C0000631CF700B78700809385C72A1385812965
:100C1000EF3090366F000002034744FE9307D00088
:100C2000631AF700B78700809385071A1385812917
:100C3000EF309034834744FE938767FF1307C00566
:100C4000636AF70E13972700B7870080938787376B
:100C5000B307F70083A70700678007008327C4FE58
:100C60006F00400E8327C4FE939747002326F4FEAF
:100C7000834744FE138707008327C4FEB307F700AA
:100C8000938707FD2326F4FE6F00000B8327C4FE25
:100C9000939747002326F4FE8327C4FE9387A7007B
:100CA0002326F4FE6F0040098327C4FE9397470074
:100CB0002326F4FE8327C4FE9387B7002326F4FE81
:100CC0006F0080078327C4FE939747002326F4FE16
:100CD0008327C4FE9387C7002326F4FE6F00C00558
:100CE0008327C4FE939747002326F4FE8327C4FE80
:100CF0009387D7002326F4FE6F0000048327C4FEE9
:100D0000939747002326F4FE8327C4FE9387E700CA
:100D10002326F4FE6F0040028327C4FE939747000A
:100D20002326F4FE8327C4FE9387F7002326F4FED0
:100D30006F008000130000008347A4FEE38807E4EF
:100D40008327C4FE138507008320C1020324810288
:100D50001301010367800000130101FE232E8100AF
:100D600013040102930705002324B4FEA307F4FE35
:100D7000832784FE93873700238007000347F4FE10
:100D80009307A000B377F70293F7F70F9387070352
:100D900013F7F70F832784FE938727001317870124
:100DA000135787412380E7000347F4FE9307A00011
:100DB000B357F70213F7F70F9307A000B377F702C3
:100DC00093F7F70F9387070313F7F70F832784FE33
:100DD0009387170013178701135787412380E70074
:100DE0000347F4FE93074006B357F70213F7F70FD4
:100DF0009307A000B377F70293F7F70F93870703E2
:100E000093F7F70F1397870113578741832784FEC2
:100E10002380E700130000000324C1011301010235
:100E200067800000130101FE232E810013040102DC
:100E30002326A4FE2324B4FE032684FE1306B60054
:100E4000230006000326C4FE1376F60F1376F60081
:100E50001376F60F130606039375F60F032684FE2A
:100E60001306A6009395850193D585412300B6000E
:100E70000326C4FE135646001376F60F1376F600CB
:100E80001376F60F130606039375F60F032684FEFA
:100E9000130696009395850193D585412300B600EE
:100EA0000326C4FE135686001376F60F1376F6005B
:100EB0001376F60F130606039375F60F032684FECA
:100EC000130686009395850193D585412300B600CE
:100ED0000326C4FE1356C6001376F60F1376F600EB
:100EE0001376F60F130606039375F60F032684FE9A
:100EF000130676009395850193D585412300B600AE
:100F00000326C4FE135606011376F60F1376F60079
:100F10001376F60F130606039375F60F032684FE69
:100F2000130666009395850193D585412300B6008D
:100F30000326C4FE135646011376F60F1376F60009
:100F40001376F60F130606039375F60F032684FE39
:100F5000130656009395850193D585412300B6006D
:100F60000326C4FE135686011376F60F1376F60099
:100F70001376F60F130606039375F60F032684FE09
:100F8000130646009395850193D585412300B6004D
:100F90000326C4FE1356C6011376F60F1376F60029
:100FA0001376F60F130606039375F60F032684FED9
:100FB000130636009395850193D585412300B6002D
:100FC0000326C4FE130306009303000013D6F34167
:100FD000930706001356F6411308060093F6F7FF31
:100FE00013770800B3876600138607003336D600F0
:100FF000330877003307060113080700135E084023
:10100000935EF84193070E0013880E0093F7F70FD5
:1010100093F7F70093F7F70F9387070313F7F70F8B
:10102000832784FE9387270013178701135787416F
:101030002380E700832784FE938717001307800728
:101040002380E700832784FE130700032380E70043
:10105000130000000324C101130101026780000096
:10106000130101FE232E81001304010293070500E2
:101070002324B4FEA307F4FE832784FE938747004E
:10108000238007008347F4FE93F7F70093F7F70FE9
:101090009387070313F7F70F832784FE938737009F
:1010A00013178701135787412380E7008347F4FE16
:1010B00093D7470093F7F70F93F7F70093F7F70FDE
:1010C0009387070313F7F70F832784FE938727007F
:1010D00013178701135787412380E700832784FE76
:1010E00093871700130780072380E700832784FE78
:1010F000130700032380E700130000000324C1014D
:101100001301010267800000130101FE232E8100FC
:1011100013040102F32740F12324F4FE832784FE05
:101120002322F4FE232604FE6F00C003370700408D
:10113000832744FE939657008327C4FEB386F600A8
:10114000B717000093870780B387F60093972700AF
:10115000B307F70023A007008327C4FE9387170077
:101160002326F4FE8327C4FEE38207FC232604FE25
:101170006F004002370700408327C4FE9397270083
:10118000B307F70023A007008327C4FE9387170047
:101190002326F4FE0327C4FE9307E001E3FCE7FCEB
:1011A00037070040832744FE938707209397C700A3
:1011B000B307F70023A00700B71700009387078045
:1011C000F3A747302320F4FE130000000324C101DD
:1011D0001301010267800000130101FD2326810233
:1011E00013040103232EA4FCF32740F12326F4FE6D
:1011F0008327C4FE2324F4FE370700408327C4FD61
:1012000093D75700832684FE93965600B386F60044
:10121000B717000093870780B387F60093972700DE
:10122000B307F70083A707002322F4FE8327C4FD3A
:1012300093F7F70113071000B317F700032744FED5
:10124000B367F7002322F4FE370700408327C4FD6D
:1012500093D75700832684FE93965600B386F600F4
:10126000B717000093870780B387F600939727008E
:10127000B307F700032744FE23A0E7001300000094
:101280000324C1021301010367800000130101FE62
:10129000232E8100130401022326A4FE2324B4FE7E
:1012A000370700408327C4FE93972700B307F70052
:1012B000032784FE23A0E700130000000324C101DC
:1012C0001301010267800000130101FE232E1100AB
:1012D000232C810013040102230704FEEFF0DFE258
:1012E0009306300013069001B74500601385811BFB
:1012F000EF30C018B7B74F031385C75AEF10105817
:101300009305100013055000EFF05FF8130550002F
:10131000EFF09FECEF304000EF00C02FEF00C03B3C
:10132000A30704FE6F0000030347F4FE9387011137
:10133000B307F700238007000347F4FE93870113E8
:10134000B307F700238007008347F4FE9387170055
:10135000A307F4FE0347F4FE9307F001E3F6E7FC6E
:101360009307C4FE13061000938507001385812997
:10137000EF30802D930705002307F4FE8347E4FE3A
:10138000638807268347C4FE130720036380E712A0
:10139000130730036388E72213071003639EE722D5
:1013A000B78700809385C74E13858129EF30C03CF5
:1013B00013858129EF30404793070500A306F4FE0B
:1013C000EF00C03893070500138707002388E10E5C
:1013D0008347D4FE639A070483C7010F639C070009
:1013E000B78700809385875013858129EF30C038F7
:1013F0006F004002B787008093858752138581294B
:10140000EF308037B78700809385C75413858129D3
:10141000EF308036B7870080938507551385812983
:10142000EF3080356F00001D0347D4FE9307100096
:10143000631CF700B78700809385475A138581297D
:10144000EF3080336F0040050347D4FE9307200040
:10145000631CF700B78700809385075C138581299B
:10146000EF3080316F0040030347D4FE9307400004
:10147000631CF700B78700809385075E1385812979
:10148000EF30802F6F004001B78700809385C75FE2
:1014900013858129EF30402EB78700809385C7617F
:1014A00013858129EF30402D6F00C014B78700806D
:1014B0009385C74E13858129EF30002C1306000257
:1014C0009385011113858129EF3000181385812937
:1014D000EF30803593070500A306F4FE8347D4FE62
:1014E000639A070483C7010F639C0700B7870080D6
:1014F0009385875013858129EF3000286F004002C3
:10150000B78700809385875213858129EF30C026E5
:10151000B78700809385C75413858129EF30C02594
:10152000B78700809385075513858129EF30C02444
:101530006F0040080347D4FE93071000631CF700B8
:10154000B78700809385475A13858129EF30C022E1
:101550006F0040050347D4FE93072000631CF7008B
:10156000B78700809385075C13858129EF30C02001
:101570006F0040030347D4FE93074000631CF7004D
:10158000B78700809385075E13858129EF30C01EE1
:101590006F004001B78700809385C75F138581295D
:1015A000EF30801DB78700809385C761138581293F
:1015B000EF30801C9385011113858129EF30C01B0A
:1015C0006F004003B78700809385076713858129E3
:1015D000EF30801A6F000002B7870080938587691B
:1015E00013858129EF304019EF00000F6F00800054
:1015F000130000000347C4FE93073003E312F7D63D
:10160000130000008320C1010324810113010102A2
:1016100067800000130101FF2326110023248100AD
:1016200013040101B78700809385C76B1385812957
:10163000EF308014B7870080938507711385812967
:10164000EF308013B7870080938547761385812913
:10165000EF308012B78700809385877B13858129BF
:10166000EF308011B797008093850780138581291B
:10167000EF308010B78700809385C761138581297B
:10168000EF30800FB79700809385478513858129B8
:10169000EF30800EB79700809385878A1385812964
:1016A000EF30800DB79700809385078C13858129D3
:1016B000EF30800CB787008093850755138581290B
:1016C000EF30800B130000008320C1000324810051
:1016D0001301010167800000130101FF232611009F
:1016E0002324810013040101B79700809385878D1F
:1016F00013858129EF304008B79700809385C79202
:1017000013858129EF304007B7970080938587952F
:1017100013858129EF304006B7970080938547985D
:1017200013858129EF304005B787008093850755E1
:1017300013858129EF304004130000008320C1008D
:10174000032481001301010167800000130101FEE1
:10175000232E1100232C810013040102A30704FE91
:10176000230704FEA30604FEB79700809385479BDA
:1017700013858129EF304000230704FE6F008008A5
:101780009307C4FE13061000938507001385812973
:10179000EF20906B93070500A306F4FE8347D4FE69
:1017A000638207069307C4FE1306100093850700A3
:1017B00013858129EF20105E0347C4FE9307D000F4
:1017C0006318F70093071000A307F4FE6F0080036F
:1017D0008346E4FE0347C4FE93870113B387F600F4
:1017E0002380E7008347E4FE938717002307F4FE76
:1017F0000347E4FE930700026316F7009307100007
:10180000A307F4FE8347F4FEE38C07F6B787008056
:101810009385C75413858129EF2010768347E4FE12
:10182000138507008320C1010324810113010102F4
:1018300067800000130101FF23261100232481008B
:10184000130401012382011C238A012037A7008091
:101850001307872323A0E11CB7A700809387872362
:1018600003A7470023ACE12013060002B725006060
:101870001385811CEF3080001385811CEF3000122E
:10188000130000008320C100032481001301010123
:1018900067800000130101FE232E1100232C81001C
:1018A000130401022326A4FE2324B4FE2322C4FE33
:1018B00093870600A301F4FE8327C4FE03A7070055
:1018C0008327C4FE83A747009385070013050700FD
:1018D000EF30C0178327C4FE83A70700034734FEF9
:1018E0001317070113570701832644FE1306100040
:1018F000832584FE13850700EF3080318327C4FEE3
:1019000003A707008327C4FE83A74700938507002A
:1019100013050700EF308021130000008320C10170
:10192000032481011301010267800000130101FEFD
:10193000232E1100232C8100130401022326A4FE70
:101940002324B4FE930706002320D4FEA303F4FE51
:101950008327C4FE03A707008327C4FE83A747008D
:101960009385070013050700EF30400E8327C4FE60
:1019700083A70700034774FE1316070113560601D9
:1019800013071000832604FE832584FE13850700B9
:10199000EF3000288327C4FE03A707008327C4FE77
:1019A00083A747009385070013050700EF30001851
:1019B000130000008320C1010324810113010102EF
:1019C00067800000130101FE232E1100232C8100EB
:1019D00013040102A30704FEB7970080938547A074
:1019E00013858129EF205059EF00506FEFF09FE4ED
:1019F0006F00C008B7970080938547A2138581299F
:101A0000EF209057EFE05FBE93070500A307F4FEB9
:101A10008307F4FE938707FD13071004636CF70434
:101A200013972700B797008093878718B307F700AD
:101A300083A7070067800700EF00506A6F0000046B
:101A4000EF0010746F008003130710002382E11C65
:101A50006F00C002EF10400A6F004002EF00907B61
:101A60006F00C001EF0040046F004001EF008011E3
:101A70006F00C000EF10C02D1300000083C7411C91
:101A8000E38A07F6B7970080938547A413858129D9
:101A9000EF20904E130000008320C1010324810138
:101AA0001301010267800000130101FE232E1100C3
:101AB000232C810013040102A30704FE6F00800998
:101AC000B7970080938547A613858129EF20D04AD8
:101AD000EF000019EFE05FB193070500A307F4FEE4
:101AE0008307F4FE938707FD130710046360F7066E
:101AF00013972700B797008093870729B307F7004C
:101B000083A7070067800700EF0080156F0080043F
:101B1000EF0010676F000004130710002382E11C20
:101B20006F004003EF00507D6F00C002EF00906E29
:101B30006F004002EF00001E6F00C001EF00003791
:101B40006F004001EF00405C6F00C000EF104020CC
:101B50001300000083C7411CE38407F62382011CA5
:101B6000B7970080938547A013858129EF20D04047
:101B7000130000008320C10103248101130101022D
:101B800067800000130101FE232E1100232C810029
:101B900013040102A30704FE6F008009B7970080B9
:101BA000938547A613858129EF20103DEF00400B58
:101BB000EFE09FA393070500A307F4FE8307F4FE5D
:101BC000938707FD130710046360F7061397270038
:101BD000B797008093878739B307F70083A707007B
:101BE00067800700EF00007C6F008004EF00505911
:101BF0006F000004130710002382E11C6F004003F4
:101C0000EF00906F6F00C002EF00D0606F004002E5
:101C1000EF0090046F00C001EF00D0176F0040018B
:101C2000EF00102F6F00C000EF10801213000000B3
:101C300083C7411CE38407F62382011CB797008009
:101C4000938547A013858129EF20103313000000EE
:101C50008320C10103248101130101026780000078
:101C6000130101FF23261100232481001304010125
:101C7000B7970080938587A913858129EF20D02FFE
:101C8000B7970080938587AA13858129EF20D02EEE
:101C9000B7970080938587AC13858129EF20D02DDD
:101CA000B7970080938587AE13858129EF20D02CCC
:101CB000B7970080938547B013858129EF20D02BFB
:101CC000B79700809385C7B113858129EF20D02A6B
:101CD000B7970080938547B413858129EF20D029D9
:101CE000B7970080938547B613858129EF20D028C8
:101CF000B7970080938547B813858129EF20D027B7
:101D0000130000008320C10003248100130101019E
:101D100067800000130101FE232E1100232C810097
:101D200013040102230604FEA30504FEA30704FE18
:101D3000B79700809385C7BA13858129EF20D023F8
:101D40006F00000EB7970080938507BE1385812929
:101D5000EF20902213051000EFE01FD79307050036
:101D600013F7F70F238AE120B7970080938587BF89
:101D700013858129EF20502013051000EFE0DFD4F8
:101D80009307050093F7F70F2306F4FEB79700803B
:101D9000938507C113858129EF20101E83C7412138
:101DA000130744FE9305070013850700EFF04FABC0
:101DB000930744FE9385070013858129EF20D01BEC
:101DC000B7970080938587C213858129EF20D01AA9
:101DD0008347C4FE130744FE9305070013850700DD
:101DE000EFF00FA8930744FE938507001385812920
:101DF000EF209018B7970080938587C313858129BA
:101E0000EF209017EFE09F889307050013870700E6
:101E1000930710006316F70093071000A307F4FE62
:101E20008347F4FEE38007F283A7011C9306B4FE08
:101E30001307C4FE1306100093050700138507005F
:101E4000EFF0DFAEB79700809385C7C31385812974
:101E5000EF209012B7970080938587C5138581295D
:101E6000EF2090118347B4FE130744FE930507004B
:101E700013850700EFF0CF9E930744FE938507007C
:101E800013858129EF20500FB7970080938587C66F
:101E900013858129EF20500E130000008320C1011B
:101EA000032481011301010267800000130101FE78
:101EB000232E1100232C810013040102A30704FE2A
:101EC000A30604FE230704FE230604FEB797008042
:101ED0009385C7C613858129EF20100A6F00001A69
:101EE000B7970080938507BE13858129EF20D0081E
:101EF00013051000EFE05FBD9307050013F7F70F20
:101F0000238AE120A30704FE6F0080088347F4FEC4
:101F10009387070393F7F70F2306F4FEB797008024
:101F20009385C7C913858129EF2010059307C4FE47
:101F30009385070013858129EF2010048347F4FE61
:101F4000639A0700B7970080938547CB1385812953
:101F5000EF209002B79700809385C7CB1385812926
:101F6000EF20900113051000EFE01FB613070500E6
:101F70008347F4FE1377F70F930604FFB387F60049
:101F8000238CE7FE8347F4FE93871700A307F4FE34
:101F90000347F4FE93073000E3FAE7F6B7970080B3
:101FA000938507C113858129EF20007D83C74121D7
:101FB000130704FE9305070013850700EFF04F8A0F
:101FC000930704FE9385070013858129EF20C07ACB
:101FD000B7970080938507CC13858129EF20C079BE
:101FE000A30704FE6F0000068347F4FE130704FFF7
:101FF000B307F70083C787FF130704FE93050700A5
:1020000013850700EFF0CF85B7970080938507CD44
:1020100013858129EF204076930704FE93850700FE
:1020200013858129EF204075B7970080938547CDB0
:1020300013858129EF2040748347F4FE93871700AE
:10204000A307F4FE0347F4FE93073000E3FEE7F82E
:10205000B7970080938587CD13858129EF20C071C4
:10206000EFE0CFE293070500138707009307100006
:102070006316F700930710002307F4FE8347E4FE7E
:10208000E38007E683A7011C9306D4FE130784FEB2
:10209000130640009305070013850700EFF01F8922
:1020A000B79700809385C7C313858129EF20C06C43
:1020B000B7970080938587C513858129EF20C06B72
:1020C0008347D4FE130704FE93050700138507001A
:1020D000EFE01FF9930704FE93850700138581291C
:1020E000EF208069B7970080938587C61385812983
:1020F000EF208068130000008320C10103248101C8
:102100001301010267800000130101FD2326110263
:102110002324810213040103A30704FEA30604FE83
:10212000A30304FE230704FE230204FEB7970080E6
:10213000938507CE13858129EF200064B79700802F
:10214000938547D113858129EF2000631305300063
:10215000EFE04FFD93070500A306F4FE8347D4FE8E
:1021600013850700EF50000F930705002324F4FEAA
:102170006F00001AB7970080938507BE13858129E9
:10218000EF20805F13051000EFE01F949307050018
:1021900013F7F70F238AE120A30704FE6F008008DE
:1021A0008347F4FE9387070393F7F70F2302F4FEA8
:1021B000B79700809385C7C913858129EF20C05B3D
:1021C000930744FE9385070013858129EF20C05AA9
:1021D0008347F4FE639A0700B7970080938547CB47
:1021E00013858129EF204059B79700809385C7CB8D
:1021F00013858129EF20405813051000EFE0DF8C94
:10220000930605008347F4FE032784FEB307F70017
:1022100013F7F60F2380E7008347F4FE9387170038
:10222000A307F4FE0347F4FE8347D4FEE36AF7F600
:10223000B7970080938507C113858129EF20C0538C
:1022400083C741211307C4FD9305070013850700C9
:10225000EFE01FE19307C4FD9385070013858129F3
:10226000EF208051B7970080938507CC1385812993
:10227000EF208050A30704FE6F0000068347F4FEA2
:10228000032784FEB307F70083C707001307C4FDC5
:102290009305070013850700EFE09FDCB7970080E8
:1022A000938507CD13858129EF20004D9307C4FD49
:1022B0009385070013858129EF20004CB797008094
:1022C000938547CD13858129EF20004B8347F4FE8A
:1022D00093871700A307F4FE0347F4FE8347D4FE59
:1022E000E36EF7F8B7970080938587CD1385812932
:1022F000EF208048EFE08FB99307050013870700B0
:10230000930710006316F700930710002307F4FEED
:102310008347E4FEE38007E683A7011C930674FE6F
:102320000347D4FE13060700832584FE13850700A8
:10233000EFF0CFDFB79700809385C7C3138581295E
:10234000EF208043B7970080938587C51385812947
:10235000EF208042834774FE1307C4FD93050700F6
:1023600013850700EFE0DFCF9307C4FD93850700D7
:1023700013858129EF204040B7970080938587C659
:1023800013858129EF20403F032584FEEF40906DA7
:10239000130000008320C102032481021301010302
:1023A00067800000130101FF232611002324810010
:1023B00013040101B7970080938587A913858129AC
:1023C000EF20803BB7970080938587AA13858129EA
:1023D000EF20803AB7970080938587AC13858129D9
:1023E000EF208039B7970080938507D41385812922
:1023F000EF208038B79700809385C7D51385812952
:10240000EF208037B7970080938547D713858129C0
:10241000EF208036B7970080938547B413858129D4
:10242000EF208035B7970080938547B613858129C3
:10243000EF208034B7970080938547B813858129B2
:10244000EF208033130000008320C10003248100AB
:102450001301010167800000130101FE232E11000A
:10246000232C810013040102230604FEA30704FEAB
:10247000B7970080938587D913858129EF20C02FD6
:102480006F008008B79700809385C7DC138581298A
:10249000EF20802E13051000EFE00FE393070500F7
:1024A00013F7F70F238AE120B7970080938547DE63
:1024B00013858129EF20402C83C74121130744FE57
:1024C0009305070013850700EFE09FB9930744FECB
:1024D0009385070013858129EF20002AB797008094
:1024E000938587C313858129EF200029EFE00F9A98
:1024F0009307050013870700930710006316F70082
:1025000093071000A307F4FE8347F4FEE38C07F65D
:1025100003A7011C9307C4FE93061000138607004F
:102520009385412113050700EFF0CFB6B7970080E0
:102530009385C7DF13858129EF200024B79700809A
:10254000938587E113858129EF2000238347C4FE0B
:10255000130744FE9305070013850700EFE05FB003
:10256000930744FE9385070013858129EF20C0203F
:10257000B7970080938587C613858129EF20C01FF8
:10258000130000008320C101032481011301010213
:1025900067800000130101FE232E1100232C81000F
:1025A00013040102A30704FE230704FE230604FE0E
:1025B000B7970080938587E213858129EF20C01BA0
:1025C0006F008007B79700809385C7DC138581294A
:1025D000EF20801A13051000EFE00FCF93070500DE
:1025E00013F7F70F238AE120B7970080938507C17F
:1025F00013858129EF20401883C74121130704FE6A
:102600009305070013850700EFE09FA5B7970080AB
:10261000938587E513858129EF200016EFE00F876A
:102620009307050013870700930710006316F70050
:10263000930710002307F4FE8347E4FEE38407F8C2
:1026400003A7011C930784FE93064000138607002E
:102650009385412113050700EFF0CFA3B7970080C2
:102660009385C7C313858129EF200011B797008098
:10267000938547E613858129EF200010A30704FE08
:102680006F000006B7970080938507CD13858129D9
:10269000EF20800E8347F4FE130704FFB307F70013
:1026A00083C787FF130704FE930507001385070000
:1026B000EFE01F9B930704FE938507001385812994
:1026C000EF20800BB7970080938547CD1385812934
:1026D000EF20800A8347F4FE93871700A307F4FED8
:1026E0000347F4FE93073000E3FEE7F8B797008056
:1026F000938547E713858129EF2000081300000028
:102700008320C101032481011301010267800000BD
:10271000130101FD23261102232481021304010366
:10272000A30704FEA30604FE230704FE230204FEFF
:10273000B7970080938507CE13858129EF20C003CA
:10274000B7970080938547D113858129EF20C00278
:1027500013053000EFE00F9D93070500A306F4FE7C
:102760008347D4FE13850700EF40D02E9307050062
:102770002324F4FE6F008008B7970080938507BE7E
:1027800013858129EF10507F13051000EFE0CFB3C0
:102790009307050013F7F70F238AE120B79700800E
:1027A000938507C113858129EF10107D83C74121CF
:1027B0001307C4FD9305070013850700EFE05F8A48
:1027C0009307C4FD9385070013858129EF10D07A04
:1027D000B7970080938587E513858129EF10D0791D
:1027E000EFD0DFEA93070500138707009307100077
:1027F0006316F700930710002307F4FE8347E4FEF7
:10280000E38C07F603A7011C8347D4FE93860700D9
:10281000032684FE9385412113050700EFF08F877F
:10282000B79700809385C7C313858129EF10D074B3
:10283000B7970080938547E613858129EF10D07301
:10284000A30704FE6F000006B7970080938507CDAD
:1028500013858129EF1050728347F4FE032784FE0D
:10286000B307F70083C707001307C4FD93050700EC
:1028700013850700EFE0CFFE9307C4FD93850700A3
:1028800013858129EF10506FB7970080938547CD4E
:1028900013858129EF10506E8347F4FE938717004C
:1028A000A307F4FE0347F4FE93073000E3FEE7F8C6
:1028B000B7970080938547E713858129EF10D06B88
:1028C000032584FEEF40101A130000008320C1028C
:1028D000032481021301010367800000130101FF3B
:1028E000232611002324810013040101B7970080DF
:1028F000938587A913858129EF101068B797008009
:10290000938587AA13858129EF101067B7970080F8
:10291000938587AC13858129EF101066B7970080E7
:10292000938587E713858129EF101065B79700809D
:10293000938547E913858129EF101064B7970080CC
:10294000938547B413858129EF101063B7970080F2
:10295000938547B613858129EF101062B7970080E1
:10296000938507EB13858129EF1010611300000098
:102970008320C1000324810013010101678000004E
:10298000130101FF232611002324810013040101F8
:10299000B7970080938507ED13858129EF10D05DEF
:1029A000B7970080938547EE13858129EF10D05C9F
:1029B000B7970080938547EF13858129EF10D05B8F
:1029C000B79700809385C7F013858129EF10D05AFF
:1029D000B7970080938547F213858129EF10D0596E
:1029E000B7970080938507F313858129EF10D0589E
:1029F000B7970080938547F413858129EF10D0574E
:102A0000130000008320C100032481001301010191
:102A100067800000130101FF232611002324810099
:102A200013040101B79700809385C7F513858129A9
:102A3000EF10905483A7812113075000636AF708B1
:102A400013972700B79700809387074AB307F700CB
:102A500083A7070067800700B7970080938507F773
:102A600013858129EF1050516F00C007B797008080
:102A7000938587F713858129EF1010506F0080062A
:102A8000B79700809385C7F813858129EF10D04E42
:102A90006F004005B7970080938507FA1385812959
:102AA000EF10904D6F000004B7970080938587FA70
:102AB00013858129EF10504C6F00C002B79700803A
:102AC000938587FB13858129EF10104B6F008001E0
:102AD000B7970080938587FC13858129EF10D04933
:102AE00013000000130000008320C10003248100B4
:102AF0001301010167800000130101FE232E110064
:102B0000232C810013040102A30704FE230704FE03
:102B1000B7970080938547FD13858129EF10D04535
:102B2000B79700809385C70013858129EF10D044A3
:102B3000B79700809385870313858129EF10D043D1
:102B4000EFF01FE46F00001FB79700809385C70662
:102B500013858129EF105042EFD01FA9930705007C
:102B6000A306F4FE8347D4FE938707FD2306F4FEF5
:102B70008307D4FE13078006638CE7001307100752
:102B80006380E702130740066388E7006F000003D5
:102B9000EFF01FDF6F004003EFF0DFE76F00C002D0
:102BA000B79700809385C70713858129EF10D03C24
:102BB00093071000A307F4FE6F00000193071000B5
:102BC0002307F4FE130000008347E4FE6382071628
:102BD00093071000A307F4FE8347C4FE13075000B9
:102BE000636AF71213972700B79700809387874B84
:102BF000B307F70083A7070067800700B797008037
:102C00009385470913858129EF10103737A7008076
:102C10001307072323A0E11CB7A70080938707238E
:102C200003A7470023ACE120B79700809385070CEA
:102C300013858129EF1050346F00C00F37A7008033
:102C40001307872323A0E11CB7A70080938787235E
:102C500003A7470023ACE120B79700809385070DB9
:102C600013858129EF1050316F00C00C37A7008009
:102C70001307072423A0E11CB7A70080938707242C
:102C800003A7470023ACE120B79700809385C70EC8
:102C900013858129EF10502E6F00C00913878181A1
:102CA00023A0E11C9387818103A7470023ACE12087
:102CB000B79700809385871013858129EF10D02B5B
:102CC0006F0040071387018223A0E11C93870182D4
:102CD00003A7470023ACE120B797008093858711B5
:102CE00013858129EF1050296F00C004138781825A
:102CF00023A0E11C9387818203A7470023ACE12036
:102D0000B79700809385071313858129EF10D0268C
:102D10006F004002B79700809385C71413858129FF
:102D2000EF109025A30704FE230704FE6F00800028
:102D3000130000008347F4FEE38807E0130000005F
:102D40008320C10103248101130101026780000077
:102D5000130101FF23261100232481001304010124
:102D6000B79700809385C71613858129EF10D0206F
:102D7000130000008320C10003248100130101011E
:102D800067800000130101FE232E8100130401025D
:102D90002326A4FE2324B4FE2322C4FE6F00C00217
:102DA0008327C4FE03A70700832784FE23A0E70030
:102DB0008327C4FE938747002326F4FE832784FEDF
:102DC000938747002324F4FE032784FE832744FED1
:102DD000E3F8E7FC130000000324C1011301010222
:102DE00067800000130101FD232681021304010303
:102DF000232EA4FC232CB4FC8327C4FD2326F4FE3D
:102E00006F0080018327C4FE23A007008327C4FE30
:102E1000938747002326F4FE0327C4FE832784FDFF
:102E2000E3F2E7FE130000000324C10213010103D3
:102E300067800000130101FE232E1100232C810066
:102E400013040102B79700809387074D2326F4FEF1
:102E50008327C4FE2320F4FE232204FE232404FE41
:102E600013860184B7A7008093850723B7A7008046
:102E700013850723EFF01FF11386010F938501845B
:102E800013850184EFF01FF0938501111385010F65
:102E9000EFF05FF59385012D13850111EFF09FF49D
:102EA000930704FE9385070013051000EF30107E92
:102EB000130000008320C1010324810113010102DA
:102EC00067800000130101FF232681001304010124
:102ED000130000000324C1001301010167800000FA
:102EE000130101FD2326810213040103232EA4FCF8
:102EF000F32740F12326F4FE8327C4FE2324F4FEA7
:102F0000370700408327C4FD93D75700832684FEEC
:102F100093965600B386F600B71700009387078094
:102F2000B387F60093972700B307F70083A707003E
:102F30002322F4FE8327C4FD93F7F7011307100043
:102F4000B317F70093C7F7FF032744FEB377F700E3
:102F50002322F4FE370700408327C4FD93D7570090
:102F6000832684FE93965600B386F600B7170000BA
:102F700093870780B387F60093972700B307F7007E
:102F8000032744FE23A0E700130000000324C1022E
:102F90001301010367800000130101FE232E81004D
:102FA00013040102F32740F12326F4FE8327C4FE15
:102FB0002324F4FE37070040832784FE93870720ED
:102FC0009397C700B307F70083A74700138507004F
:102FD0000324C1011301010267800000130101FDF8
:102FE0002326810213040103232EA4FCF32740F1BE
:102FF0002326F4FE8327C4FE2324F4FE3707004073
:10300000832784FE938707209397C700B307F700B1
:103010000327C4FD23A2E700130000000324C1021C
:103020001301010367800000130101FE232E8100BC
:103030001304010293070008F3B707302326F4FEB8
:10304000F37704302324F4FE130000000324C101AD
:103050001301010267800000130101FE232E81008D
:1030600013040102F36704302326F4FE130000006A
:103070000324C1011301010267800000130101FD57
:10308000232611022324810213040103232EA4FC0E
:10309000130710002326E4FE8326C4FD1307400611
:1030A00033D7E602930707001308000023ACF10EA4
:1030B00023AE010F83A6810F03A7C10F93870600DC
:1030C000B3E7E70063840708F32740F12324F4FE05
:1030D000832784FE2322F4FE37070044B7C700008D
:1030E000B307F70003A8C7FF83A787FF83A5810F56
:1030F00003A6C10F37050044B386B70093880600C6
:10310000B3B8F8003307C800B387E8001387070097
:103110009387060013080700832644FE3717000034
:10312000130707803387E600131737003307E500DE
:103130002320F7002322070193070008F3A7473055
:103140002320F4FEEFF05FF1232604FE8327C4FE64
:10315000138507008320C1020324810213010103A8
:1031600067800000130101FE232E1100232C810033
:103170001304010293070008F3B747302326F4FE37
:10318000EF10801137070044B7C70000B307F700FE
:1031900003A8C7FF83A787FF83A5810F03A6C10FDD
:1031A00037050044732740F12324E4FE832884FE7E
:1031B000B386B700138306003333F3003307C80028
:1031C000B307E3001387070093870600130807007F
:1031D00037170000130707803387E80013173700FD
:1031E0003307E5002320F700232207019307000897
:1031F000F3A747302322F4FE130000008320C1010F
:10320000032481011301010267800000130101FE04
:10321000232E1100232C810013040102EFF0DFD7CD
:103220002326A4FEA30504FEB7A700800327C4FE3F
:103230001317270093870727B307F70083A7070013
:10324000E780070093070500A305F4FE0325C4FEED
:10325000EFF0DFD80347B4FE930710006316F700C2
:103260000325C4FEEFF0DFC7130000008320C10177
:10327000032481011301010267800000130101FF93
:10328000232611002324810013040101EF00C01143
:10329000B707004423A00700130000008320C100EB
:1032A000032481001301010167800000130101FB69
:1032B000232611042324810413040105232EA4FAD8
:1032C000232CB4FA8327C4FB63D207020327C4FB71
:1032D000B707008093C7F7FF3377F7009307B00075
:1032E0006316F700EFF09FF26F00800A8327C4FB9C
:1032F00063D207020327C4FBB707008093C7F7FF19
:103300003377F700930770006316F700EFF09FE53F
:103310006F0000088327C4FB63D207020327C4FBA6
:10332000B707008093C7F7FF3377F70093073000A4
:103330006316F700EFF09FF46F008005F327403429
:103340002326F4FE8327C4FE2324F4FEF32730341F
:103350002322F4FE832744FE2320F4FEF32750307B
:10336000232EF4FC8327C4FD232CF4FCF327003424
:10337000232AF4FC832744FD2328F4FCF3270030A0
:103380002326F4FC8327C4FC2324F4FC73001000E0
:10339000832784FB138507008320C1040324810451
:1033A0001301010567800000130101FF23261100AE
:1033B00023248100130401011305A000EF00403C09
:1033C000130101FF2326810013040101930700006C
:1033D000138507000324C100130101016780000069
:1033E000130101FF2326810013040101930700004C
:1033F000138507000324C100130101016780000049
:10340000130101FF2326810013040101930700002B
:10341000138507000324C100130101016780000028
:10342000130101FF2326810013040101930700000B
:10343000138507000324C100130101016780000008
:10344000130101FF232681001304010193070000EB
:10345000138507000324C1001301010167800000E8
:10346000130101FF232681001304010193070000CB
:10347000138507000324C1001301010167800000C8
:10348000130101FF232681001304010193070000AB
:10349000138507000324C1001301010167800000A8
:1034A000130101FF2326810013040101930700008B
:1034B000138507000324C100130101016780000088
:1034C000130101FF2326810013040101930700006B
:1034D000138507000324C100130101016780000068
:1034E000130101FF2326810013040101930700004B
:1034F000138507000324C100130101016780000048
:10350000130101FF2326810013040101930700002A
:10351000138507000324C100130101016780000027
:10352000130101FF2326810013040101930700000A
:10353000138507000324C100130101016780000007
:10354000130101FF232681001304010193070000EA
:10355000138507000324C1001301010167800000E7
:10356000130101FF232681001304010193070000CA
:10357000138507000324C1001301010167800000C7
:10358000130101FF232681001304010193070000AA
:10359000138507000324C1001301010167800000A7
:1035A000130101FF2326810013040101930700008A
:1035B000138507000324C100130101016780000087
:1035C000130101FF2326810013040101930700006A
:1035D000138507000324C100130101016780000067
:1035E000130101FF2326810013040101930700004A
:1035F000138507000324C100130101016780000047
:10360000130101FF23268100130401019307000029
:10361000138507000324C100130101016780000026
:10362000130101FF23268100130401019307000009
:10363000138507000324C100130101016780000006
:10364000130101FF232681001304010193070000E9
:10365000138507000324C1001301010167800000E6
:10366000130101FF232681001304010193070000C9
:10367000138507000324C1001301010167800000C6
:10368000130101FF232681001304010193070000A9
:10369000138507000324C1001301010167800000A6
:1036A000130101FF23268100130401019307000089
:1036B000138507000324C100130101016780000086
:1036C000130101FF23268100130401019307000069
:1036D000138507000324C100130101016780000066
:1036E000130101FF23268100130401019307000049
:1036F000138507000324C100130101016780000046
:10370000130101FF23268100130401019307000028
:10371000138507000324C100130101016780000025
:10372000130101FF23268100130401019307000008
:10373000138507000324C100130101016780000005
:10374000130101FF232681001304010193070000E8
:10375000138507000324C1001301010167800000E5
:10376000130101FF232681001304010193070000C8
:10377000138507000324C1001301010167800000C5
:10378000130101FE232E8100130401022326A4FE4F
:103790006F000000130101FE232E810013040102BB
:1037A0002326A4FE03A701838327C4FE3307F70063
:1037B0009387012D636EF70003A701838327C4FE5F
:1037C0003307F700B7B700809387075063F6E70029
:1037D0009307F0FF6F00400203A701838327C4FE15
:1037E0003307F70023A8E18203A701838327C4FEE0
:1037F000B307F040B307F700138507000324C101A6
:103800001301010267800000130101FD232611024C
:10381000232481021304010393070500A30FF4FC82
:10382000A30704FE8347F4FD2306F4FE13060000FD
:103830009305C00113850129EF2090681307F4FE5A
:103840009307C4FE93060700130610009385070034
:1038500013850182EFE08F8D130000008320C102E9
:10386000032481021301010367800000130101FD9D
:10387000232611022324810213040103232EA4FC16
:103880008327C4FD93F7F70F2306F4FEA30704FE76
:10389000B79700809385874D13858129EF00D06D00
:1038A000EFF08FA5130610009305C00113850129C1
:1038B000EF2010618327C4FD0347F4FE9306070041
:1038C000130610009385070013850182EFE00F8631
:1038D000130000008320C1020324810213010103AD
:1038E00067800000130101FB2326110423248104B7
:1038F000232221052320310513040105EF20D07F69
:10390000B79700809385874D13858129EF00D06696
:10391000EFF08F9E130600009305D0011385012957
:10392000EF20105A1309000093090000232824FBFC
:10393000232A34FBB7871E0093870748232CF4FA09
:10394000930704FB9305000013850700EF40006810
:10395000130610009305D00113850129EF2050565E
:10396000232024FD232234FDB7373101938707D06C
:103970002324F4FC930704FC93050000138507003F
:10398000EF40C06413050003EFF01FE8232824FD77
:10399000232A34FDB7871E0093870748232CF4FCA5
:1039A000930704FD9305000013850700EF400062B4
:1039B00013050003EFF05FE513050003EFF0DFE40C
:1039C00013059003EFF05FE413054001EFF0DFE330
:1039D00013056005EFF05FE31305D006EFF0DFE2BB
:1039E00013050007EFF05FE21305C000EFF0DFE121
:1039F00013056000EFF05FE113051000EFF0DFE06A
:103A0000232024FF232234FFB79798009387076869
:103A10002324F4FE930704FE93050000138507009A
:103A2000EF40C05A130000008320C1040324810426
:103A30000329410483290104130101056780000063
:103A4000130101FD23261102232481021304010323
:103A5000232EA4FC232CB4FC232AC4FCEFF09FE803
:103A6000832744FD63920706232604FE6F00C004EB
:103A70008327C4FE9397870193D7874193E707F87D
:103A80009397870193D7874193F7F70F1385070023
:103A9000EFF09FD78327C4FD13871700232EE4FC84
:103AA00083C7070013850700EFF05FDC8327C4FEA0
:103AB000938717002326F4FE0327C4FE832784FD83
:103AC000E348F7FA6F00C006032744FD9307100090
:103AD0006310F706232404FE6F00C004832784FECE
:103AE0009397870193D7874193E707FC93978701C3
:103AF00093D7874193F7F70F13850700EFF0DFD0D7
:103B00008327C4FD13871700232EE4FC83C7070017
:103B100013850700EFF09FD5832784FE9387170056
:103B20002324F4FE032784FE832784FDE348F7FA69
:103B3000130000008320C10203248102130101034A
:103B400067800000130101FE232E8100130401028F
:103B5000F32740F12324F4FE832784FE2322F4FE7E
:103B6000232604FE6F00C00337070040832744FE6E
:103B7000939657008327C4FEB386F600B71700005C
:103B800093870780B387F60093972700B307F70062
:103B900023A007008327C4FE938717002326F4FE83
:103BA0008327C4FEE38207FC232604FE6F00400245
:103BB000370700408327C4FE93972700B307F70019
:103BC00023A007008327C4FE938717002326F4FE53
:103BD0000327C4FE9307E001E3FCE7FC370700403E
:103BE000832744FE938707209397C700B307F70006
:103BF00023A00700B717000093870780F3A747307B
:103C00002320F4FE130000000324C101130101026C
:103C100067800000130101FD2326810213040103C4
:103C2000232EA4FCF32740F12326F4FE8327C4FEB1
:103C30002324F4FE370700408327C4FD93D75700A1
:103C4000832684FE93965600B386F600B7170000CD
:103C500093870780B387F60093972700B307F70091
:103C600083A707002322F4FE8327C4FD93F7F701FF
:103C700013071000B317F700032744FEB367F700DC
:103C80002322F4FE370700408327C4FD93D7570053
:103C9000832684FE93965600B386F600B71700007D
:103CA00093870780B387F60093972700B307F70041
:103CB000032744FE23A0E700130000000324C102F1
:103CC0001301010367800000130101FE232E810010
:103CD000130401022326A4FE2324B4FE3707004068
:103CE0008327C4FE93972700B307F700032784FEBA
:103CF00023A0E700130000000324C1011301010207
:103D000067800000130101FE232E1100232C810087
:103D100013040102230704FEEFF0DFE29306000024
:103D200013061002B735006013854122EF1080534F
:103D3000B7B74F031385C75AEFF04FB49305100080
:103D400013055000EFF05FF813055000EFF09FEC03
:103D5000EF00805CEF008024EF008031A30704FEB9
:103D60006F0000030347F4FE93870115B307F700C4
:103D7000238007000347F4FE93870117B307F7007A
:103D8000238007008347F4FE93871700A307F4FE00
:103D90000347F4FE9307F001E3F6E7FC930744FEC4
:103DA000130610009385070013858129EF00D009C1
:103DB000930705002307F4FE8347E4FE638007149E
:103DC000834744FE130710036388E700130740038B
:103DD0006380E7106F000011B79700809385074F4D
:103DE00013858129EF005019EF00C03093070500BB
:103DF000138707002380E11083C701101386070093
:103E00009385011713050003EF00C0112324A4FEBE
:103E1000832784FE639A070483C70110639C07000D
:103E2000B79700809385C75013858129EF00D01480
:103E30006F004002B79700809385C7521385812990
:103E4000EF009013B797008093850755138581295C
:103E5000EF009012B797008093854755138581290D
:103E6000EF0090116F004006032784FE93072000A7
:103E7000631CF700B79700809385875A13858129C3
:103E8000EF00900F6F004003032784FE930730007C
:103E9000631CF700B79700809385075C1385812921
:103EA000EF00900D6F004001B79700809385875D0C
:103EB00013858129EF00500CB79700809385875FA9
:103EC00013858129EF00500BEF0040316F00400354
:103ED000B79700809385C76413858129EF00D009C7
:103EE0006F000002B797008093854767138581298B
:103EF000EF009008EF00C0176F0080001300000073
:103F0000034744FE93074003E31AF7E893070000D2
:103F1000138507008320C1010324810113010102DD
:103F200067800000130101FD232611022324810272
:103F30001304010393070500232CB4FC13070600A8
:103F4000A30FF4FC93070700230FF4FC8347E4FD61
:103F50009396070193D606018347F4FD13070000EB
:103F6000032684FD9385070013854122EF10004648
:103F7000B7170000938587BB13854122EF10005BC4
:103F80002326A4FE8327C4FE138507008320C102D5
:103F9000032481021301010367800000130101FF64
:103FA000232611002324810013040101B797008008
:103FB0009385876913858129EF00007CB79700807E
:103FC0009385C76E13858129EF00007BB79700802A
:103FD0009385077413858129EF00007AB7970080D5
:103FE0009385477913858129EF000079B797008081
:103FF0009385C77D13858129EF000078B7970080EE
:104000009385875F13858129EF000077B7A700802C
:104010009385078313858129EF000076B7A7008079
:104020009385478813858129EF000075B7A7008025
:104030009385C78C13858129EF000074B7A7008092
:104040009385C79113858129EF000073B79700808E
:104050009385475513858129EF00007213000000F6
:104060008320C10003248100130101016780000047
:10407000130101FF232611002324810013040101F1
:10408000B7A700809385079713858129EF00C06E3D
:10409000B7A700809385479C13858129EF00C06DE9
:1040A000B7A70080938587A013858129EF00C06C96
:1040B000B7A700809385C7A413858129EF00C06B43
:1040C000B7A70080938507A913858129EF00C06AEF
:1040D000B79700809385475513858129EF00C06904
:1040E000130000008320C10003248100130101019B
:1040F00067800000130101FE232E1100232C810094
:1041000013040102A30704FE230704FEA30604FE12
:10411000B7A70080938507AC13858129EF00C065A0
:10412000230704FE6F0080089307C4FE13061000E7
:104130009385070013858129EF000051930705003F
:10414000A306F4FE8347D4FE638207069307C4FEEA
:10415000130610009385070013858129EF00804323
:104160000347C4FE9307D0006318F70093071000BD
:10417000A307F4FE6F0080038346E4FE0347C4FEFA
:1041800093870117B387F6002380E7008347E4FE97
:10419000938717002307F4FE0347E4FE930700020A
:1041A0006316F70093071000A307F4FE8347F4FE9D
:1041B000E38C07F6B797008093850755138581290F
:1041C000EF00805B8347E4FE138507008320C10175
:1041D000032481011301010267800000130101FC27
:1041E000232E1102232C810213040104B7A700809F
:1041F00083A807AF138707AF03284700138707AFCC
:1042000003258700138707AF8325C700138707AFF0
:1042100003260701138707AF83264701138707AFDC
:1042200003278701232614FD232804FD232AA4FC49
:10423000232CB4FC232EC4FC2320D4FE2322E4FE32
:10424000938707AF83C7C7012304F4FE9307C4FC19
:104250001306D0019385070013858129EF00803371
:104260009307B4FE13061000938507001385812978
:10427000EF00803D2326A4FE8327C4FEE38207FED1
:10428000EFF01FDF130000008320C103032481032C
:104290001301010467800000130101FF23261100B0
:1042A00023248100130401019305A00013854122FA
:1042B000EF10002E130000008320C10003248100B2
:1042C0001301010167800000130101FF2326110083
:1042D000232481001304010113854122EF10C0390A
:1042E00093070000138507008320C1000324810089
:1042F0001301010167800000130101FF23268100E3
:104300001304010193070000138507000324C10073
:104310001301010167800000130101FF2326110032
:104320002324810013040101EFE01FD313000000D8
:104330008320C10003248100130101016780000074
:10434000130101FE232E1100232C8100130401020E
:10435000F32700302326F4FE8327C4FE2324F4FE33
:10436000EFE09FCC832784FE138507008320C101E3
:10437000032481011301010267800000130101FE83
:10438000232E8100130401022326A4FE8327C4FEEA
:1043900073900730130000000324C10113010102D0
:1043A000678000002320B50067800000032505001A
:1043B00067800000138E0600331EBE00337ECE00E1
:1043C000032305009303060093C3F3FF33737300C5
:1043D0003363C301232065006780000003250500C7
:1043E0003375C5003355B500678000002310B50054
:1043F000678000000315050067800000138E06002B
:10440000331EBE00337ECE00031305009303060067
:1044100093C3F3FF337373003363C3012310650049
:1044200067800000031505003375C5003355B500DE
:10443000678000002300B5006780000003050500C9
:1044400067800000138E0600331EBE00337ECE0050
:10445000030305009303060093C3F3FF3373730054
:104460003363C30123006500678000000305050076
:104470003375C5003355B50067800000130101FD99
:10448000232611022324810213040103232EA4FCFA
:10449000232CB4FC9307060013870600231BF4FCAF
:1044A00093070700A30AF4FC8327C4FD638A070C63
:1044B000034754FD9307700063E4E70C035764FD62
:1044C000B7270000637EF70A832784FD13878700E0
:1044D000835764FD93F7F70F9385070013050700D3
:1044E000EFF05FF5832784FD9386C700034754FDF3
:1044F000835764FD93D7574093F7877FB367F700DF
:104500009385070013850600EFF0DFF28327C4FDD3
:10451000032784FD23A0E7008327C4FD83A70700AA
:104520009387070113850700EFF05FF193070500FC
:1045300093F72700A307F4FE6F0080038327C4FDD1
:1045400083A707009387470013850700EFF01FEF4D
:104550008327C4FD83A707009387070113850700FE
:10456000EFF0DFED9307050093F72700A307F4FEB4
:104570008347F4FEE39407FC8327C4FD23820700EE
:10458000130000008320C1020324810213010103F0
:1045900067800000130101FD2326110223248102FC
:1045A00013040103232EA4FC232CB4FC232AC4FCF3
:1045B0008327C4FD63800708832784FD638C070677
:1045C000832744FD63880706232604FE6F00C00589
:1045D0008327C4FD83A7070093870701138507007E
:1045E000EFF0DFE59307050093F71700A305F4FE4E
:1045F0008347B4FEE38E07FC8327C4FD83A6070030
:10460000032784FD8327C4FEB307F70083C7070091
:104610009385070013850600EFF0DFE18327C4FED2
:10462000938717002326F4FE0327C4FE832744FD47
:10463000E360F7FA130000008320C1020324810223
:104640001301010367800000130101FD23261102FD
:10465000232481022322910213040103232EA4FCAC
:10466000232CB4FC232AC4FC232404FE8327C4FD8A
:104670006386070E832784FD6382070E832744FD2C
:10468000638E070C232404FE8327C4FD83A7070041
:104690009387070113850700EFF05FDA93070500A2
:1046A000A303F4FE8327C4FD03C74700834774FEBA
:1046B000B367F70013F7F70F8327C4FD2382E700E2
:1046C000834774FE93F72700A307F4FE6F00C0072B
:1046D0008327C4FD83A7070093864700032784FD33
:1046E000832784FEB304F70013850600EFF01FD57F
:1046F000930705002380F400832784FE9387170027
:104700002324F4FE8327C4FD83A7070093870701B2
:1047100013850700EFF09FD293070500A303F4FE73
:104720008327C4FD03C74700834774FEB367F700C0
:1047300013F7F70F8327C4FD2382E700834774FE36
:1047400093F72700A307F4FE8347F4FE638807006E
:10475000032784FE832744FDE36CF7F6832784FE5A
:10476000138507008320C1020324810283244102B0
:104770001301010367800000130101FD23261102CC
:104780002324810213040103232EA4FC232CB4FC54
:104790008327C4FD63800708832784FD638C070695
:1047A000232604FE6F00C0058327C4FD83A70700EE
:1047B0009387070113850700EFF05FC89307050093
:1047C00093F71700A305F4FE8347B4FEE38E07FCBE
:1047D0008327C4FD83A60700032784FD8327C4FE27
:1047E000B307F70083C7070093850700138506000A
:1047F000EFF05FC48327C4FE938717002326F4FEDF
:10480000032784FD8327C4FEB307F70083C707008F
:10481000E39C07F8130000008320C10203248102F7
:104820001301010367800000130101FD23268102AB
:1048300013040103232EA4FC9307F0FFA307F4FE47
:104840008327C4FD638207028327C4FD83C7470013
:1048500093D7274093F7F70F93F77700A307F4FE5A
:104860008327C4FD238207008347F4FE13850700D6
:104870000324C1021301010367800000130101FE3C
:10488000232E1100232C8100130401022326A4FEF1
:104890002324B4FE930706002313F4FE8327C4FEEB
:1048A0006384070E832784FE6380070E1306C0040B
:1048B000930500000325C4FEEF3080188327C4FE53
:1048C000032784FE23A0E700035764FE930700023A
:1048D00063EEE700835764FE638A07008327C4FE04
:1048E000035764FE2392E7046F0000018327C4FE90
:1048F000130710002392E7048327C4FE83A7070051
:1049000093060000130610009305000013850700AE
:10491000EFF05FB38327C4FE83A7070093874702A6
:104920009305000013850700EFF0DFB08327C4FE76
:1049300083A707009387C7019305300013850700FD
:10494000EFF05FAF8327C4FE83A70700938747007C
:104950009305F00F13850700EFF0DFAD8327C4FE4A
:1049600083A707009387870193050000138507003D
:10497000EFF05FAC8327C4FE83A7070093053000E8
:1049800013850700EFF01FAB130000008320C10167
:10499000032481011301010267800000130101FE5D
:1049A000232E1100232C8100130401022326A4FED0
:1049B0008327C4FE638207088327C4FE83A70700FA
:1049C00093060000130610009305000013850700EE
:1049D000EFF05FA78327C4FE23A407048327C4FE48
:1049E00083A707009387C70193053000138507004D
:1049F000EFF05FA48327C4FE83A7070093874700D7
:104A00009305F00F13850700EFF0DFA28327C4FEA4
:104A100083A707009387870193050000138507008C
:104A2000EFF05FA18327C4FE83A707009305300042
:104A300013850700EFF01FA0130000008320C101C1
:104A4000032481011301010267800000130101FDAD
:104A5000232611022324810213040103232EA4FC24
:104A6000232CB4FC232604FE8327C4FD6386070A97
:104A7000032784FD9307700063E0E70A8327C4FDE2
:104A800083A7070013062000930510001385070075
:104A9000EFF0DF9D93070500638007088327C4FDBF
:104AA00083A70700938707021306000193054000C0
:104AB00013850700EFF09F9B9307050013870700FE
:104AC000930710006316F7000325C4FDEF00807004
:104AD0008327C4FD83A70700938747021385070038
:104AE000EFF0DF959307050093860700832784FD89
:104AF00013071000B317F700B3E7F6002326F4FE00
:104B00008327C4FD83A70700938747028325C4FE3C
:104B100013850700EFF01F92130000008320C102ED
:104B2000032481021301010367800000130101FDCA
:104B3000232611022324810213040103232EA4FC43
:104B4000232CB4FC232604FE8327C4FD6388070AB4
:104B5000032784FD9307700063E2E70A8327C4FDFF
:104B600083A7070013062000930510001385070094
:104B7000EFF0DF8F93070500638207088327C4FDEA
:104B800083A70700938707021306000193054000DF
:104B900013850700EFF09F8D93070500138707002B
:104BA000930710006316F7000325C4FDEF00806231
:104BB0008327C4FD83A70700938747021385070057
:104BC000EFF0DF879307050093860700832784FDB6
:104BD00013071000B317F70093C7F7FFB3F7F600FA
:104BE0002326F4FE8327C4FD83A70700938747028B
:104BF0008325C4FE13850700EFF0DF831300000058
:104C00008320C10203248102130101036780000095
:104C1000130101FD23261102232481021304010341
:104C2000232EA4FC232CB4FC930706002328D4FCD9
:104C3000231BF4FC93070700231AF4FC232204FE31
:104C4000231704FE231604FE231504FE231404FE7A
:104C50008327C4FD638607568327C4FD83A7070007
:104C6000130620009305100013850700EFF01F8046
:104C70009307050063860754035764FD835744FD7B
:104C8000B307F700638E0752035764FD835744FD53
:104C9000B307F7009387F7FF2322F4FE8327C4FDB1
:104CA00083A707009387C70193053000138507008A
:104CB000EFF04FF88327C4FD83A70700938707020F
:104CC000130600019305400013850700EFF00FFA6B
:104CD0009307050013870700930710006316F7007A
:104CE0000325C4FDEF00004F8327C4FD83A7070001
:104CF00093060000130610009305000013850700BB
:104D0000EFF04FF46F00C0060357C4FE835764FDF5
:104D10006378F7028327C4FD83A707009386C70043
:104D20008357C4FE032784FDB307F70083C707003A
:104D30009385070013850600EFF0CFE66F00C001F2
:104D40008327C4FD83A707009387C700930500004E
:104D500013850700EFF00FE5835784FE9387170054
:104D60002314F4FE8357C4FE938717002316F4FE22
:104D70008357C4FE032744FE63FAE7008327C4FD7C
:104D800083D747040357C4FEE360F7F88357C4FE94
:104D9000032744FE631EF7068327C4FD83D7470419
:104DA0000357C4FE6376F7060357C4FE835764FDBA
:104DB0006378F7028327C4FD83A7070093868702E1
:104DC0008357C4FE032784FDB307F70083C707009A
:104DD0009385070013850600EFF0CFDC6F00C0015C
:104DE0008327C4FD83A707009387870293050000EC
:104DF00013850700EFF00FDB835784FE93871700BE
:104E00002314F4FE8357C4FE938717002316F4FE81
:104E10008327C4FD83A70700930610001306100024
:104E20009305000013850700EFF0CFE16F00C00D80
:104E30008327C4FD83D74704035784FE637EF706A8
:104E40008357C4FE032744FE6318F7028327C4FD7B
:104E500083A70700938687028357C4FE032784FD38
:104E6000B307F70083C70700938507001385060083
:104E7000EFF04FD36F00C0028327C4FD83A7070064
:104E80009386C7008357C4FE032784FDB307F7004A
:104E900083C707009385070013850600EFF08FD0C6
:104EA0008357C4FE938717002316F4FE835784FEAE
:104EB000938717002314F4FE8327C4FD83A70700FC
:104EC000938707021306400093052000138507000F
:104ED000EFF0CFD993070500639807028327C4FD3D
:104EE00083A707009387870013850700EFF00FCC97
:104EF0008357E4FE938717002317F4FE835784FE3D
:104F00009387F7FF2314F4FE0357C4FE835764FD11
:104F1000E360F7F26F00000A8327C4FD83D74704DC
:104F2000035784FE6370F7048357C4FE032744FECF
:104F300063FAE7028327C4FD83A707009387C700AE
:104F40009305000013850700EFF0CFC58357C4FE1B
:104F5000938717002316F4FE835784FE9387170068
:104F60002314F4FE8327C4FD83A707009387070259
:104F7000130640009305200013850700EFF00FCFC4
:104F800093070500639807028327C4FD83A70700E2
:104F90009387870013850700EFF04FC18357E4FE26
:104FA000938717002317F4FE835784FE9387F7FF38
:104FB0002314F4FE0357E4FE835764FDE36EF7F415
:104FC0006F00800B8327C4FD83D74704035784FEFB
:104FD000637AF7028327C4FD83A707009387C7007E
:104FE0009305000013850700EFF0CFBB8357C4FE85
:104FF000938717002316F4FE835784FE93871700C8
:105000002314F4FE8327C4FD83A7070093870702B8
:10501000130640009305200013850700EFF00FC52D
:1050200093070500639A07048327C4FD83A707003D
:105030009387870013850700EFF04FB793060500AD
:105040008357A4FE032704FDB307F70013F7F60FF9
:105050002380E7008357A4FE938717002315F4FEEF
:105060008357E4FE938717002317F4FE835784FECB
:105070009387F7FF2314F4FE8357C4FE032744FEEF
:10508000E3E2E7F46F00800B8327C4FD83D7470476
:10509000035784FE637AF7028327C4FD83A70700C2
:1050A000938787029305000013850700EFF08FAF09
:1050B0008357C4FE938717002316F4FE835784FE9C
:1050C000938717002314F4FE8327C4FD83A70700EA
:1050D00093870702130640009305200013850700FD
:1050E000EFF0CFB893070500639A07048327C4FD48
:1050F00083A707009387870013850700EFF00FABA6
:10510000930605008357A4FE032704FDB307F700A9
:1051100013F7F60F2380E7008357A4FE9387170049
:105120002315F4FE8357E4FE938717002317F4FE3C
:10513000835784FE9387F7FF2314F4FE8357C4FE3E
:10514000032744FEE302F7F46F00C0068327C4FD83
:1051500083A70700938707021306400093052000EA
:1051600013850700EFF08FB09307050063940704E1
:105170008327C4FD83A70700938787001385070053
:10518000EFF0CFA2930605008357A4FE032704FD8A
:10519000B307F70013F7F60F2380E7008357A4FE49
:1051A000938717002315F4FE8357E4FE93871700B7
:1051B0002317F4FE8357E4FE032744FEE378F7F851
:1051C000130000008320C1020324810213010103A4
:1051D00067800000130101FE232E1100232C8100A3
:1051E000130401022326A4FE8327C4FE83A707001D
:1051F00093060000130610009305000013850700B6
:10520000EFF04FA48327C4FE83A707009387C7014D
:105210009305300013850700EFF0CFA18327C4FE6C
:1052200083A70700938747009305F00F13850700B6
:10523000EFF04FA08327C4FE83A70700930610005A
:10524000130610009305000013850700EFF08F9FF1
:10525000130000008320C101032481011301010216
:1052600067800000130101FD23261102232481021F
:1052700013040103232EA4FC232CB4FC9307060083
:105280002328D4FCA30BF4FC832704FD2326F4FE7F
:10529000EFF00F8B2324A4FE1306C0069305000035
:1052A0000325C4FDEF20C0798327C4FD032784FDB7
:1052B00023A0E700834774FD139717008327C4FDDD
:1052C00023A2E7008327C4FD83A7070093060000FD
:1052D000130600049305600013850700EFF08F9616
:1052E0008327C4FD83A7070093061000130600045C
:1052F0009305600013850700EFF0CF948327C4FD6A
:1053000003A707008327C4FE93D7270093F717004E
:105310009386070013060008930570001305070025
:10532000EFF04F928327C4FD03A707008327C4FE35
:1053300093D7170093F717009386070013062000F2
:105340009305100013050700EFF0CF8F8327C4FDEE
:1053500003A707008327C4FE93F71700938607006F
:10536000130610009305000013050700EFF08F8D62
:105370008327C4FD83A707001387C7008327C4FDC5
:1053800083A747009385070013050700EFF08F8A76
:105390008327C4FD83A707001387C7018327C4FDA4
:1053A00083A747009385070013050700EFF08F8858
:1053B000032584FEEFE09FFC130000008320C10260
:1053C000032481021301010367800000130101FD22
:1053D000232611022324810213040103232EA4FC9B
:1053E00093870500232AC4FCA30DF4FC93870600D1
:1053F000231CF4FC93070700230DF4FCEFE05FF49B
:105400002326A4FE8327C4FD83C7C7006398070033
:105410008327C4FD130710002386E7008327C4FDFC
:10542000130710002385E7068347B4FD1397170081
:105430008327C4FD23A4E7008327C4FD23A207021A
:105440008327C4FD032744FD23ACE700035784FDF5
:105450008327C4FD23AEE7008327C4FD23A00702F2
:105460008327C4FD1307100023AAE7028327C4FD86
:105470000347A4FD238AE7008327C4FD03A747054C
:1054800093071000631AF7008327C4FD1307100069
:10549000A384E7066F0000028327C4FD83A70700EB
:1054A00093061000130600029305500013850700B1
:1054B000EFE05FF98327C4FD03C787069307100059
:1054C0006310F7028327C4FD83A70700930600003B
:1054D000130680009305300013850700EFE09FF668
:1054E0008327C4FD83A70700938747001385070020
:1054F000EFE0DFF493070500A305F4FE8347B4FE55
:1055000093F7F70FA305F4FE0325C4FDEF00D03693
:105510000325C4FEEFE09FE6130000008320C102D4
:10552000032481021301010367800000130101FDC0
:10553000232611022324810213040103232EA4FC39
:10554000232CB4FCEFE0DFDF2326A4FE8327C4FD79
:10555000032784FD23ACE7020325C4FEEFE01FE22E
:105560008327C4FD83A747032324F4FE032784FE77
:1055700093071000E306F7FE832784FE13850700D8
:105580008320C1020324810213010103678000000C
:10559000130101FD232611022324810213040103B8
:1055A000232EA4FC232CB4FC8327C4FD83A78703EC
:1055B000638207068327C4FD83A78703032784FD2F
:1055C0006370F7028327C4FD03A78703832784FD45
:1055D0003307F7408327C4FD23ACE7026F00800345
:1055E000EFE01FD62326A4FE8327C4FD1307300057
:1055F00023AAE7028327C4FD238607008327C4FD6F
:10560000A38407060325C4FEEFE05FD78327C4FD0C
:1056100023AC0702130000008320C102032481028F
:105620001301010367800000130101FE232E110006
:10563000232C8100130401022326A4FE8327C4FE29
:1056400083C70706638007028327C4FE83A707007A
:1056500093061000130640009305200013850700F1
:10566000EFE05FDE130000008320C101032481010D
:105670001301010267800000130101FD23261102BE
:10568000232481022322910213040103232EA4FC6C
:1056900093071000A307F4FE8327C4FD83A7070028
:1056A0009387470013850700EFE05FD99307050054
:1056B000A303F4FE834774FE93F7F70F938787FFE6
:1056C0001307800DE360F70C13972700B7A700803E
:1056D000938707B1B307F70083A707006780070028
:1056E0008327C4FD83A7070093060000130600026A
:1056F0009305500013850700EFE0DFD48327C4FD36
:1057000083A70700138787008327C4FD83A787002B
:105710009385070013050700EFE0DFD18327C4FD61
:1057200083A70700138787008327C4FD83A7470249
:105730009386070013061000930500001305070069
:10574000EFE05FD08327C4FD83A74702639807007B
:105750008327C4FD23A007026F00C0008327C4FD78
:1057600023A807028327C4FD83C797066386070023
:105770008327C4FDA38407068327C4FD03C7C7008E
:105780008327C4FD83C7A706E306F7068327C4FD66
:1057900003C7A7068327C4FD2386E7006F00900593
:1057A0008327C4FD83A70700930610001306000299
:1057B0009305500013850700EFE0DFC86F00500627
:1057C0008327C4FD83A7070093061000130600017A
:1057D0009305400013850700EFE0DFC68327C4FD73
:1057E0001307200023AAE7028327C4FD23860700AE
:1057F0000325C4FDEFF05FE36F0090028327C4FD33
:1058000003A707028327C4FD83A7C7016370F704BA
:105810008327C4FD83A70700138587008327C4FD62
:1058200003A787018327C4FD83A7070213861700F8
:105830008326C4FD23A0C602B307F70083C7070071
:1058400093850700EFE01FBF6F00807D8327C4FDB5
:1058500003C7C700930730006318F7028327C4FD0E
:105860001307100023A2E7028327C4FD83A70700C4
:1058700093061000130600029305500013850700DD
:10588000EFE05FBC6F00C0798327C4FD238607006B
:105890008327C4FD83C7470193F717002307F4FE4E
:1058A0008327C4FD0347E4FE2384E7068347E4FE21
:1058B000639607028327C4FD83A7070093061000A1
:1058C000130600019305400013850700EFE09FB722
:1058D0000325C4FDEFF05FD56F0000010325C4FD73
:1058E000EF00807BA30704FE8327C4FD23AA0702E1
:1058F0006F0000738327C4FD83A707009306100081
:10590000130600019305400013850700EFE09FB3E5
:105910008327C4FD1307200023AAE7028327C4FDC1
:10592000238607000325C4FDEFF01FD06F00406FF2
:105930008327C4FD03A7C7029307100063F2E702A1
:105940008327C4FD83A707009306100013064000B9
:105950009305200013850700EFE0DFAE6F00406C79
:105960008327C4FD03A7C702930710006312F70241
:105970008327C4FD83A70700930600001306400099
:105980009305200013850700EFE0DFAB6F0040694F
:105990008327C4FD83A70700930610001306400069
:1059A0009305200013850700EFE0DFA98327C4FDDE
:1059B00083A707009306100013060001930540001B
:1059C00013850700EFE01FA88327C4FD23AA070261
:1059D0008327C4FD238607006F0080648327C4FDEE
:1059E00083A70700930610001306000193054000EB
:1059F00013850700EFE01FA58327C4FD13072000D0
:105A000023AAE7028327C4FD238607000325C4FDDC
:105A1000EFF09FC16F00C0608327C4FD83A707001C
:105A2000938587008327C4FD03A787028327C4FDCE
:105A300083A70703138617008326C4FD23A8C60285
:105A4000B304F70013850500EFE05F9F930705009F
:105A50002380F4008327C4FD03A707038327C4FD25
:105A600083A7C7029387F7FF636AF7588327C4FDAC
:105A700083A707009306000013064000930520004B
:105A800013850700EFE01F9C6F0040578327C4FD7C
:105A900083A70700938687008327C4FD03A7870297
:105AA0008327C4FD83A70703B304F700138506000B
:105AB000EFE0DF98930705002380F4008327C4FDFF
:105AC00083C7470193F717002307F4FE8327C4FD1C
:105AD0000347E4FE2384E7068347E4FE6396070258
